{
  "contractName": "Ownable",
  "abi": [
    {
      "constant": true,
      "inputs": [],
      "name": "powerToken2",
      "outputs": [
        {
          "internalType": "uint256",
          "name": "",
          "type": "uint256"
        }
      ],
      "payable": false,
      "stateMutability": "view",
      "type": "function"
    },
    {
      "constant": true,
      "inputs": [],
      "name": "owner",
      "outputs": [
        {
          "internalType": "address payable",
          "name": "",
          "type": "address"
        }
      ],
      "payable": false,
      "stateMutability": "view",
      "type": "function"
    },
    {
      "constant": true,
      "inputs": [],
      "name": "TGTSToken",
      "outputs": [
        {
          "internalType": "contract External3",
          "name": "",
          "type": "address"
        }
      ],
      "payable": false,
      "stateMutability": "view",
      "type": "function"
    },
    {
      "constant": true,
      "inputs": [],
      "name": "powerToken1",
      "outputs": [
        {
          "internalType": "uint256",
          "name": "",
          "type": "uint256"
        }
      ],
      "payable": false,
      "stateMutability": "view",
      "type": "function"
    },
    {
      "anonymous": false,
      "inputs": [
        {
          "indexed": true,
          "internalType": "address",
          "name": "previousOwner",
          "type": "address"
        },
        {
          "indexed": true,
          "internalType": "address",
          "name": "newOwner",
          "type": "address"
        }
      ],
      "name": "OwnershipTransferred",
      "type": "event"
    },
    {
      "constant": false,
      "inputs": [
        {
          "internalType": "address payable",
          "name": "newOwner",
          "type": "address"
        }
      ],
      "name": "transferOwnership",
      "outputs": [],
      "payable": false,
      "stateMutability": "nonpayable",
      "type": "function"
    },
    {
      "constant": false,
      "inputs": [],
      "name": "close",
      "outputs": [],
      "payable": false,
      "stateMutability": "nonpayable",
      "type": "function"
    }
  ],
  "bytecode": "0x608060405234801561001057600080fd5b506107db806100206000396000f3fe608060405234801561001057600080fd5b506004361061007f576000357c0100000000000000000000000000000000000000000000000000000000900480631f92b1421461008457806343d726d6146100a25780638da5cb5b146100ac5780638e9d2bb4146100f65780639a829e9e14610140578063f2fde38b1461015e575b600080fd5b61008c6101a2565b6040518082815260200191505060405180910390f35b6100aa6101a7565b005b6100b461043d565b604051808273ffffffffffffffffffffffffffffffffffffffff1673ffffffffffffffffffffffffffffffffffffffff16815260200191505060405180910390f35b6100fe610462565b604051808273ffffffffffffffffffffffffffffffffffffffff1673ffffffffffffffffffffffffffffffffffffffff16815260200191505060405180910390f35b610148610488565b6040518082815260200191505060405180910390f35b6101a06004803603602081101561017457600080fd5b81019080803573ffffffffffffffffffffffffffffffffffffffff16906020019092919050505061048d565b005b600181565b6000809054906101000a900473ffffffffffffffffffffffffffffffffffffffff1673ffffffffffffffffffffffffffffffffffffffff163373ffffffffffffffffffffffffffffffffffffffff161461020057600080fd5b3373ffffffffffffffffffffffffffffffffffffffff16600160009054906101000a900473ffffffffffffffffffffffffffffffffffffffff1673ffffffffffffffffffffffffffffffffffffffff1663081812fc60006040518263ffffffff167c01000000000000000000000000000000000000000000000000000000000281526004018082815260200191505060206040518083038186803b1580156102a757600080fd5b505afa1580156102bb573d6000803e3d6000fd5b505050506040513d60208110156102d157600080fd5b810190808051906020019092919050505073ffffffffffffffffffffffffffffffffffffffff161480156103fa57503373ffffffffffffffffffffffffffffffffffffffff16600160009054906101000a900473ffffffffffffffffffffffffffffffffffffffff1673ffffffffffffffffffffffffffffffffffffffff1663081812fc60016040518263ffffffff167c01000000000000000000000000000000000000000000000000000000000281526004018082815260200191505060206040518083038186803b1580156103a757600080fd5b505afa1580156103bb573d6000803e3d6000fd5b505050506040513d60208110156103d157600080fd5b810190808051906020019092919050505073ffffffffffffffffffffffffffffffffffffffff16145b61040357600080fd5b6000809054906101000a900473ffffffffffffffffffffffffffffffffffffffff1673ffffffffffffffffffffffffffffffffffffffff16ff5b6000809054906101000a900473ffffffffffffffffffffffffffffffffffffffff1681565b600160009054906101000a900473ffffffffffffffffffffffffffffffffffffffff1681565b600081565b6000809054906101000a900473ffffffffffffffffffffffffffffffffffffffff1673ffffffffffffffffffffffffffffffffffffffff163373ffffffffffffffffffffffffffffffffffffffff16146104e657600080fd5b8073ffffffffffffffffffffffffffffffffffffffff16600160009054906101000a900473ffffffffffffffffffffffffffffffffffffffff1673ffffffffffffffffffffffffffffffffffffffff1663081812fc60006040518263ffffffff167c01000000000000000000000000000000000000000000000000000000000281526004018082815260200191505060206040518083038186803b15801561058d57600080fd5b505afa1580156105a1573d6000803e3d6000fd5b505050506040513d60208110156105b757600080fd5b810190808051906020019092919050505073ffffffffffffffffffffffffffffffffffffffff1614806106df57508073ffffffffffffffffffffffffffffffffffffffff16600160009054906101000a900473ffffffffffffffffffffffffffffffffffffffff1673ffffffffffffffffffffffffffffffffffffffff1663081812fc60016040518263ffffffff167c01000000000000000000000000000000000000000000000000000000000281526004018082815260200191505060206040518083038186803b15801561068c57600080fd5b505afa1580156106a0573d6000803e3d6000fd5b505050506040513d60208110156106b657600080fd5b810190808051906020019092919050505073ffffffffffffffffffffffffffffffffffffffff16145b6106e857600080fd5b8073ffffffffffffffffffffffffffffffffffffffff166000809054906101000a900473ffffffffffffffffffffffffffffffffffffffff1673ffffffffffffffffffffffffffffffffffffffff167f8be0079c531659141344cd1fd0a4f28419497f9722a3daafe3b4186f6b6457e060405160405180910390a3806000806101000a81548173ffffffffffffffffffffffffffffffffffffffff021916908373ffffffffffffffffffffffffffffffffffffffff1602179055505056fea265627a7a723158209927b9d2a1abc3ea5a64f8a2662e38219458084a03ddcf0294a6881a91fb4e5c64736f6c634300050b0032",
  "source": "pragma solidity ^0.5.0;\n\ninterface External1 {\n  function ID() external returns (uint);\n  function addInbox() payable external;\n}\n\ninterface External2 {\n  function totalSupply() external view returns (uint256);\n  function balanceOf(address who) external view returns (uint256);\n  function mintExternal(address account, uint256 value) external returns (bool);\n  function burnExternal(address account, uint256 value) external returns (bool);\n  function transferFrom(address from, address to, uint256 value) external returns (bool);\n  function transfer(address to, uint256 value) external returns (bool);\n  function approve(address spender, uint256 value) external returns (bool);\n}\n\ninterface External3 {\n  function transferFrom(address from, address to, uint256 tokenId) external;\n  function getApproved(uint256 tokenId) external view returns (address);\n  function getLastSpaceID() external returns (uint);\n}\n\ncontract Ownable {\n\n  address payable public owner;\n\n  External3 public TGTSToken;\n\n  uint constant public powerToken1 = 0;\n  uint constant public powerToken2 = 1;\n\n  event OwnershipTransferred(address indexed previousOwner, address indexed newOwner);\n\n  /**\n   * @dev Throws if called by any account other than the owner.\n   */\n  modifier onlyOwner() {\n    require(msg.sender == owner);\n    _;\n  }\n\n  function transferOwnership(address payable newOwner) onlyOwner public {\n    require(TGTSToken.getApproved(powerToken1) == newOwner || TGTSToken.getApproved(powerToken2) == newOwner);\n    emit OwnershipTransferred(owner, newOwner);\n    owner = newOwner;\n  }\n\n  function returnHash(string memory _char) internal pure returns (uint)\n  {\n    return uint(keccak256(bytes(_char)));\n  }\n\n  function close() public onlyOwner { //onlyOwner is custom modifier\n    require(TGTSToken.getApproved(powerToken1) == msg.sender && TGTSToken.getApproved(powerToken2) == msg.sender);\n    selfdestruct(owner);  // `owner` is the owners address\n  }\n\n\n}\n",
  "sourcePath": "/Users/germaindacunha/Documents/GitHub/App_Togethers/contracts/owner/Ownable.sol",
  "compiler": {
    "name": "solc",
    "version": "0.5.11+commit.c082d0b4.Emscripten.clang"
  },
  "schemaVersion": "3.0.9",
  "updatedAt": "2019-11-28T09:54:01.675Z",
  "devdoc": {
    "methods": {}
  },
  "userdoc": {
    "methods": {}
  }
}