{
  "contractName": "SpaceOperator",
  "abi": [
    {
      "constant": true,
      "inputs": [],
      "name": "powerToken2",
      "outputs": [
        {
          "internalType": "uint256",
          "name": "",
          "type": "uint256"
        }
      ],
      "payable": false,
      "stateMutability": "view",
      "type": "function"
    },
    {
      "constant": false,
      "inputs": [],
      "name": "close",
      "outputs": [],
      "payable": false,
      "stateMutability": "nonpayable",
      "type": "function"
    },
    {
      "constant": true,
      "inputs": [],
      "name": "owner",
      "outputs": [
        {
          "internalType": "address payable",
          "name": "",
          "type": "address"
        }
      ],
      "payable": false,
      "stateMutability": "view",
      "type": "function"
    },
    {
      "constant": true,
      "inputs": [],
      "name": "TGTSToken",
      "outputs": [
        {
          "internalType": "contract External3",
          "name": "",
          "type": "address"
        }
      ],
      "payable": false,
      "stateMutability": "view",
      "type": "function"
    },
    {
      "constant": true,
      "inputs": [],
      "name": "powerToken1",
      "outputs": [
        {
          "internalType": "uint256",
          "name": "",
          "type": "uint256"
        }
      ],
      "payable": false,
      "stateMutability": "view",
      "type": "function"
    },
    {
      "constant": true,
      "inputs": [
        {
          "internalType": "uint256",
          "name": "",
          "type": "uint256"
        }
      ],
      "name": "mappSpacePrice",
      "outputs": [
        {
          "internalType": "uint256",
          "name": "",
          "type": "uint256"
        }
      ],
      "payable": false,
      "stateMutability": "view",
      "type": "function"
    },
    {
      "constant": true,
      "inputs": [
        {
          "internalType": "uint256",
          "name": "",
          "type": "uint256"
        }
      ],
      "name": "swapOption",
      "outputs": [
        {
          "internalType": "uint256",
          "name": "spaceID",
          "type": "uint256"
        },
        {
          "internalType": "uint256",
          "name": "offer",
          "type": "uint256"
        }
      ],
      "payable": false,
      "stateMutability": "view",
      "type": "function"
    },
    {
      "constant": false,
      "inputs": [
        {
          "internalType": "address payable",
          "name": "newOwner",
          "type": "address"
        }
      ],
      "name": "transferOwnership",
      "outputs": [],
      "payable": false,
      "stateMutability": "nonpayable",
      "type": "function"
    },
    {
      "inputs": [
        {
          "internalType": "address",
          "name": "tgts",
          "type": "address"
        },
        {
          "internalType": "address",
          "name": "tgtc",
          "type": "address"
        }
      ],
      "payable": false,
      "stateMutability": "nonpayable",
      "type": "constructor"
    },
    {
      "anonymous": false,
      "inputs": [
        {
          "indexed": true,
          "internalType": "uint256",
          "name": "a",
          "type": "uint256"
        },
        {
          "indexed": true,
          "internalType": "uint256",
          "name": "b",
          "type": "uint256"
        },
        {
          "indexed": false,
          "internalType": "address",
          "name": "from",
          "type": "address"
        },
        {
          "indexed": true,
          "internalType": "address",
          "name": "to",
          "type": "address"
        },
        {
          "indexed": false,
          "internalType": "uint256",
          "name": "offer",
          "type": "uint256"
        }
      ],
      "name": "swapDemand",
      "type": "event"
    },
    {
      "anonymous": false,
      "inputs": [
        {
          "indexed": true,
          "internalType": "uint256",
          "name": "spaceFrom",
          "type": "uint256"
        },
        {
          "indexed": false,
          "internalType": "uint256",
          "name": "TGTCPrice",
          "type": "uint256"
        }
      ],
      "name": "onSale",
      "type": "event"
    },
    {
      "anonymous": false,
      "inputs": [
        {
          "indexed": true,
          "internalType": "address",
          "name": "previousOwner",
          "type": "address"
        },
        {
          "indexed": true,
          "internalType": "address",
          "name": "newOwner",
          "type": "address"
        }
      ],
      "name": "OwnershipTransferred",
      "type": "event"
    },
    {
      "constant": false,
      "inputs": [
        {
          "internalType": "uint256",
          "name": "spaceFrom",
          "type": "uint256"
        },
        {
          "internalType": "uint256",
          "name": "spaceTo",
          "type": "uint256"
        },
        {
          "internalType": "uint256",
          "name": "optionalTGTCOffer",
          "type": "uint256"
        }
      ],
      "name": "exchangeSpace",
      "outputs": [],
      "payable": false,
      "stateMutability": "nonpayable",
      "type": "function"
    },
    {
      "constant": false,
      "inputs": [
        {
          "internalType": "uint256",
          "name": "spaceFrom",
          "type": "uint256"
        },
        {
          "internalType": "uint256",
          "name": "TGTCPrice",
          "type": "uint256"
        }
      ],
      "name": "sellSpace",
      "outputs": [],
      "payable": false,
      "stateMutability": "nonpayable",
      "type": "function"
    },
    {
      "constant": false,
      "inputs": [
        {
          "internalType": "uint256",
          "name": "spaceFrom",
          "type": "uint256"
        },
        {
          "internalType": "uint256",
          "name": "TGTCAmount",
          "type": "uint256"
        }
      ],
      "name": "buySpace",
      "outputs": [],
      "payable": false,
      "stateMutability": "nonpayable",
      "type": "function"
    }
  ],
  "bytecode": "0x608060405234801561001057600080fd5b506040516117713803806117718339818101604052604081101561003357600080fd5b810190808051906020019092919080519060200190929190505050336000806101000a81548173ffffffffffffffffffffffffffffffffffffffff021916908373ffffffffffffffffffffffffffffffffffffffff16021790555081600160006101000a81548173ffffffffffffffffffffffffffffffffffffffff021916908373ffffffffffffffffffffffffffffffffffffffff16021790555080600460006101000a81548173ffffffffffffffffffffffffffffffffffffffff021916908373ffffffffffffffffffffffffffffffffffffffff1602179055505050611650806101216000396000f3fe608060405234801561001057600080fd5b50600436106100c6576000357c0100000000000000000000000000000000000000000000000000000000900480638e9d2bb41161008e5780638e9d2bb4146101b75780639400eb25146102015780639a829e9e14610239578063c9db6d8414610257578063e5be9dd814610299578063f2fde38b146102e2576100c6565b80631f92b142146100cb57806343d726d6146100e95780636703f91c146100f35780636e6a4bba146101355780638da5cb5b1461016d575b600080fd5b6100d3610326565b6040518082815260200191505060405180910390f35b6100f161032b565b005b6101336004803603606081101561010957600080fd5b810190808035906020019092919080359060200190929190803590602001909291905050506105c1565b005b61016b6004803603604081101561014b57600080fd5b810190808035906020019092919080359060200190929190505050610d71565b005b610175610eed565b604051808273ffffffffffffffffffffffffffffffffffffffff1673ffffffffffffffffffffffffffffffffffffffff16815260200191505060405180910390f35b6101bf610f12565b604051808273ffffffffffffffffffffffffffffffffffffffff1673ffffffffffffffffffffffffffffffffffffffff16815260200191505060405180910390f35b6102376004803603604081101561021757600080fd5b810190808035906020019092919080359060200190929190505050610f38565b005b6102416112c1565b6040518082815260200191505060405180910390f35b6102836004803603602081101561026d57600080fd5b81019080803590602001909291905050506112c6565b6040518082815260200191505060405180910390f35b6102c5600480360360208110156102af57600080fd5b81019080803590602001909291905050506112de565b604051808381526020018281526020019250505060405180910390f35b610324600480360360208110156102f857600080fd5b81019080803573ffffffffffffffffffffffffffffffffffffffff169060200190929190505050611302565b005b600181565b6000809054906101000a900473ffffffffffffffffffffffffffffffffffffffff1673ffffffffffffffffffffffffffffffffffffffff163373ffffffffffffffffffffffffffffffffffffffff161461038457600080fd5b3373ffffffffffffffffffffffffffffffffffffffff16600160009054906101000a900473ffffffffffffffffffffffffffffffffffffffff1673ffffffffffffffffffffffffffffffffffffffff1663081812fc60006040518263ffffffff167c01000000000000000000000000000000000000000000000000000000000281526004018082815260200191505060206040518083038186803b15801561042b57600080fd5b505afa15801561043f573d6000803e3d6000fd5b505050506040513d602081101561045557600080fd5b810190808051906020019092919050505073ffffffffffffffffffffffffffffffffffffffff1614801561057e57503373ffffffffffffffffffffffffffffffffffffffff16600160009054906101000a900473ffffffffffffffffffffffffffffffffffffffff1673ffffffffffffffffffffffffffffffffffffffff1663081812fc60016040518263ffffffff167c01000000000000000000000000000000000000000000000000000000000281526004018082815260200191505060206040518083038186803b15801561052b57600080fd5b505afa15801561053f573d6000803e3d6000fd5b505050506040513d602081101561055557600080fd5b810190808051906020019092919050505073ffffffffffffffffffffffffffffffffffffffff16145b61058757600080fd5b6000809054906101000a900473ffffffffffffffffffffffffffffffffffffffff1673ffffffffffffffffffffffffffffffffffffffff16ff5b6000600160009054906101000a900473ffffffffffffffffffffffffffffffffffffffff1673ffffffffffffffffffffffffffffffffffffffff1663081812fc846040518263ffffffff167c01000000000000000000000000000000000000000000000000000000000281526004018082815260200191505060206040518083038186803b15801561065257600080fd5b505afa158015610666573d6000803e3d6000fd5b505050506040513d602081101561067c57600080fd5b810190808051906020019092919050505090506000600160009054906101000a900473ffffffffffffffffffffffffffffffffffffffff1673ffffffffffffffffffffffffffffffffffffffff16631710775a6040518163ffffffff167c0100000000000000000000000000000000000000000000000000000000028152600401602060405180830381600087803b15801561071757600080fd5b505af115801561072b573d6000803e3d6000fd5b505050506040513d602081101561074157600080fd5b81019080805190602001909291905050509050808511801561076257508084115b61076b57600080fd5b3373ffffffffffffffffffffffffffffffffffffffff16600160009054906101000a900473ffffffffffffffffffffffffffffffffffffffff1673ffffffffffffffffffffffffffffffffffffffff1663081812fc876040518263ffffffff167c01000000000000000000000000000000000000000000000000000000000281526004018082815260200191505060206040518083038186803b15801561081157600080fd5b505afa158015610825573d6000803e3d6000fd5b505050506040513d602081101561083b57600080fd5b810190808051906020019092919050505073ffffffffffffffffffffffffffffffffffffffff16148015610870575060008514155b801561087d575060018514155b80156108b65750600073ffffffffffffffffffffffffffffffffffffffff168273ffffffffffffffffffffffffffffffffffffffff1614155b80156108ee57503373ffffffffffffffffffffffffffffffffffffffff168273ffffffffffffffffffffffffffffffffffffffff1614155b6108f757600080fd5b8460026000868152602001908152602001600020600001541415610ca657600160009054906101000a900473ffffffffffffffffffffffffffffffffffffffff1673ffffffffffffffffffffffffffffffffffffffff166323b872dd3384886040518463ffffffff167c0100000000000000000000000000000000000000000000000000000000028152600401808473ffffffffffffffffffffffffffffffffffffffff1673ffffffffffffffffffffffffffffffffffffffff1681526020018373ffffffffffffffffffffffffffffffffffffffff1673ffffffffffffffffffffffffffffffffffffffff1681526020018281526020019350505050600060405180830381600087803b158015610a0e57600080fd5b505af1158015610a22573d6000803e3d6000fd5b50505050600160009054906101000a900473ffffffffffffffffffffffffffffffffffffffff1673ffffffffffffffffffffffffffffffffffffffff166323b872dd8333876040518463ffffffff167c0100000000000000000000000000000000000000000000000000000000028152600401808473ffffffffffffffffffffffffffffffffffffffff1673ffffffffffffffffffffffffffffffffffffffff1681526020018373ffffffffffffffffffffffffffffffffffffffff1673ffffffffffffffffffffffffffffffffffffffff1681526020018281526020019350505050600060405180830381600087803b158015610b1f57600080fd5b505af1158015610b33573d6000803e3d6000fd5b505050506000600260008681526020019081526020016000206001015414610ca157600460009054906101000a900473ffffffffffffffffffffffffffffffffffffffff1673ffffffffffffffffffffffffffffffffffffffff166323b872dd338460026000898152602001908152602001600020600101546040518463ffffffff167c0100000000000000000000000000000000000000000000000000000000028152600401808473ffffffffffffffffffffffffffffffffffffffff1673ffffffffffffffffffffffffffffffffffffffff1681526020018373ffffffffffffffffffffffffffffffffffffffff1673ffffffffffffffffffffffffffffffffffffffff1681526020018281526020019350505050602060405180830381600087803b158015610c6457600080fd5b505af1158015610c78573d6000803e3d6000fd5b505050506040513d6020811015610c8e57600080fd5b8101908080519060200190929190505050505b610d6a565b60008314610cca578260026000868152602001908152602001600020600101819055505b8360026000878152602001908152602001600020600001819055508173ffffffffffffffffffffffffffffffffffffffff1684867f791211140249fe8ff66e7d992eb4353649ea58b9916b3b19ba8e2ed38654853c3387604051808373ffffffffffffffffffffffffffffffffffffffff1673ffffffffffffffffffffffffffffffffffffffff1681526020018281526020019250505060405180910390a45b5050505050565b3373ffffffffffffffffffffffffffffffffffffffff16600160009054906101000a900473ffffffffffffffffffffffffffffffffffffffff1673ffffffffffffffffffffffffffffffffffffffff1663081812fc846040518263ffffffff167c01000000000000000000000000000000000000000000000000000000000281526004018082815260200191505060206040518083038186803b158015610e1757600080fd5b505afa158015610e2b573d6000803e3d6000fd5b505050506040513d6020811015610e4157600080fd5b810190808051906020019092919050505073ffffffffffffffffffffffffffffffffffffffff16148015610e76575060008114155b8015610e83575060008214155b8015610e90575060018214155b610e9957600080fd5b806003600084815260200190815260200160002081905550817f6c6a648185e78bce86957b13c7ce58dc2d2e825b2c2c452ad941e89b0eeb0aa8826040518082815260200191505060405180910390a25050565b6000809054906101000a900473ffffffffffffffffffffffffffffffffffffffff1681565b600160009054906101000a900473ffffffffffffffffffffffffffffffffffffffff1681565b600360008381526020019081526020016000205481148015610f6e57506000600360008481526020019081526020016000205414155b8015610f7b575060008214155b8015610f88575060018214155b610f9157600080fd5b6000600160009054906101000a900473ffffffffffffffffffffffffffffffffffffffff1673ffffffffffffffffffffffffffffffffffffffff1663081812fc846040518263ffffffff167c01000000000000000000000000000000000000000000000000000000000281526004018082815260200191505060206040518083038186803b15801561102257600080fd5b505afa158015611036573d6000803e3d6000fd5b505050506040513d602081101561104c57600080fd5b81019080805190602001909291905050509050600460009054906101000a900473ffffffffffffffffffffffffffffffffffffffff1673ffffffffffffffffffffffffffffffffffffffff166323b872dd3383856040518463ffffffff167c0100000000000000000000000000000000000000000000000000000000028152600401808473ffffffffffffffffffffffffffffffffffffffff1673ffffffffffffffffffffffffffffffffffffffff1681526020018373ffffffffffffffffffffffffffffffffffffffff1673ffffffffffffffffffffffffffffffffffffffff1681526020018281526020019350505050602060405180830381600087803b15801561115857600080fd5b505af115801561116c573d6000803e3d6000fd5b505050506040513d602081101561118257600080fd5b810190808051906020019092919050505050600160009054906101000a900473ffffffffffffffffffffffffffffffffffffffff1673ffffffffffffffffffffffffffffffffffffffff166323b872dd8233866040518463ffffffff167c0100000000000000000000000000000000000000000000000000000000028152600401808473ffffffffffffffffffffffffffffffffffffffff1673ffffffffffffffffffffffffffffffffffffffff1681526020018373ffffffffffffffffffffffffffffffffffffffff1673ffffffffffffffffffffffffffffffffffffffff1681526020018281526020019350505050600060405180830381600087803b15801561128d57600080fd5b505af11580156112a1573d6000803e3d6000fd5b505050506000600360008581526020019081526020016000205050505050565b600081565b60036020528060005260406000206000915090505481565b60026020528060005260406000206000915090508060000154908060010154905082565b6000809054906101000a900473ffffffffffffffffffffffffffffffffffffffff1673ffffffffffffffffffffffffffffffffffffffff163373ffffffffffffffffffffffffffffffffffffffff161461135b57600080fd5b8073ffffffffffffffffffffffffffffffffffffffff16600160009054906101000a900473ffffffffffffffffffffffffffffffffffffffff1673ffffffffffffffffffffffffffffffffffffffff1663081812fc60006040518263ffffffff167c01000000000000000000000000000000000000000000000000000000000281526004018082815260200191505060206040518083038186803b15801561140257600080fd5b505afa158015611416573d6000803e3d6000fd5b505050506040513d602081101561142c57600080fd5b810190808051906020019092919050505073ffffffffffffffffffffffffffffffffffffffff16148061155457508073ffffffffffffffffffffffffffffffffffffffff16600160009054906101000a900473ffffffffffffffffffffffffffffffffffffffff1673ffffffffffffffffffffffffffffffffffffffff1663081812fc60016040518263ffffffff167c01000000000000000000000000000000000000000000000000000000000281526004018082815260200191505060206040518083038186803b15801561150157600080fd5b505afa158015611515573d6000803e3d6000fd5b505050506040513d602081101561152b57600080fd5b810190808051906020019092919050505073ffffffffffffffffffffffffffffffffffffffff16145b61155d57600080fd5b8073ffffffffffffffffffffffffffffffffffffffff166000809054906101000a900473ffffffffffffffffffffffffffffffffffffffff1673ffffffffffffffffffffffffffffffffffffffff167f8be0079c531659141344cd1fd0a4f28419497f9722a3daafe3b4186f6b6457e060405160405180910390a3806000806101000a81548173ffffffffffffffffffffffffffffffffffffffff021916908373ffffffffffffffffffffffffffffffffffffffff1602179055505056fea265627a7a72315820af206eaaf337ee80972d8fa4a459dfd0449d9b0e377755fabb388c1901c40b3564736f6c634300050b0032",
  "source": "pragma solidity ^0.5.0;\n\nimport \"../owner/Ownable.sol\";\n\ncontract SpaceOperator is Ownable {\n\n  event swapDemand(uint indexed a, uint indexed b, address from, address indexed to, uint offer);\n  event onSale(uint indexed spaceFrom, uint TGTCPrice);\n\n  mapping (uint => option) public swapOption;\n  mapping (uint => uint) public mappSpacePrice;\n\n  struct option\n  {\n    uint spaceID;\n    uint offer;\n  }\n\n  External2 TGTCToken;\n\n  constructor(address tgts, address tgtc) public {\n    owner = msg.sender;\n    TGTSToken = External3(tgts);\n    TGTCToken = External2(tgtc);\n  }\n\n  function exchangeSpace(uint spaceFrom, uint spaceTo, uint optionalTGTCOffer) public\n  {\n    address addressTo = TGTSToken.getApproved(spaceTo);\n    uint spaceID = TGTSToken.getLastSpaceID();\n    require(spaceFrom > spaceID && spaceTo > spaceID);\n    require(TGTSToken.getApproved(spaceFrom) == msg.sender\n    && spaceFrom != powerToken1 && spaceFrom != powerToken2 && addressTo != address(0) && addressTo != msg.sender);\n    if (swapOption[spaceTo].spaceID == spaceFrom)\n    {\n      TGTSToken.transferFrom(msg.sender,addressTo,spaceFrom);\n      TGTSToken.transferFrom(addressTo,msg.sender,spaceTo);\n      if (swapOption[spaceTo].offer != 0)\n      {\n        TGTCToken.transferFrom(msg.sender,addressTo,swapOption[spaceTo].offer);\n      }\n    }\n    else\n    {\n      if (optionalTGTCOffer != 0)\n      {\n        swapOption[spaceTo].offer = optionalTGTCOffer;\n      }\n      swapOption[spaceFrom].spaceID = spaceTo;\n      emit swapDemand(spaceFrom,spaceTo,msg.sender,addressTo,optionalTGTCOffer);\n    }\n  }\n\n  function sellSpace(uint spaceFrom, uint TGTCPrice) public\n  {\n    require(TGTSToken.getApproved(spaceFrom) == msg.sender && TGTCPrice != 0\n    && spaceFrom != powerToken1 && spaceFrom != powerToken2);\n    mappSpacePrice[spaceFrom] = TGTCPrice;\n    emit onSale(spaceFrom,TGTCPrice);\n  }\n\n  function buySpace(uint spaceFrom, uint TGTCAmount) public\n  {\n    require(TGTCAmount == mappSpacePrice[spaceFrom] && mappSpacePrice[spaceFrom] != 0\n    && spaceFrom != powerToken1 && spaceFrom != powerToken2);\n    address target = TGTSToken.getApproved(spaceFrom);\n    TGTCToken.transferFrom(msg.sender,target,TGTCAmount); // faire balance/approve dans app\n    TGTSToken.transferFrom(target,msg.sender,spaceFrom);\n    mappSpacePrice[spaceFrom] == 0;\n  }\n\n}\n",
  "sourcePath": "/Users/germaindacunha/Documents/GitHub/App_Togethers/contracts/main/SpaceOperator.sol",
  "compiler": {
    "name": "solc",
    "version": "0.5.11+commit.c082d0b4.Emscripten.clang"
  },
  "schemaVersion": "3.0.9",
  "updatedAt": "2019-11-28T09:54:04.494Z",
  "devdoc": {
    "methods": {}
  },
  "userdoc": {
    "methods": {}
  }
}