{
  "contractName": "SpaceManager",
  "abi": [
    {
      "constant": true,
      "inputs": [
        {
          "internalType": "bytes4",
          "name": "interfaceId",
          "type": "bytes4"
        }
      ],
      "name": "supportsInterface",
      "outputs": [
        {
          "internalType": "bool",
          "name": "",
          "type": "bool"
        }
      ],
      "payable": false,
      "stateMutability": "view",
      "type": "function"
    },
    {
      "constant": true,
      "inputs": [
        {
          "internalType": "uint256",
          "name": "tokenId",
          "type": "uint256"
        }
      ],
      "name": "getApproved",
      "outputs": [
        {
          "internalType": "address",
          "name": "",
          "type": "address"
        }
      ],
      "payable": false,
      "stateMutability": "view",
      "type": "function"
    },
    {
      "constant": false,
      "inputs": [
        {
          "internalType": "address",
          "name": "to",
          "type": "address"
        },
        {
          "internalType": "uint256",
          "name": "tokenId",
          "type": "uint256"
        }
      ],
      "name": "approve",
      "outputs": [],
      "payable": false,
      "stateMutability": "nonpayable",
      "type": "function"
    },
    {
      "constant": true,
      "inputs": [
        {
          "internalType": "address",
          "name": "",
          "type": "address"
        }
      ],
      "name": "mappSociety",
      "outputs": [
        {
          "internalType": "string",
          "name": "name",
          "type": "string"
        },
        {
          "internalType": "uint256",
          "name": "ID",
          "type": "uint256"
        },
        {
          "internalType": "uint256",
          "name": "SIRET",
          "type": "uint256"
        },
        {
          "internalType": "string",
          "name": "signatory",
          "type": "string"
        },
        {
          "internalType": "string",
          "name": "email",
          "type": "string"
        }
      ],
      "payable": false,
      "stateMutability": "view",
      "type": "function"
    },
    {
      "constant": true,
      "inputs": [],
      "name": "powerToken2",
      "outputs": [
        {
          "internalType": "uint256",
          "name": "",
          "type": "uint256"
        }
      ],
      "payable": false,
      "stateMutability": "view",
      "type": "function"
    },
    {
      "constant": false,
      "inputs": [
        {
          "internalType": "address",
          "name": "from",
          "type": "address"
        },
        {
          "internalType": "address",
          "name": "to",
          "type": "address"
        },
        {
          "internalType": "uint256",
          "name": "tokenId",
          "type": "uint256"
        }
      ],
      "name": "transferFrom",
      "outputs": [],
      "payable": false,
      "stateMutability": "nonpayable",
      "type": "function"
    },
    {
      "constant": true,
      "inputs": [
        {
          "internalType": "uint256",
          "name": "",
          "type": "uint256"
        }
      ],
      "name": "balckList",
      "outputs": [
        {
          "internalType": "bool",
          "name": "isBlacklisted",
          "type": "bool"
        },
        {
          "internalType": "string",
          "name": "reason",
          "type": "string"
        }
      ],
      "payable": false,
      "stateMutability": "view",
      "type": "function"
    },
    {
      "constant": false,
      "inputs": [],
      "name": "close",
      "outputs": [],
      "payable": false,
      "stateMutability": "nonpayable",
      "type": "function"
    },
    {
      "constant": true,
      "inputs": [
        {
          "internalType": "uint256",
          "name": "tokenId",
          "type": "uint256"
        }
      ],
      "name": "ownerOf",
      "outputs": [
        {
          "internalType": "address",
          "name": "",
          "type": "address"
        }
      ],
      "payable": false,
      "stateMutability": "view",
      "type": "function"
    },
    {
      "constant": true,
      "inputs": [
        {
          "internalType": "address",
          "name": "owner",
          "type": "address"
        }
      ],
      "name": "balanceOf",
      "outputs": [
        {
          "internalType": "uint256",
          "name": "",
          "type": "uint256"
        }
      ],
      "payable": false,
      "stateMutability": "view",
      "type": "function"
    },
    {
      "constant": true,
      "inputs": [
        {
          "internalType": "uint256",
          "name": "",
          "type": "uint256"
        }
      ],
      "name": "lockedSpace",
      "outputs": [
        {
          "internalType": "address",
          "name": "",
          "type": "address"
        }
      ],
      "payable": false,
      "stateMutability": "view",
      "type": "function"
    },
    {
      "constant": true,
      "inputs": [
        {
          "internalType": "uint256",
          "name": "",
          "type": "uint256"
        }
      ],
      "name": "mappIDSocietyToHash",
      "outputs": [
        {
          "internalType": "uint256",
          "name": "",
          "type": "uint256"
        }
      ],
      "payable": false,
      "stateMutability": "view",
      "type": "function"
    },
    {
      "constant": false,
      "inputs": [
        {
          "internalType": "address",
          "name": "to",
          "type": "address"
        }
      ],
      "name": "transferPowerToken2",
      "outputs": [],
      "payable": false,
      "stateMutability": "nonpayable",
      "type": "function"
    },
    {
      "constant": true,
      "inputs": [
        {
          "internalType": "uint256",
          "name": "",
          "type": "uint256"
        }
      ],
      "name": "isApproved",
      "outputs": [
        {
          "internalType": "bool",
          "name": "",
          "type": "bool"
        }
      ],
      "payable": false,
      "stateMutability": "view",
      "type": "function"
    },
    {
      "constant": true,
      "inputs": [
        {
          "internalType": "uint256",
          "name": "",
          "type": "uint256"
        }
      ],
      "name": "urls",
      "outputs": [
        {
          "internalType": "string",
          "name": "",
          "type": "string"
        }
      ],
      "payable": false,
      "stateMutability": "view",
      "type": "function"
    },
    {
      "constant": true,
      "inputs": [
        {
          "internalType": "address",
          "name": "",
          "type": "address"
        },
        {
          "internalType": "uint256",
          "name": "",
          "type": "uint256"
        }
      ],
      "name": "mappSpacesList",
      "outputs": [
        {
          "internalType": "uint256",
          "name": "",
          "type": "uint256"
        }
      ],
      "payable": false,
      "stateMutability": "view",
      "type": "function"
    },
    {
      "constant": true,
      "inputs": [],
      "name": "TGTCPrice",
      "outputs": [
        {
          "internalType": "uint256",
          "name": "",
          "type": "uint256"
        }
      ],
      "payable": false,
      "stateMutability": "view",
      "type": "function"
    },
    {
      "constant": true,
      "inputs": [
        {
          "internalType": "uint256",
          "name": "",
          "type": "uint256"
        }
      ],
      "name": "mappPassword",
      "outputs": [
        {
          "internalType": "uint256",
          "name": "",
          "type": "uint256"
        }
      ],
      "payable": false,
      "stateMutability": "view",
      "type": "function"
    },
    {
      "constant": true,
      "inputs": [],
      "name": "owner",
      "outputs": [
        {
          "internalType": "address payable",
          "name": "",
          "type": "address"
        }
      ],
      "payable": false,
      "stateMutability": "view",
      "type": "function"
    },
    {
      "constant": true,
      "inputs": [],
      "name": "TGTSToken",
      "outputs": [
        {
          "internalType": "contract External3",
          "name": "",
          "type": "address"
        }
      ],
      "payable": false,
      "stateMutability": "view",
      "type": "function"
    },
    {
      "constant": true,
      "inputs": [],
      "name": "powerToken1",
      "outputs": [
        {
          "internalType": "uint256",
          "name": "",
          "type": "uint256"
        }
      ],
      "payable": false,
      "stateMutability": "view",
      "type": "function"
    },
    {
      "constant": false,
      "inputs": [
        {
          "internalType": "address",
          "name": "to",
          "type": "address"
        },
        {
          "internalType": "bool",
          "name": "approved",
          "type": "bool"
        }
      ],
      "name": "setApprovalForAll",
      "outputs": [],
      "payable": false,
      "stateMutability": "nonpayable",
      "type": "function"
    },
    {
      "constant": true,
      "inputs": [],
      "name": "ID",
      "outputs": [
        {
          "internalType": "uint256",
          "name": "",
          "type": "uint256"
        }
      ],
      "payable": false,
      "stateMutability": "view",
      "type": "function"
    },
    {
      "constant": true,
      "inputs": [],
      "name": "MainContract",
      "outputs": [
        {
          "internalType": "contract External1",
          "name": "",
          "type": "address"
        }
      ],
      "payable": false,
      "stateMutability": "view",
      "type": "function"
    },
    {
      "constant": true,
      "inputs": [],
      "name": "spacePrice",
      "outputs": [
        {
          "internalType": "uint256",
          "name": "",
          "type": "uint256"
        }
      ],
      "payable": false,
      "stateMutability": "view",
      "type": "function"
    },
    {
      "constant": true,
      "inputs": [
        {
          "internalType": "uint256",
          "name": "",
          "type": "uint256"
        }
      ],
      "name": "checkedSociety",
      "outputs": [
        {
          "internalType": "address",
          "name": "",
          "type": "address"
        }
      ],
      "payable": false,
      "stateMutability": "view",
      "type": "function"
    },
    {
      "constant": true,
      "inputs": [
        {
          "internalType": "address",
          "name": "owner",
          "type": "address"
        },
        {
          "internalType": "address",
          "name": "operator",
          "type": "address"
        }
      ],
      "name": "isApprovedForAll",
      "outputs": [
        {
          "internalType": "bool",
          "name": "",
          "type": "bool"
        }
      ],
      "payable": false,
      "stateMutability": "view",
      "type": "function"
    },
    {
      "constant": false,
      "inputs": [
        {
          "internalType": "address",
          "name": "to",
          "type": "address"
        }
      ],
      "name": "transferPowerToken1",
      "outputs": [],
      "payable": false,
      "stateMutability": "nonpayable",
      "type": "function"
    },
    {
      "constant": false,
      "inputs": [
        {
          "internalType": "address payable",
          "name": "newOwner",
          "type": "address"
        }
      ],
      "name": "transferOwnership",
      "outputs": [],
      "payable": false,
      "stateMutability": "nonpayable",
      "type": "function"
    },
    {
      "constant": true,
      "inputs": [],
      "name": "TGTCToken",
      "outputs": [
        {
          "internalType": "contract External2",
          "name": "",
          "type": "address"
        }
      ],
      "payable": false,
      "stateMutability": "view",
      "type": "function"
    },
    {
      "constant": true,
      "inputs": [],
      "name": "MaxTokenCount",
      "outputs": [
        {
          "internalType": "uint256",
          "name": "",
          "type": "uint256"
        }
      ],
      "payable": false,
      "stateMutability": "view",
      "type": "function"
    },
    {
      "inputs": [
        {
          "internalType": "address",
          "name": "tgtc",
          "type": "address"
        },
        {
          "internalType": "address",
          "name": "main",
          "type": "address"
        }
      ],
      "payable": false,
      "stateMutability": "nonpayable",
      "type": "constructor"
    },
    {
      "anonymous": false,
      "inputs": [
        {
          "indexed": true,
          "internalType": "address",
          "name": "from",
          "type": "address"
        },
        {
          "indexed": true,
          "internalType": "uint256",
          "name": "ID",
          "type": "uint256"
        }
      ],
      "name": "newSociety",
      "type": "event"
    },
    {
      "anonymous": false,
      "inputs": [
        {
          "indexed": true,
          "internalType": "address",
          "name": "from",
          "type": "address"
        },
        {
          "indexed": false,
          "internalType": "bool",
          "name": "decision",
          "type": "bool"
        }
      ],
      "name": "decision",
      "type": "event"
    },
    {
      "anonymous": false,
      "inputs": [
        {
          "indexed": true,
          "internalType": "address",
          "name": "from",
          "type": "address"
        },
        {
          "indexed": true,
          "internalType": "address",
          "name": "to",
          "type": "address"
        },
        {
          "indexed": true,
          "internalType": "uint256",
          "name": "tokenId",
          "type": "uint256"
        }
      ],
      "name": "Transfer",
      "type": "event"
    },
    {
      "anonymous": false,
      "inputs": [
        {
          "indexed": true,
          "internalType": "address",
          "name": "owner",
          "type": "address"
        },
        {
          "indexed": true,
          "internalType": "address",
          "name": "approved",
          "type": "address"
        },
        {
          "indexed": true,
          "internalType": "uint256",
          "name": "tokenId",
          "type": "uint256"
        }
      ],
      "name": "Approval",
      "type": "event"
    },
    {
      "anonymous": false,
      "inputs": [
        {
          "indexed": true,
          "internalType": "address",
          "name": "owner",
          "type": "address"
        },
        {
          "indexed": true,
          "internalType": "address",
          "name": "operator",
          "type": "address"
        },
        {
          "indexed": false,
          "internalType": "bool",
          "name": "approved",
          "type": "bool"
        }
      ],
      "name": "ApprovalForAll",
      "type": "event"
    },
    {
      "anonymous": false,
      "inputs": [
        {
          "indexed": true,
          "internalType": "address",
          "name": "previousOwner",
          "type": "address"
        },
        {
          "indexed": true,
          "internalType": "address",
          "name": "newOwner",
          "type": "address"
        }
      ],
      "name": "OwnershipTransferred",
      "type": "event"
    },
    {
      "constant": false,
      "inputs": [
        {
          "internalType": "uint256",
          "name": "_price",
          "type": "uint256"
        }
      ],
      "name": "modifySpacePrice",
      "outputs": [],
      "payable": false,
      "stateMutability": "nonpayable",
      "type": "function"
    },
    {
      "constant": false,
      "inputs": [
        {
          "internalType": "address",
          "name": "_spaceOperator",
          "type": "address"
        }
      ],
      "name": "setSpaceOperator",
      "outputs": [],
      "payable": false,
      "stateMutability": "nonpayable",
      "type": "function"
    },
    {
      "constant": false,
      "inputs": [
        {
          "internalType": "uint256",
          "name": "_max",
          "type": "uint256"
        }
      ],
      "name": "changeMaxTokenCount",
      "outputs": [],
      "payable": false,
      "stateMutability": "nonpayable",
      "type": "function"
    },
    {
      "constant": true,
      "inputs": [
        {
          "internalType": "uint256",
          "name": "_space",
          "type": "uint256"
        }
      ],
      "name": "getSpaceInfoName",
      "outputs": [
        {
          "internalType": "string",
          "name": "",
          "type": "string"
        }
      ],
      "payable": false,
      "stateMutability": "view",
      "type": "function"
    },
    {
      "constant": true,
      "inputs": [
        {
          "internalType": "uint256",
          "name": "_space",
          "type": "uint256"
        }
      ],
      "name": "getSpaceInfoSIRET",
      "outputs": [
        {
          "internalType": "uint256",
          "name": "",
          "type": "uint256"
        }
      ],
      "payable": false,
      "stateMutability": "view",
      "type": "function"
    },
    {
      "constant": true,
      "inputs": [
        {
          "internalType": "address",
          "name": "_society",
          "type": "address"
        }
      ],
      "name": "getNBSpaces",
      "outputs": [
        {
          "internalType": "uint256",
          "name": "",
          "type": "uint256"
        }
      ],
      "payable": false,
      "stateMutability": "view",
      "type": "function"
    },
    {
      "constant": false,
      "inputs": [],
      "name": "getLastSpaceID",
      "outputs": [
        {
          "internalType": "uint256",
          "name": "",
          "type": "uint256"
        }
      ],
      "payable": false,
      "stateMutability": "nonpayable",
      "type": "function"
    },
    {
      "constant": false,
      "inputs": [
        {
          "internalType": "string",
          "name": "password",
          "type": "string"
        },
        {
          "internalType": "string",
          "name": "name",
          "type": "string"
        },
        {
          "internalType": "uint256",
          "name": "SIRET",
          "type": "uint256"
        },
        {
          "internalType": "string",
          "name": "signatory",
          "type": "string"
        },
        {
          "internalType": "string",
          "name": "email",
          "type": "string"
        }
      ],
      "name": "registerSociety",
      "outputs": [],
      "payable": false,
      "stateMutability": "nonpayable",
      "type": "function"
    },
    {
      "constant": false,
      "inputs": [
        {
          "internalType": "uint256",
          "name": "SIRET",
          "type": "uint256"
        },
        {
          "internalType": "string",
          "name": "password",
          "type": "string"
        }
      ],
      "name": "givePassword",
      "outputs": [],
      "payable": false,
      "stateMutability": "nonpayable",
      "type": "function"
    },
    {
      "constant": false,
      "inputs": [
        {
          "internalType": "uint256",
          "name": "_ID",
          "type": "uint256"
        }
      ],
      "name": "approveSociety",
      "outputs": [],
      "payable": false,
      "stateMutability": "nonpayable",
      "type": "function"
    },
    {
      "constant": false,
      "inputs": [
        {
          "internalType": "uint256",
          "name": "_ID",
          "type": "uint256"
        },
        {
          "internalType": "string",
          "name": "_reason",
          "type": "string"
        }
      ],
      "name": "blackListSociety",
      "outputs": [],
      "payable": false,
      "stateMutability": "nonpayable",
      "type": "function"
    },
    {
      "constant": false,
      "inputs": [
        {
          "internalType": "uint256",
          "name": "price",
          "type": "uint256"
        }
      ],
      "name": "modifyTGTCPrice",
      "outputs": [],
      "payable": false,
      "stateMutability": "nonpayable",
      "type": "function"
    },
    {
      "constant": false,
      "inputs": [
        {
          "internalType": "uint256",
          "name": "amount",
          "type": "uint256"
        }
      ],
      "name": "getTGTCs",
      "outputs": [],
      "payable": true,
      "stateMutability": "payable",
      "type": "function"
    },
    {
      "constant": false,
      "inputs": [
        {
          "internalType": "uint256[]",
          "name": "space",
          "type": "uint256[]"
        },
        {
          "internalType": "string",
          "name": "url",
          "type": "string"
        }
      ],
      "name": "modifySpaces",
      "outputs": [],
      "payable": false,
      "stateMutability": "nonpayable",
      "type": "function"
    },
    {
      "constant": false,
      "inputs": [
        {
          "internalType": "uint256[]",
          "name": "space",
          "type": "uint256[]"
        }
      ],
      "name": "lockSpaces",
      "outputs": [],
      "payable": false,
      "stateMutability": "nonpayable",
      "type": "function"
    },
    {
      "constant": false,
      "inputs": [
        {
          "internalType": "uint256[]",
          "name": "space",
          "type": "uint256[]"
        }
      ],
      "name": "buySpaces",
      "outputs": [],
      "payable": false,
      "stateMutability": "nonpayable",
      "type": "function"
    }
  ],
  "bytecode": "0x60806040523480156200001157600080fd5b506040516200540e3803806200540e833981810160405260408110156200003757600080fd5b8101908080519060200190929190805190602001909291905050506200008f6301ffc9a77c01000000000000000000000000000000000000000000000000000000000262000221640100000000026401000000009004565b620000cc6380ac58cd7c01000000000000000000000000000000000000000000000000000000000262000221640100000000026401000000009004565b81601060006101000a81548173ffffffffffffffffffffffffffffffffffffffff021916908373ffffffffffffffffffffffffffffffffffffffff16021790555080601160006101000a81548173ffffffffffffffffffffffffffffffffffffffff021916908373ffffffffffffffffffffffffffffffffffffffff16021790555030600260006101000a81548173ffffffffffffffffffffffffffffffffffffffff021916908373ffffffffffffffffffffffffffffffffffffffff16021790555033600160006101000a81548173ffffffffffffffffffffffffffffffffffffffff021916908373ffffffffffffffffffffffffffffffffffffffff1602179055506127106013819055506001601481905550620001fd33600062000346640100000000026401000000009004565b6200021933600162000346640100000000026401000000009004565b50506200060f565b63ffffffff7c010000000000000000000000000000000000000000000000000000000002817bffffffffffffffffffffffffffffffffffffffffffffffffffffffff19161415620002da576040517f08c379a000000000000000000000000000000000000000000000000000000000815260040180806020018281038252601c8152602001807f4552433136353a20696e76616c696420696e746572666163652069640000000081525060200191505060405180910390fd5b6001600080837bffffffffffffffffffffffffffffffffffffffffffffffffffffffff19167bffffffffffffffffffffffffffffffffffffffffffffffffffffffff1916815260200190815260200160002060006101000a81548160ff02191690831515021790555050565b600073ffffffffffffffffffffffffffffffffffffffff168273ffffffffffffffffffffffffffffffffffffffff161415620003ea576040517f08c379a00000000000000000000000000000000000000000000000000000000081526004018080602001828103825260208152602001807f4552433732313a206d696e7420746f20746865207a65726f206164647265737381525060200191505060405180910390fd5b620004048162000587640100000000026401000000009004565b1562000478576040517f08c379a000000000000000000000000000000000000000000000000000000000815260040180806020018281038252601c8152602001807f4552433732313a20746f6b656e20616c7265616479206d696e7465640000000081525060200191505060405180910390fd5b816003600083815260200190815260200160002060006101000a81548173ffffffffffffffffffffffffffffffffffffffff021916908373ffffffffffffffffffffffffffffffffffffffff16021790555062000527600560008473ffffffffffffffffffffffffffffffffffffffff1673ffffffffffffffffffffffffffffffffffffffff168152602001908152602001600020620005f964010000000002620047a1176401000000009004565b808273ffffffffffffffffffffffffffffffffffffffff16600073ffffffffffffffffffffffffffffffffffffffff167fddf252ad1be2c89b69c2b068fc378daa952ba7f163c4a11628f55a4df523b3ef60405160405180910390a45050565b6000806003600084815260200190815260200160002060009054906101000a900473ffffffffffffffffffffffffffffffffffffffff169050600073ffffffffffffffffffffffffffffffffffffffff168173ffffffffffffffffffffffffffffffffffffffff161415915050919050565b6001816000016000828254019250508190555050565b614def806200061f6000396000f3fe6080604052600436106102a5576000357c01000000000000000000000000000000000000000000000000000000009004806381035e3711610177578063b516cf2e116100de578063ead7c2f411610097578063ead7c2f414611678578063ef7b162e1461174a578063f2fde38b1461179b578063f75cc56b146117ec578063fa56902e14611843578063fe813ad01461186e576102a5565b8063b516cf2e146111f6578063be86a2c11461124d578063c3d2b54f146112b2578063ca50c8c814611549578063dd0540d014611574578063e985e9c5146115ef576102a5565b806398ec7b451161013057806398ec7b4514610fe55780639a829e9e146110365780639cd00f5714611061578063a22cb46514611133578063a2ba5a0114611190578063b3cea217146111cb576102a5565b806381035e3714610e405780638b7b120f14610e8f5780638d21af3214610eba5780638da5cb5b14610f095780638e32289914610f605780638e9d2bb414610f8e576102a5565b806343d726d61161021b578063726349f7116101d4578063726349f714610baf57806373e73fe214610c2a57806373ef5c3314610c795780637910867b14610cca578063796676be14610d1d578063807d78c614610dd1576102a5565b806343d726d6146108e657806361f4efba146108fd5780636352211e1461093857806363f4623d146109b3578063704aa39f146109ee57806370a0823114610b4a576102a5565b80631710775a1161026d5780631710775a146106565780631f92b142146106815780631fb57427146106ac57806323b872dd146107715780632d91f79a146107ec57806341a6133814610827576102a5565b806301ffc9a7146102aa578063072b83f11461031c578063081812fc146103d0578063095ea7b31461044b5780630a7fa5e3146104a6575b600080fd5b3480156102b657600080fd5b50610302600480360360208110156102cd57600080fd5b8101908080357bffffffffffffffffffffffffffffffffffffffffffffffffffffffff19169060200190929190505050611933565b604051808215151515815260200191505060405180910390f35b34801561032857600080fd5b506103556004803603602081101561033f57600080fd5b810190808035906020019092919050505061199a565b6040518080602001828103825283818151815260200191508051906020019080838360005b8381101561039557808201518184015260208101905061037a565b50505050905090810190601f1680156103c25780820380516001836020036101000a031916815260200191505b509250505060405180910390f35b3480156103dc57600080fd5b50610409600480360360208110156103f357600080fd5b8101908080359060200190929190505050611ab1565b604051808273ffffffffffffffffffffffffffffffffffffffff1673ffffffffffffffffffffffffffffffffffffffff16815260200191505060405180910390f35b34801561045757600080fd5b506104a46004803603604081101561046e57600080fd5b81019080803573ffffffffffffffffffffffffffffffffffffffff16906020019092919080359060200190929190505050611b4c565b005b3480156104b257600080fd5b506104f5600480360360208110156104c957600080fd5b81019080803573ffffffffffffffffffffffffffffffffffffffff169060200190929190505050611d33565b60405180806020018681526020018581526020018060200180602001848103845289818151815260200191508051906020019080838360005b8381101561054957808201518184015260208101905061052e565b50505050905090810190601f1680156105765780820380516001836020036101000a031916815260200191505b50848103835286818151815260200191508051906020019080838360005b838110156105af578082015181840152602081019050610594565b50505050905090810190601f1680156105dc5780820380516001836020036101000a031916815260200191505b50848103825285818151815260200191508051906020019080838360005b838110156106155780820151818401526020810190506105fa565b50505050905090810190601f1680156106425780820380516001836020036101000a031916815260200191505b509850505050505050505060405180910390f35b34801561066257600080fd5b5061066b611f31565b6040518082815260200191505060405180910390f35b34801561068d57600080fd5b50610696611ff9565b6040518082815260200191505060405180910390f35b3480156106b857600080fd5b5061076f600480360360208110156106cf57600080fd5b81019080803590602001906401000000008111156106ec57600080fd5b8201836020820111156106fe57600080fd5b8035906020019184602083028401116401000000008311171561072057600080fd5b919080806020026020016040519081016040528093929190818152602001838360200280828437600081840152601f19601f820116905080830192505050505050509192919290505050611ffe565b005b34801561077d57600080fd5b506107ea6004803603606081101561079457600080fd5b81019080803573ffffffffffffffffffffffffffffffffffffffff169060200190929190803573ffffffffffffffffffffffffffffffffffffffff16906020019092919080359060200190929190505050612398565b005b3480156107f857600080fd5b506108256004803603602081101561080f57600080fd5b810190808035906020019092919050505061242a565b005b34801561083357600080fd5b506108606004803603602081101561084a57600080fd5b810190808035906020019092919050505061248e565b604051808315151515815260200180602001828103825283818151815260200191508051906020019080838360005b838110156108aa57808201518184015260208101905061088f565b50505050905090810190601f1680156108d75780820380516001836020036101000a031916815260200191505b50935050505060405180910390f35b3480156108f257600080fd5b506108fb612557565b005b34801561090957600080fd5b506109366004803603602081101561092057600080fd5b81019080803590602001909291905050506127ef565b005b34801561094457600080fd5b506109716004803603602081101561095b57600080fd5b8101908080359060200190929190505050612853565b604051808273ffffffffffffffffffffffffffffffffffffffff1673ffffffffffffffffffffffffffffffffffffffff16815260200191505060405180910390f35b3480156109bf57600080fd5b506109ec600480360360208110156109d657600080fd5b810190808035906020019092919050505061291b565b005b3480156109fa57600080fd5b50610b4860048036036040811015610a1157600080fd5b8101908080359060200190640100000000811115610a2e57600080fd5b820183602082011115610a4057600080fd5b80359060200191846020830284011164010000000083111715610a6257600080fd5b919080806020026020016040519081016040528093929190818152602001838360200280828437600081840152601f19601f82011690508083019250505050505050919291929080359060200190640100000000811115610ac257600080fd5b820183602082011115610ad457600080fd5b80359060200191846001830284011164010000000083111715610af657600080fd5b91908080601f016020809104026020016040519081016040528093929190818152602001838380828437600081840152601f19601f820116905080830192505050505050509192919290505050612b62565b005b348015610b5657600080fd5b50610b9960048036036020811015610b6d57600080fd5b81019080803573ffffffffffffffffffffffffffffffffffffffff169060200190929190505050612c4e565b6040518082815260200191505060405180910390f35b348015610bbb57600080fd5b50610be860048036036020811015610bd257600080fd5b8101908080359060200190929190505050612d23565b604051808273ffffffffffffffffffffffffffffffffffffffff1673ffffffffffffffffffffffffffffffffffffffff16815260200191505060405180910390f35b348015610c3657600080fd5b50610c6360048036036020811015610c4d57600080fd5b8101908080359060200190929190505050612d56565b6040518082815260200191505060405180910390f35b348015610c8557600080fd5b50610cc860048036036020811015610c9c57600080fd5b81019080803573ffffffffffffffffffffffffffffffffffffffff169060200190929190505050612d6e565b005b348015610cd657600080fd5b50610d0360048036036020811015610ced57600080fd5b8101908080359060200190929190505050612e3e565b604051808215151515815260200191505060405180910390f35b348015610d2957600080fd5b50610d5660048036036020811015610d4057600080fd5b8101908080359060200190929190505050612e5e565b6040518080602001828103825283818151815260200191508051906020019080838360005b83811015610d96578082015181840152602081019050610d7b565b50505050905090810190601f168015610dc35780820380516001836020036101000a031916815260200191505b509250505060405180910390f35b348015610ddd57600080fd5b50610e2a60048036036040811015610df457600080fd5b81019080803573ffffffffffffffffffffffffffffffffffffffff16906020019092919080359060200190929190505050612f0e565b6040518082815260200191505060405180910390f35b348015610e4c57600080fd5b50610e7960048036036020811015610e6357600080fd5b8101908080359060200190929190505050612f3c565b6040518082815260200191505060405180910390f35b348015610e9b57600080fd5b50610ea4612fbb565b6040518082815260200191505060405180910390f35b348015610ec657600080fd5b50610ef360048036036020811015610edd57600080fd5b8101908080359060200190929190505050612fc1565b6040518082815260200191505060405180910390f35b348015610f1557600080fd5b50610f1e612fd9565b604051808273ffffffffffffffffffffffffffffffffffffffff1673ffffffffffffffffffffffffffffffffffffffff16815260200191505060405180910390f35b610f8c60048036036020811015610f7657600080fd5b8101908080359060200190929190505050612fff565b005b348015610f9a57600080fd5b50610fa3613141565b604051808273ffffffffffffffffffffffffffffffffffffffff1673ffffffffffffffffffffffffffffffffffffffff16815260200191505060405180910390f35b348015610ff157600080fd5b506110346004803603602081101561100857600080fd5b81019080803573ffffffffffffffffffffffffffffffffffffffff169060200190929190505050613167565b005b34801561104257600080fd5b5061104b613260565b6040518082815260200191505060405180910390f35b34801561106d57600080fd5b506111316004803603604081101561108457600080fd5b8101908080359060200190929190803590602001906401000000008111156110ab57600080fd5b8201836020820111156110bd57600080fd5b803590602001918460018302840111640100000000831117156110df57600080fd5b91908080601f016020809104026020016040519081016040528093929190818152602001838380828437600081840152601f19601f820116905080830192505050505050509192919290505050613265565b005b34801561113f57600080fd5b5061118e6004803603604081101561115657600080fd5b81019080803573ffffffffffffffffffffffffffffffffffffffff169060200190929190803515159060200190929190505050613350565b005b34801561119c57600080fd5b506111c9600480360360208110156111b357600080fd5b8101908080359060200190929190505050613508565b005b3480156111d757600080fd5b506111e061356c565b6040518082815260200191505060405180910390f35b34801561120257600080fd5b5061120b613572565b604051808273ffffffffffffffffffffffffffffffffffffffff1673ffffffffffffffffffffffffffffffffffffffff16815260200191505060405180910390f35b34801561125957600080fd5b5061129c6004803603602081101561127057600080fd5b81019080803573ffffffffffffffffffffffffffffffffffffffff169060200190929190505050613598565b6040518082815260200191505060405180910390f35b3480156112be57600080fd5b50611547600480360360a08110156112d557600080fd5b81019080803590602001906401000000008111156112f257600080fd5b82018360208201111561130457600080fd5b8035906020019184600183028401116401000000008311171561132657600080fd5b91908080601f016020809104026020016040519081016040528093929190818152602001838380828437600081840152601f19601f8201169050808301925050505050505091929192908035906020019064010000000081111561138957600080fd5b82018360208201111561139b57600080fd5b803590602001918460018302840111640100000000831117156113bd57600080fd5b91908080601f016020809104026020016040519081016040528093929190818152602001838380828437600081840152601f19601f820116905080830192505050505050509192919290803590602001909291908035906020019064010000000081111561142a57600080fd5b82018360208201111561143c57600080fd5b8035906020019184600183028401116401000000008311171561145e57600080fd5b91908080601f016020809104026020016040519081016040528093929190818152602001838380828437600081840152601f19601f820116905080830192505050505050509192919290803590602001906401000000008111156114c157600080fd5b8201836020820111156114d357600080fd5b803590602001918460018302840111640100000000831117156114f557600080fd5b91908080601f016020809104026020016040519081016040528093929190818152602001838380828437600081840152601f19601f8201169050808301925050505050505091929192905050506135e4565b005b34801561155557600080fd5b5061155e613a6e565b6040518082815260200191505060405180910390f35b34801561158057600080fd5b506115ad6004803603602081101561159757600080fd5b8101908080359060200190929190505050613a74565b604051808273ffffffffffffffffffffffffffffffffffffffff1673ffffffffffffffffffffffffffffffffffffffff16815260200191505060405180910390f35b3480156115fb57600080fd5b5061165e6004803603604081101561161257600080fd5b81019080803573ffffffffffffffffffffffffffffffffffffffff169060200190929190803573ffffffffffffffffffffffffffffffffffffffff169060200190929190505050613aa7565b604051808215151515815260200191505060405180910390f35b34801561168457600080fd5b506117486004803603604081101561169b57600080fd5b8101908080359060200190929190803590602001906401000000008111156116c257600080fd5b8201836020820111156116d457600080fd5b803590602001918460018302840111640100000000831117156116f657600080fd5b91908080601f016020809104026020016040519081016040528093929190818152602001838380828437600081840152601f19601f820116905080830192505050505050509192919290505050613b3b565b005b34801561175657600080fd5b506117996004803603602081101561176d57600080fd5b81019080803573ffffffffffffffffffffffffffffffffffffffff169060200190929190505050613bb9565b005b3480156117a757600080fd5b506117ea600480360360208110156117be57600080fd5b81019080803573ffffffffffffffffffffffffffffffffffffffff169060200190929190505050613c89565b005b3480156117f857600080fd5b50611801613fa5565b604051808273ffffffffffffffffffffffffffffffffffffffff1673ffffffffffffffffffffffffffffffffffffffff16815260200191505060405180910390f35b34801561184f57600080fd5b50611858613fcb565b6040518082815260200191505060405180910390f35b34801561187a57600080fd5b506119316004803603602081101561189157600080fd5b81019080803590602001906401000000008111156118ae57600080fd5b8201836020820111156118c057600080fd5b803590602001918460208302840111640100000000831117156118e257600080fd5b919080806020026020016040519081016040528093929190818152602001838360200280828437600081840152601f19601f820116905080830192505050505050509192919290505050613fd1565b005b6000806000837bffffffffffffffffffffffffffffffffffffffffffffffffffffffff19167bffffffffffffffffffffffffffffffffffffffffffffffffffffffff1916815260200190815260200160002060009054906101000a900460ff169050919050565b606060096000600a600085815260200190815260200160002060009054906101000a900473ffffffffffffffffffffffffffffffffffffffff1673ffffffffffffffffffffffffffffffffffffffff1673ffffffffffffffffffffffffffffffffffffffff1681526020019081526020016000206000018054600181600116156101000203166002900480601f016020809104026020016040519081016040528092919081815260200182805460018160011615610100020316600290048015611aa55780601f10611a7a57610100808354040283529160200191611aa5565b820191906000526020600020905b815481529060010190602001808311611a8857829003601f168201915b50505050509050919050565b6000611abc82614102565b611b11576040517f08c379a000000000000000000000000000000000000000000000000000000000815260040180806020018281038252602c815260200180614cef602c913960400191505060405180910390fd5b6004600083815260200190815260200160002060009054906101000a900473ffffffffffffffffffffffffffffffffffffffff169050919050565b6000611b5782612853565b90508073ffffffffffffffffffffffffffffffffffffffff168373ffffffffffffffffffffffffffffffffffffffff161415611bde576040517f08c379a0000000000000000000000000000000000000000000000000000000008152600401808060200182810382526021815260200180614d446021913960400191505060405180910390fd5b8073ffffffffffffffffffffffffffffffffffffffff16611bfd614174565b73ffffffffffffffffffffffffffffffffffffffff161480611c2c5750611c2b81611c26614174565b613aa7565b5b611c81576040517f08c379a0000000000000000000000000000000000000000000000000000000008152600401808060200182810382526038815260200180614c436038913960400191505060405180910390fd5b826004600084815260200190815260200160002060006101000a81548173ffffffffffffffffffffffffffffffffffffffff021916908373ffffffffffffffffffffffffffffffffffffffff160217905550818373ffffffffffffffffffffffffffffffffffffffff168273ffffffffffffffffffffffffffffffffffffffff167f8c5be1e5ebec7d5bd14f71427d1e84f3dd0314c0f7b2291e5b200ac8c7c3b92560405160405180910390a4505050565b6009602052806000526040600020600091509050806000018054600181600116156101000203166002900480601f016020809104026020016040519081016040528092919081815260200182805460018160011615610100020316600290048015611ddf5780601f10611db457610100808354040283529160200191611ddf565b820191906000526020600020905b815481529060010190602001808311611dc257829003601f168201915b505050505090806001015490806002015490806003018054600181600116156101000203166002900480601f016020809104026020016040519081016040528092919081815260200182805460018160011615610100020316600290048015611e895780601f10611e5e57610100808354040283529160200191611e89565b820191906000526020600020905b815481529060010190602001808311611e6c57829003601f168201915b505050505090806004018054600181600116156101000203166002900480601f016020809104026020016040519081016040528092919081815260200182805460018160011615610100020316600290048015611f275780601f10611efc57610100808354040283529160200191611f27565b820191906000526020600020905b815481529060010190602001808311611f0a57829003601f168201915b5050505050905085565b6000601160009054906101000a900473ffffffffffffffffffffffffffffffffffffffff1673ffffffffffffffffffffffffffffffffffffffff1663b3cea2176040518163ffffffff167c0100000000000000000000000000000000000000000000000000000000028152600401602060405180830381600087803b158015611fb957600080fd5b505af1158015611fcd573d6000803e3d6000fd5b505050506040513d6020811015611fe357600080fd5b8101908080519060200190929190505050905090565b600181565b60011515600b6000600960003373ffffffffffffffffffffffffffffffffffffffff1673ffffffffffffffffffffffffffffffffffffffff16815260200190815260200160002060010154815260200190815260200160002060009054906101000a900460ff1615151461207157600080fd5b601454815102601060009054906101000a900473ffffffffffffffffffffffffffffffffffffffff1673ffffffffffffffffffffffffffffffffffffffff166370a08231336040518263ffffffff167c0100000000000000000000000000000000000000000000000000000000028152600401808273ffffffffffffffffffffffffffffffffffffffff1673ffffffffffffffffffffffffffffffffffffffff16815260200191505060206040518083038186803b15801561213257600080fd5b505afa158015612146573d6000803e3d6000fd5b505050506040513d602081101561215c57600080fd5b8101908080519060200190929190505050101561217857600080fd5b600080600090505b825181101561227457600015156121a984838151811061219c57fe5b6020026020010151614102565b15151480156121be57506121bb611f31565b81115b15612267576013546121cf33612c4e565b11156121da57612274565b600d60003373ffffffffffffffffffffffffffffffffffffffff1673ffffffffffffffffffffffffffffffffffffffff16815260200190815260200160002083828151811061222557fe5b60200260200101519080600181540180825580915050906001820390600052602060002001600090919290919091505550600182019150612266338261417c565b5b8080600101915050612180565b50600081111561239457601060009054906101000a900473ffffffffffffffffffffffffffffffffffffffff1673ffffffffffffffffffffffffffffffffffffffff166307278868336122d28460145461439490919063ffffffff16565b6040518363ffffffff167c0100000000000000000000000000000000000000000000000000000000028152600401808373ffffffffffffffffffffffffffffffffffffffff1673ffffffffffffffffffffffffffffffffffffffff16815260200182815260200192505050602060405180830381600087803b15801561235757600080fd5b505af115801561236b573d6000803e3d6000fd5b505050506040513d602081101561238157600080fd5b8101908080519060200190929190505050505b5050565b60008114156123a657600080fd5b60018114156123b457600080fd5b6123c56123bf614174565b8261441a565b61241a576040517f08c379a0000000000000000000000000000000000000000000000000000000008152600401808060200182810382526031815260200180614d656031913960400191505060405180910390fd5b61242583838361450e565b505050565b600160009054906101000a900473ffffffffffffffffffffffffffffffffffffffff1673ffffffffffffffffffffffffffffffffffffffff163373ffffffffffffffffffffffffffffffffffffffff161461248457600080fd5b8060138190555050565b600e6020528060005260406000206000915090508060000160009054906101000a900460ff1690806001018054600181600116156101000203166002900480601f01602080910402602001604051908101604052809291908181526020018280546001816001161561010002031660029004801561254d5780601f106125225761010080835404028352916020019161254d565b820191906000526020600020905b81548152906001019060200180831161253057829003601f168201915b5050505050905082565b600160009054906101000a900473ffffffffffffffffffffffffffffffffffffffff1673ffffffffffffffffffffffffffffffffffffffff163373ffffffffffffffffffffffffffffffffffffffff16146125b157600080fd5b3373ffffffffffffffffffffffffffffffffffffffff16600260009054906101000a900473ffffffffffffffffffffffffffffffffffffffff1673ffffffffffffffffffffffffffffffffffffffff1663081812fc60006040518263ffffffff167c01000000000000000000000000000000000000000000000000000000000281526004018082815260200191505060206040518083038186803b15801561265857600080fd5b505afa15801561266c573d6000803e3d6000fd5b505050506040513d602081101561268257600080fd5b810190808051906020019092919050505073ffffffffffffffffffffffffffffffffffffffff161480156127ab57503373ffffffffffffffffffffffffffffffffffffffff16600260009054906101000a900473ffffffffffffffffffffffffffffffffffffffff1673ffffffffffffffffffffffffffffffffffffffff1663081812fc60016040518263ffffffff167c01000000000000000000000000000000000000000000000000000000000281526004018082815260200191505060206040518083038186803b15801561275857600080fd5b505afa15801561276c573d6000803e3d6000fd5b505050506040513d602081101561278257600080fd5b810190808051906020019092919050505073ffffffffffffffffffffffffffffffffffffffff16145b6127b457600080fd5b600160009054906101000a900473ffffffffffffffffffffffffffffffffffffffff1673ffffffffffffffffffffffffffffffffffffffff16ff5b600160009054906101000a900473ffffffffffffffffffffffffffffffffffffffff1673ffffffffffffffffffffffffffffffffffffffff163373ffffffffffffffffffffffffffffffffffffffff161461284957600080fd5b8060128190555050565b6000806003600084815260200190815260200160002060009054906101000a900473ffffffffffffffffffffffffffffffffffffffff169050600073ffffffffffffffffffffffffffffffffffffffff168173ffffffffffffffffffffffffffffffffffffffff161415612912576040517f08c379a0000000000000000000000000000000000000000000000000000000008152600401808060200182810382526029815260200180614ca56029913960400191505060405180910390fd5b80915050919050565b600160009054906101000a900473ffffffffffffffffffffffffffffffffffffffff1673ffffffffffffffffffffffffffffffffffffffff163373ffffffffffffffffffffffffffffffffffffffff161461297557600080fd5b60001515600e600083815260200190815260200160002060000160009054906101000a900460ff161515146129a957600080fd5b60001515600b600083815260200190815260200160002060009054906101000a900460ff1615151415612a7a576001600b600083815260200190815260200160002060006101000a81548160ff021916908315150217905550612a74600a6000600c600085815260200190815260200160002054815260200190815260200160002060009054906101000a900473ffffffffffffffffffffffffffffffffffffffff16601560009054906101000a900473ffffffffffffffffffffffffffffffffffffffff16613aa7565b50612aa7565b6000600b600083815260200190815260200160002060006101000a81548160ff0219169083151502179055505b600a6000600c600084815260200190815260200160002054815260200190815260200160002060009054906101000a900473ffffffffffffffffffffffffffffffffffffffff1673ffffffffffffffffffffffffffffffffffffffff167f42506b1629ea51105dbfee1afc9ea5cb980192a1d6eeae144ca64d9d3b902125600b600084815260200190815260200160002060009054906101000a900460ff16604051808215151515815260200191505060405180910390a250565b60008090505b8251811015612c49573373ffffffffffffffffffffffffffffffffffffffff16612ba4848381518110612b9757fe5b6020026020010151611ab1565b73ffffffffffffffffffffffffffffffffffffffff16148015612bdb57506000838281518110612bd057fe5b602002602001015114155b8015612bfb57506001838281518110612bf057fe5b602002602001015114155b15612c3c578160076000858481518110612c1157fe5b602002602001015181526020019081526020016000209080519060200190612c3a929190614b4d565b505b8080600101915050612b68565b505050565b60008073ffffffffffffffffffffffffffffffffffffffff168273ffffffffffffffffffffffffffffffffffffffff161415612cd5576040517f08c379a000000000000000000000000000000000000000000000000000000000815260040180806020018281038252602a815260200180614c7b602a913960400191505060405180910390fd5b612d1c600560008473ffffffffffffffffffffffffffffffffffffffff1673ffffffffffffffffffffffffffffffffffffffff168152602001908152602001600020614769565b9050919050565b60086020528060005260406000206000915054906101000a900473ffffffffffffffffffffffffffffffffffffffff1681565b600c6020528060005260406000206000915090505481565b600160009054906101000a900473ffffffffffffffffffffffffffffffffffffffff1673ffffffffffffffffffffffffffffffffffffffff163373ffffffffffffffffffffffffffffffffffffffff1614612dc857600080fd5b612dda612dd3614174565b600161441a565b612e2f576040517f08c379a0000000000000000000000000000000000000000000000000000000008152600401808060200182810382526031815260200180614d656031913960400191505060405180910390fd5b612e3b3382600161450e565b50565b600b6020528060005260406000206000915054906101000a900460ff1681565b60076020528060005260406000206000915090508054600181600116156101000203166002900480601f016020809104026020016040519081016040528092919081815260200182805460018160011615610100020316600290048015612f065780601f10612edb57610100808354040283529160200191612f06565b820191906000526020600020905b815481529060010190602001808311612ee957829003601f168201915b505050505081565b600d6020528160005260406000208181548110612f2757fe5b90600052602060002001600091509150505481565b600060096000600a600085815260200190815260200160002060009054906101000a900473ffffffffffffffffffffffffffffffffffffffff1673ffffffffffffffffffffffffffffffffffffffff1673ffffffffffffffffffffffffffffffffffffffff168152602001908152602001600020600201549050919050565b60125481565b600f6020528060005260406000206000915090505481565b600160009054906101000a900473ffffffffffffffffffffffffffffffffffffffff1681565b6000601254141561300f57600080fd5b6130248160125461439490919063ffffffff16565b341461302f57600080fd5b601160009054906101000a905050601060009054906101000a900473ffffffffffffffffffffffffffffffffffffffff1673ffffffffffffffffffffffffffffffffffffffff1663a9059cbb33836040518363ffffffff167c0100000000000000000000000000000000000000000000000000000000028152600401808373ffffffffffffffffffffffffffffffffffffffff1673ffffffffffffffffffffffffffffffffffffffff16815260200182815260200192505050602060405180830381600087803b15801561310257600080fd5b505af1158015613116573d6000803e3d6000fd5b505050506040513d602081101561312c57600080fd5b81019080805190602001909291905050505050565b600260009054906101000a900473ffffffffffffffffffffffffffffffffffffffff1681565b600160009054906101000a900473ffffffffffffffffffffffffffffffffffffffff1673ffffffffffffffffffffffffffffffffffffffff163373ffffffffffffffffffffffffffffffffffffffff16146131c157600080fd5b600073ffffffffffffffffffffffffffffffffffffffff16601560009054906101000a900473ffffffffffffffffffffffffffffffffffffffff1673ffffffffffffffffffffffffffffffffffffffff161461321c57600080fd5b80601560006101000a81548173ffffffffffffffffffffffffffffffffffffffff021916908373ffffffffffffffffffffffffffffffffffffffff16021790555050565b600081565b600160009054906101000a900473ffffffffffffffffffffffffffffffffffffffff1673ffffffffffffffffffffffffffffffffffffffff163373ffffffffffffffffffffffffffffffffffffffff16146132bf57600080fd5b60001515600b6000601654815260200190815260200160002060009054906101000a900460ff161515146132f257600080fd5b6001600e600084815260200190815260200160002060000160006101000a81548160ff02191690831515021790555080600e6000848152602001908152602001600020600101908051906020019061334b929190614b4d565b505050565b613358614174565b73ffffffffffffffffffffffffffffffffffffffff168273ffffffffffffffffffffffffffffffffffffffff1614156133f9576040517f08c379a00000000000000000000000000000000000000000000000000000000081526004018080602001828103825260198152602001807f4552433732313a20617070726f766520746f2063616c6c65720000000000000081525060200191505060405180910390fd5b8060066000613406614174565b73ffffffffffffffffffffffffffffffffffffffff1673ffffffffffffffffffffffffffffffffffffffff16815260200190815260200160002060008473ffffffffffffffffffffffffffffffffffffffff1673ffffffffffffffffffffffffffffffffffffffff16815260200190815260200160002060006101000a81548160ff0219169083151502179055508173ffffffffffffffffffffffffffffffffffffffff166134b3614174565b73ffffffffffffffffffffffffffffffffffffffff167f17307eab39ab6107e8899845ad3d59bd9653f200f220920489ca2b5937696c3183604051808215151515815260200191505060405180910390a35050565b600160009054906101000a900473ffffffffffffffffffffffffffffffffffffffff1673ffffffffffffffffffffffffffffffffffffffff163373ffffffffffffffffffffffffffffffffffffffff161461356257600080fd5b8060148190555050565b60165481565b601160009054906101000a900473ffffffffffffffffffffffffffffffffffffffff1681565b6000600d60008373ffffffffffffffffffffffffffffffffffffffff1673ffffffffffffffffffffffffffffffffffffffff168152602001908152602001600020805490509050919050565b60006135ef86614777565b9050600f600085815260200190815260200160002054811461361057600080fd5b600061361b86614777565b9050600073ffffffffffffffffffffffffffffffffffffffff16600a600083815260200190815260200160002060009054906101000a900473ffffffffffffffffffffffffffffffffffffffff1673ffffffffffffffffffffffffffffffffffffffff1614806136e957503373ffffffffffffffffffffffffffffffffffffffff16600a600083815260200190815260200160002060009054906101000a900473ffffffffffffffffffffffffffffffffffffffff1673ffffffffffffffffffffffffffffffffffffffff16145b6136f257600080fd5b3373ffffffffffffffffffffffffffffffffffffffff16600a600083815260200190815260200160002060009054906101000a900473ffffffffffffffffffffffffffffffffffffffff1673ffffffffffffffffffffffffffffffffffffffff16141561380c5782600960003373ffffffffffffffffffffffffffffffffffffffff1673ffffffffffffffffffffffffffffffffffffffff16815260200190815260200160002060040190805190602001906137af929190614b4d565b5083600960003373ffffffffffffffffffffffffffffffffffffffff1673ffffffffffffffffffffffffffffffffffffffff1681526020019081526020016000206003019080519060200190613806929190614b4d565b50613a1f565b33600a600083815260200190815260200160002060006101000a81548173ffffffffffffffffffffffffffffffffffffffff021916908373ffffffffffffffffffffffffffffffffffffffff160217905550600160166000828254019250508190555085600960003373ffffffffffffffffffffffffffffffffffffffff1673ffffffffffffffffffffffffffffffffffffffff16815260200190815260200160002060000190805190602001906138c5929190614b4d565b50601654600960003373ffffffffffffffffffffffffffffffffffffffff1673ffffffffffffffffffffffffffffffffffffffff1681526020019081526020016000206001018190555084600960003373ffffffffffffffffffffffffffffffffffffffff1673ffffffffffffffffffffffffffffffffffffffff1681526020019081526020016000206002018190555082600960003373ffffffffffffffffffffffffffffffffffffffff1673ffffffffffffffffffffffffffffffffffffffff16815260200190815260200160002060040190805190602001906139ac929190614b4d565b5083600960003373ffffffffffffffffffffffffffffffffffffffff1673ffffffffffffffffffffffffffffffffffffffff1681526020019081526020016000206003019080519060200190613a03929190614b4d565b5080600c60006016548152602001908152602001600020819055505b6016543373ffffffffffffffffffffffffffffffffffffffff167fbf424f49c5146b94a91799dd259465aec6427c3792d9e1e1bd3a1a2b2bc4aeb060405160405180910390a350505050505050565b60145481565b600a6020528060005260406000206000915054906101000a900473ffffffffffffffffffffffffffffffffffffffff1681565b6000600660008473ffffffffffffffffffffffffffffffffffffffff1673ffffffffffffffffffffffffffffffffffffffff16815260200190815260200160002060008373ffffffffffffffffffffffffffffffffffffffff1673ffffffffffffffffffffffffffffffffffffffff16815260200190815260200160002060009054906101000a900460ff16905092915050565b600160009054906101000a900473ffffffffffffffffffffffffffffffffffffffff1673ffffffffffffffffffffffffffffffffffffffff163373ffffffffffffffffffffffffffffffffffffffff1614613b9557600080fd5b613b9e81614777565b600f6000848152602001908152602001600020819055505050565b600160009054906101000a900473ffffffffffffffffffffffffffffffffffffffff1673ffffffffffffffffffffffffffffffffffffffff163373ffffffffffffffffffffffffffffffffffffffff1614613c1357600080fd5b613c25613c1e614174565b600061441a565b613c7a576040517f08c379a0000000000000000000000000000000000000000000000000000000008152600401808060200182810382526031815260200180614d656031913960400191505060405180910390fd5b613c863382600061450e565b50565b600160009054906101000a900473ffffffffffffffffffffffffffffffffffffffff1673ffffffffffffffffffffffffffffffffffffffff163373ffffffffffffffffffffffffffffffffffffffff1614613ce357600080fd5b8073ffffffffffffffffffffffffffffffffffffffff16600260009054906101000a900473ffffffffffffffffffffffffffffffffffffffff1673ffffffffffffffffffffffffffffffffffffffff1663081812fc60006040518263ffffffff167c01000000000000000000000000000000000000000000000000000000000281526004018082815260200191505060206040518083038186803b158015613d8a57600080fd5b505afa158015613d9e573d6000803e3d6000fd5b505050506040513d6020811015613db457600080fd5b810190808051906020019092919050505073ffffffffffffffffffffffffffffffffffffffff161480613edc57508073ffffffffffffffffffffffffffffffffffffffff16600260009054906101000a900473ffffffffffffffffffffffffffffffffffffffff1673ffffffffffffffffffffffffffffffffffffffff1663081812fc60016040518263ffffffff167c01000000000000000000000000000000000000000000000000000000000281526004018082815260200191505060206040518083038186803b158015613e8957600080fd5b505afa158015613e9d573d6000803e3d6000fd5b505050506040513d6020811015613eb357600080fd5b810190808051906020019092919050505073ffffffffffffffffffffffffffffffffffffffff16145b613ee557600080fd5b8073ffffffffffffffffffffffffffffffffffffffff16600160009054906101000a900473ffffffffffffffffffffffffffffffffffffffff1673ffffffffffffffffffffffffffffffffffffffff167f8be0079c531659141344cd1fd0a4f28419497f9722a3daafe3b4186f6b6457e060405160405180910390a380600160006101000a81548173ffffffffffffffffffffffffffffffffffffffff021916908373ffffffffffffffffffffffffffffffffffffffff16021790555050565b601060009054906101000a900473ffffffffffffffffffffffffffffffffffffffff1681565b60135481565b60008090505b81518110156140fe573373ffffffffffffffffffffffffffffffffffffffff1661401383838151811061400657fe5b6020026020010151611ab1565b73ffffffffffffffffffffffffffffffffffffffff1614801561404a5750600082828151811061403f57fe5b602002602001015114155b801561406a5750600182828151811061405f57fe5b602002602001015114155b156140f157336008600084848151811061408057fe5b6020026020010151815260200190815260200160002060006101000a81548173ffffffffffffffffffffffffffffffffffffffff021916908373ffffffffffffffffffffffffffffffffffffffff1602179055506140f08282815181106140e357fe5b602002602001015161478c565b5b8080600101915050613fd7565b5050565b6000806003600084815260200190815260200160002060009054906101000a900473ffffffffffffffffffffffffffffffffffffffff169050600073ffffffffffffffffffffffffffffffffffffffff168173ffffffffffffffffffffffffffffffffffffffff161415915050919050565b600033905090565b600073ffffffffffffffffffffffffffffffffffffffff168273ffffffffffffffffffffffffffffffffffffffff16141561421f576040517f08c379a00000000000000000000000000000000000000000000000000000000081526004018080602001828103825260208152602001807f4552433732313a206d696e7420746f20746865207a65726f206164647265737381525060200191505060405180910390fd5b61422881614102565b1561429b576040517f08c379a000000000000000000000000000000000000000000000000000000000815260040180806020018281038252601c8152602001807f4552433732313a20746f6b656e20616c7265616479206d696e7465640000000081525060200191505060405180910390fd5b816003600083815260200190815260200160002060006101000a81548173ffffffffffffffffffffffffffffffffffffffff021916908373ffffffffffffffffffffffffffffffffffffffff160217905550614334600560008473ffffffffffffffffffffffffffffffffffffffff1673ffffffffffffffffffffffffffffffffffffffff1681526020019081526020016000206147a1565b808273ffffffffffffffffffffffffffffffffffffffff16600073ffffffffffffffffffffffffffffffffffffffff167fddf252ad1be2c89b69c2b068fc378daa952ba7f163c4a11628f55a4df523b3ef60405160405180910390a45050565b6000808314156143a75760009050614414565b60008284029050828482816143b857fe5b041461440f576040517f08c379a0000000000000000000000000000000000000000000000000000000008152600401808060200182810382526021815260200180614cce6021913960400191505060405180910390fd5b809150505b92915050565b600061442582614102565b61447a576040517f08c379a000000000000000000000000000000000000000000000000000000000815260040180806020018281038252602c815260200180614c17602c913960400191505060405180910390fd5b600061448583612853565b90508073ffffffffffffffffffffffffffffffffffffffff168473ffffffffffffffffffffffffffffffffffffffff1614806144f457508373ffffffffffffffffffffffffffffffffffffffff166144dc84611ab1565b73ffffffffffffffffffffffffffffffffffffffff16145b8061450557506145048185613aa7565b5b91505092915050565b8273ffffffffffffffffffffffffffffffffffffffff1661452e82612853565b73ffffffffffffffffffffffffffffffffffffffff161461459a576040517f08c379a0000000000000000000000000000000000000000000000000000000008152600401808060200182810382526029815260200180614d1b6029913960400191505060405180910390fd5b600073ffffffffffffffffffffffffffffffffffffffff168273ffffffffffffffffffffffffffffffffffffffff161415614620576040517f08c379a0000000000000000000000000000000000000000000000000000000008152600401808060200182810382526024815260200180614bf36024913960400191505060405180910390fd5b614629816147b7565b614670600560008573ffffffffffffffffffffffffffffffffffffffff1673ffffffffffffffffffffffffffffffffffffffff168152602001908152602001600020614875565b6146b7600560008473ffffffffffffffffffffffffffffffffffffffff1673ffffffffffffffffffffffffffffffffffffffff1681526020019081526020016000206147a1565b816003600083815260200190815260200160002060006101000a81548173ffffffffffffffffffffffffffffffffffffffff021916908373ffffffffffffffffffffffffffffffffffffffff160217905550808273ffffffffffffffffffffffffffffffffffffffff168473ffffffffffffffffffffffffffffffffffffffff167fddf252ad1be2c89b69c2b068fc378daa952ba7f163c4a11628f55a4df523b3ef60405160405180910390a4505050565b600081600001549050919050565b60008180519060200120600190049050919050565b61479e61479882612853565b82614898565b50565b6001816000016000828254019250508190555050565b600073ffffffffffffffffffffffffffffffffffffffff166004600083815260200190815260200160002060009054906101000a900473ffffffffffffffffffffffffffffffffffffffff1673ffffffffffffffffffffffffffffffffffffffff16146148725760006004600083815260200190815260200160002060006101000a81548173ffffffffffffffffffffffffffffffffffffffff021916908373ffffffffffffffffffffffffffffffffffffffff1602179055505b50565b61488d60018260000154614a4390919063ffffffff16565b816000018190555050565b60008114156148a657600080fd5b60018114156148b457600080fd5b8173ffffffffffffffffffffffffffffffffffffffff166148d482612853565b73ffffffffffffffffffffffffffffffffffffffff1614614940576040517f08c379a0000000000000000000000000000000000000000000000000000000008152600401808060200182810382526025815260200180614d966025913960400191505060405180910390fd5b614949816147b7565b614990600560008473ffffffffffffffffffffffffffffffffffffffff1673ffffffffffffffffffffffffffffffffffffffff168152602001908152602001600020614875565b60006003600083815260200190815260200160002060006101000a81548173ffffffffffffffffffffffffffffffffffffffff021916908373ffffffffffffffffffffffffffffffffffffffff16021790555080600073ffffffffffffffffffffffffffffffffffffffff168373ffffffffffffffffffffffffffffffffffffffff167fddf252ad1be2c89b69c2b068fc378daa952ba7f163c4a11628f55a4df523b3ef60405160405180910390a45050565b6000614a8583836040518060400160405280601e81526020017f536166654d6174683a207375627472616374696f6e206f766572666c6f770000815250614a8d565b905092915050565b6000838311158290614b3a576040517f08c379a00000000000000000000000000000000000000000000000000000000081526004018080602001828103825283818151815260200191508051906020019080838360005b83811015614aff578082015181840152602081019050614ae4565b50505050905090810190601f168015614b2c5780820380516001836020036101000a031916815260200191505b509250505060405180910390fd5b5060008385039050809150509392505050565b828054600181600116156101000203166002900490600052602060002090601f016020900481019282601f10614b8e57805160ff1916838001178555614bbc565b82800160010185558215614bbc579182015b82811115614bbb578251825591602001919060010190614ba0565b5b509050614bc99190614bcd565b5090565b614bef91905b80821115614beb576000816000905550600101614bd3565b5090565b9056fe4552433732313a207472616e7366657220746f20746865207a65726f20616464726573734552433732313a206f70657261746f7220717565727920666f72206e6f6e6578697374656e7420746f6b656e4552433732313a20617070726f76652063616c6c6572206973206e6f74206f776e6572206e6f7220617070726f76656420666f7220616c6c4552433732313a2062616c616e636520717565727920666f7220746865207a65726f20616464726573734552433732313a206f776e657220717565727920666f72206e6f6e6578697374656e7420746f6b656e536166654d6174683a206d756c7469706c69636174696f6e206f766572666c6f774552433732313a20617070726f76656420717565727920666f72206e6f6e6578697374656e7420746f6b656e4552433732313a207472616e73666572206f6620746f6b656e2074686174206973206e6f74206f776e4552433732313a20617070726f76616c20746f2063757272656e74206f776e65724552433732313a207472616e736665722063616c6c6572206973206e6f74206f776e6572206e6f7220617070726f7665644552433732313a206275726e206f6620746f6b656e2074686174206973206e6f74206f776ea265627a7a723158207606a3f306a416ec60e91448e014eb75da59e3657a54a8b3043ae316ec32ccc064736f6c634300050b0032",
  "source": "pragma solidity ^0.5.0;\n\nimport \"../token/TogethersSpace.sol\";\nimport \"../technical/SafeMath.sol\";\n\ncontract SpaceManager is TogethersSpace {\n\n  using SafeMath for uint256;\n\n  event newSociety(address indexed from, uint indexed ID);\n  event decision(address indexed from, bool decision);\n\n  mapping (uint => string) public urls;\n  mapping (uint => address) public lockedSpace;\n  mapping (address => society) public mappSociety;\n  mapping (uint => address) public checkedSociety;\n  mapping (uint => bool) public isApproved;\n  mapping (uint => uint) public mappIDSocietyToHash;\n  mapping (address => uint[]) public mappSpacesList;\n  mapping (uint => description) public balckList;\n  mapping (uint => uint) public mappPassword;\n\n  External2 public TGTCToken;\n  External1 public MainContract;\n\n  uint public TGTCPrice;\n  uint public MaxTokenCount;\n  uint public spacePrice;\n\n  address spaceOperator;\n\n  constructor(address tgtc, address main) public {\n    TGTCToken = External2(tgtc);\n    MainContract = External1(main);\n    TGTSToken = External3(address(this));\n    owner = msg.sender;\n    MaxTokenCount = 10000;\n    spacePrice = 1;\n    // get powerTokens\n    _mint(msg.sender,powerToken1);\n    _mint(msg.sender,powerToken2);\n  }\n\n  struct society\n  {\n    string name;\n    uint ID;\n    uint SIRET;\n    string signatory;\n    string email;\n  }\n\n  struct description\n  {\n    bool isBlacklisted;\n    string reason;\n  }\n\n  uint public ID;\n\n  function modifySpacePrice(uint _price) public onlyOwner\n  {\n    spacePrice = _price;\n  }\n\n  function setSpaceOperator(address _spaceOperator) public onlyOwner\n  {\n    require(spaceOperator == address(0));\n    spaceOperator = _spaceOperator;\n  }\n\n  function changeMaxTokenCount(uint _max) public onlyOwner\n  {\n    MaxTokenCount = _max;\n  }\n\n  function getSpaceInfoName(uint _space) public view returns (string memory)\n  {\n    return mappSociety[checkedSociety[_space]].name;\n  }\n\n  function getSpaceInfoSIRET(uint _space) public view returns (uint)\n  {\n    return mappSociety[checkedSociety[_space]].SIRET;\n  }\n\n  function getNBSpaces(address _society) public view returns (uint)\n  {\n    return mappSpacesList[_society].length;\n  }\n\n  function getLastSpaceID() public returns (uint)\n  {\n    return MainContract.ID();\n  }\n\n  function registerSociety(string memory password, string memory name, uint SIRET, string memory signatory, string memory email) public\n  {\n    uint hashPassword = returnHash(password);\n    require(hashPassword == mappPassword[SIRET]);\n    uint hashs = returnHash(name);\n    require(checkedSociety[hashs] == address(0) || checkedSociety[hashs] == msg.sender);\n    if (checkedSociety[hashs] == msg.sender)\n    {\n      mappSociety[msg.sender].email = email;\n      mappSociety[msg.sender].signatory = signatory;\n    }\n    else\n    {\n      checkedSociety[hashs] = msg.sender;\n      ID += 1;\n      mappSociety[msg.sender].name = name;\n      mappSociety[msg.sender].ID = ID;\n      mappSociety[msg.sender].SIRET = SIRET;\n      mappSociety[msg.sender].email = email;\n      mappSociety[msg.sender].signatory = signatory;\n      mappIDSocietyToHash[ID] = hashs;\n    }\n    emit newSociety(msg.sender,ID);\n  }\n\n  function givePassword(uint SIRET, string memory password) onlyOwner public\n  {\n    mappPassword[SIRET] = returnHash(password);\n  }\n\n  function approveSociety(uint _ID) onlyOwner public\n  {\n    require(balckList[_ID].isBlacklisted == false);\n    if (isApproved[_ID] == false)\n    {\n      isApproved[_ID] = true;\n      isApprovedForAll(checkedSociety[mappIDSocietyToHash[_ID]],spaceOperator);\n    }\n    else\n    {\n      isApproved[_ID] = false;\n    }\n    emit decision(checkedSociety[mappIDSocietyToHash[_ID]],isApproved[_ID]);\n  }\n\n  function blackListSociety(uint _ID, string memory _reason) onlyOwner public\n  {\n    require(isApproved[ID] == false);\n    balckList[_ID].isBlacklisted = true;\n    balckList[_ID].reason = _reason;\n  }\n\n  function modifyTGTCPrice(uint price) public onlyOwner\n  {\n    TGTCPrice = price;\n  }\n\n  function getTGTCs(uint amount) public payable\n  {\n    require(TGTCPrice != 0);\n    require(msg.value == TGTCPrice.mul(amount));\n    MainContract.addInbox.value(msg.value);\n    TGTCToken.transfer(msg.sender,amount);\n  }\n\n  function modifySpaces(uint[] memory space, string memory url) public\n  {\n    for (uint i = 0; i < space.length; i++)\n    {\n      if (getApproved(space[i]) == msg.sender && space[i] != powerToken1 && space[i] != powerToken2)\n      {\n        urls[space[i]] = url;\n      }\n    }\n  }\n\n  function lockSpaces(uint[] memory space) public\n  {\n    for (uint i = 0; i < space.length; i++)\n    {\n      if (getApproved(space[i]) == msg.sender && space[i] != powerToken1 && space[i] != powerToken2)\n      {\n        lockedSpace[space[i]] = msg.sender;\n        _burn(space[i]);\n      }\n    }\n  }\n\n  function buySpaces(uint[] memory space) public\n  {\n    require(isApproved[mappSociety[msg.sender].ID] == true);\n    require(TGTCToken.balanceOf(msg.sender) >=  space.length * spacePrice);\n    uint k;\n    for (uint i = 0; i < space.length; i++)\n    {\n      if (_exists(space[i]) == false && i > getLastSpaceID())\n      {\n        if (balanceOf(msg.sender) > MaxTokenCount)\n        {\n          break;\n        }\n        mappSpacesList[msg.sender].push(space[i]);\n        k=k+1;\n        _mint(msg.sender,i);\n      }\n    }\n    if (k > 0)\n    {\n      TGTCToken.burnExternal(msg.sender,spacePrice.mul(k));\n    }\n  }\n\n}\n",
  "sourcePath": "/Users/germaindacunha/Documents/GitHub/App_Togethers/contracts/main/SpaceManager.sol",
  "compiler": {
    "name": "solc",
    "version": "0.5.11+commit.c082d0b4.Emscripten.clang"
  },
  "schemaVersion": "3.0.9",
  "updatedAt": "2019-11-28T09:54:04.422Z",
  "devdoc": {
    "methods": {
      "approve(address,uint256)": {
        "details": "Approves another address to transfer the given token ID The zero address indicates there is no approved address. There can only be one approved address per token at a given time. Can only be called by the token owner or an approved operator.",
        "params": {
          "to": "address to be approved for the given token ID",
          "tokenId": "uint256 ID of the token to be approved"
        }
      },
      "balanceOf(address)": {
        "details": "Gets the balance of the specified address.",
        "params": {
          "owner": "address to query the balance of"
        },
        "return": "uint256 representing the amount owned by the passed address"
      },
      "getApproved(uint256)": {
        "details": "Gets the approved address for a token ID, or zero if no address set Reverts if the token ID does not exist.",
        "params": {
          "tokenId": "uint256 ID of the token to query the approval of"
        },
        "return": "address currently approved for the given token ID"
      },
      "isApprovedForAll(address,address)": {
        "details": "Tells whether an operator is approved by a given owner.",
        "params": {
          "operator": "operator address which you want to query the approval of",
          "owner": "owner address which you want to query the approval of"
        },
        "return": "bool whether the given operator is approved by the given owner"
      },
      "ownerOf(uint256)": {
        "details": "Gets the owner of the specified token ID.",
        "params": {
          "tokenId": "uint256 ID of the token to query the owner of"
        },
        "return": "address currently marked as the owner of the given token ID"
      },
      "setApprovalForAll(address,bool)": {
        "details": "Sets or unsets the approval of a given operator An operator is allowed to transfer all tokens of the sender on their behalf.",
        "params": {
          "approved": "representing the status of the approval to be set",
          "to": "operator address to set the approval"
        }
      },
      "supportsInterface(bytes4)": {
        "details": "See {IERC165-supportsInterface}.     * Time complexity O(1), guaranteed to always use less than 30 000 gas."
      },
      "transferFrom(address,address,uint256)": {
        "details": "Transfers the ownership of a given token ID to another address. Usage of this method is discouraged, use {safeTransferFrom} whenever possible. Requires the msg.sender to be the owner, approved, or operator.",
        "params": {
          "from": "current owner of the token",
          "to": "address to receive the ownership of the given token ID",
          "tokenId": "uint256 ID of the token to be transferred"
        }
      }
    }
  },
  "userdoc": {
    "methods": {}
  }
}