{
  "contractName": "Togethers",
  "abi": [
    {
      "constant": true,
      "inputs": [
        {
          "internalType": "address",
          "name": "",
          "type": "address"
        },
        {
          "internalType": "address",
          "name": "",
          "type": "address"
        },
        {
          "internalType": "uint256",
          "name": "",
          "type": "uint256"
        }
      ],
      "name": "mappStatsPeerToPeer",
      "outputs": [
        {
          "internalType": "uint256",
          "name": "",
          "type": "uint256"
        }
      ],
      "payable": false,
      "stateMutability": "view",
      "type": "function"
    },
    {
      "constant": true,
      "inputs": [
        {
          "internalType": "address",
          "name": "",
          "type": "address"
        }
      ],
      "name": "mappAddressToUser",
      "outputs": [
        {
          "internalType": "string",
          "name": "name",
          "type": "string"
        },
        {
          "internalType": "string",
          "name": "pseudo",
          "type": "string"
        },
        {
          "internalType": "string",
          "name": "ipfsImage",
          "type": "string"
        },
        {
          "internalType": "uint256",
          "name": "language",
          "type": "uint256"
        },
        {
          "internalType": "uint256",
          "name": "blockNumber",
          "type": "uint256"
        }
      ],
      "payable": false,
      "stateMutability": "view",
      "type": "function"
    },
    {
      "constant": true,
      "inputs": [
        {
          "internalType": "address",
          "name": "",
          "type": "address"
        },
        {
          "internalType": "uint256",
          "name": "",
          "type": "uint256"
        }
      ],
      "name": "checkGroupUnicity",
      "outputs": [
        {
          "internalType": "uint256",
          "name": "",
          "type": "uint256"
        }
      ],
      "payable": false,
      "stateMutability": "view",
      "type": "function"
    },
    {
      "constant": false,
      "inputs": [
        {
          "internalType": "address",
          "name": "_tgts",
          "type": "address"
        }
      ],
      "name": "setPowerToken",
      "outputs": [],
      "payable": false,
      "stateMutability": "nonpayable",
      "type": "function"
    },
    {
      "constant": false,
      "inputs": [
        {
          "internalType": "uint256",
          "name": "_index",
          "type": "uint256"
        }
      ],
      "name": "enableCrypto",
      "outputs": [],
      "payable": false,
      "stateMutability": "nonpayable",
      "type": "function"
    },
    {
      "constant": true,
      "inputs": [],
      "name": "powerToken2",
      "outputs": [
        {
          "internalType": "uint256",
          "name": "",
          "type": "uint256"
        }
      ],
      "payable": false,
      "stateMutability": "view",
      "type": "function"
    },
    {
      "constant": true,
      "inputs": [
        {
          "internalType": "uint256",
          "name": "",
          "type": "uint256"
        },
        {
          "internalType": "address",
          "name": "",
          "type": "address"
        }
      ],
      "name": "mappProfileInGroup",
      "outputs": [
        {
          "internalType": "bool",
          "name": "isMember",
          "type": "bool"
        },
        {
          "internalType": "bool",
          "name": "open",
          "type": "bool"
        },
        {
          "internalType": "bool",
          "name": "owner",
          "type": "bool"
        },
        {
          "internalType": "uint256",
          "name": "DemandID",
          "type": "uint256"
        }
      ],
      "payable": false,
      "stateMutability": "view",
      "type": "function"
    },
    {
      "constant": false,
      "inputs": [
        {
          "internalType": "uint256",
          "name": "_amount",
          "type": "uint256"
        }
      ],
      "name": "getMoney",
      "outputs": [],
      "payable": false,
      "stateMutability": "nonpayable",
      "type": "function"
    },
    {
      "constant": false,
      "inputs": [
        {
          "internalType": "string",
          "name": "name",
          "type": "string"
        },
        {
          "internalType": "string",
          "name": "symbol",
          "type": "string"
        },
        {
          "internalType": "address",
          "name": "_address",
          "type": "address"
        },
        {
          "internalType": "uint256",
          "name": "decimal",
          "type": "uint256"
        }
      ],
      "name": "useNewToken",
      "outputs": [],
      "payable": false,
      "stateMutability": "nonpayable",
      "type": "function"
    },
    {
      "constant": false,
      "inputs": [],
      "name": "close",
      "outputs": [],
      "payable": false,
      "stateMutability": "nonpayable",
      "type": "function"
    },
    {
      "constant": true,
      "inputs": [
        {
          "internalType": "uint256",
          "name": "",
          "type": "uint256"
        },
        {
          "internalType": "address",
          "name": "",
          "type": "address"
        },
        {
          "internalType": "uint256",
          "name": "",
          "type": "uint256"
        }
      ],
      "name": "mappGiven",
      "outputs": [
        {
          "internalType": "uint256",
          "name": "",
          "type": "uint256"
        }
      ],
      "payable": false,
      "stateMutability": "view",
      "type": "function"
    },
    {
      "constant": true,
      "inputs": [
        {
          "internalType": "uint256",
          "name": "index",
          "type": "uint256"
        }
      ],
      "name": "getTokenAddress",
      "outputs": [
        {
          "internalType": "address",
          "name": "",
          "type": "address"
        }
      ],
      "payable": false,
      "stateMutability": "view",
      "type": "function"
    },
    {
      "constant": true,
      "inputs": [],
      "name": "nbDemands",
      "outputs": [
        {
          "internalType": "uint256",
          "name": "",
          "type": "uint256"
        }
      ],
      "payable": false,
      "stateMutability": "view",
      "type": "function"
    },
    {
      "constant": true,
      "inputs": [],
      "name": "groupNumber",
      "outputs": [
        {
          "internalType": "uint256",
          "name": "",
          "type": "uint256"
        }
      ],
      "payable": false,
      "stateMutability": "view",
      "type": "function"
    },
    {
      "constant": true,
      "inputs": [
        {
          "internalType": "uint256",
          "name": "index",
          "type": "uint256"
        }
      ],
      "name": "getTokenSymbol",
      "outputs": [
        {
          "internalType": "string",
          "name": "",
          "type": "string"
        }
      ],
      "payable": false,
      "stateMutability": "view",
      "type": "function"
    },
    {
      "constant": true,
      "inputs": [],
      "name": "owner",
      "outputs": [
        {
          "internalType": "address payable",
          "name": "",
          "type": "address"
        }
      ],
      "payable": false,
      "stateMutability": "view",
      "type": "function"
    },
    {
      "constant": true,
      "inputs": [],
      "name": "TGTSToken",
      "outputs": [
        {
          "internalType": "contract External3",
          "name": "",
          "type": "address"
        }
      ],
      "payable": false,
      "stateMutability": "view",
      "type": "function"
    },
    {
      "constant": true,
      "inputs": [],
      "name": "powerToken1",
      "outputs": [
        {
          "internalType": "uint256",
          "name": "",
          "type": "uint256"
        }
      ],
      "payable": false,
      "stateMutability": "view",
      "type": "function"
    },
    {
      "constant": true,
      "inputs": [
        {
          "internalType": "address",
          "name": "",
          "type": "address"
        },
        {
          "internalType": "uint256",
          "name": "",
          "type": "uint256"
        }
      ],
      "name": "mappAskForAdd",
      "outputs": [
        {
          "internalType": "bool",
          "name": "",
          "type": "bool"
        }
      ],
      "payable": false,
      "stateMutability": "view",
      "type": "function"
    },
    {
      "constant": true,
      "inputs": [
        {
          "internalType": "uint256",
          "name": "",
          "type": "uint256"
        }
      ],
      "name": "disableCrypto",
      "outputs": [
        {
          "internalType": "bool",
          "name": "",
          "type": "bool"
        }
      ],
      "payable": false,
      "stateMutability": "view",
      "type": "function"
    },
    {
      "constant": true,
      "inputs": [
        {
          "internalType": "uint256",
          "name": "",
          "type": "uint256"
        },
        {
          "internalType": "uint256",
          "name": "",
          "type": "uint256"
        }
      ],
      "name": "mappUsersInGroup",
      "outputs": [
        {
          "internalType": "address",
          "name": "",
          "type": "address"
        }
      ],
      "payable": false,
      "stateMutability": "view",
      "type": "function"
    },
    {
      "constant": true,
      "inputs": [
        {
          "internalType": "uint256",
          "name": "",
          "type": "uint256"
        }
      ],
      "name": "checkNameUnicity",
      "outputs": [
        {
          "internalType": "address",
          "name": "",
          "type": "address"
        }
      ],
      "payable": false,
      "stateMutability": "view",
      "type": "function"
    },
    {
      "constant": true,
      "inputs": [],
      "name": "ID",
      "outputs": [
        {
          "internalType": "uint256",
          "name": "",
          "type": "uint256"
        }
      ],
      "payable": false,
      "stateMutability": "view",
      "type": "function"
    },
    {
      "constant": true,
      "inputs": [
        {
          "internalType": "uint256",
          "name": "",
          "type": "uint256"
        }
      ],
      "name": "mappSpaceInfo",
      "outputs": [
        {
          "internalType": "string",
          "name": "description",
          "type": "string"
        },
        {
          "internalType": "uint256",
          "name": "language",
          "type": "uint256"
        }
      ],
      "payable": false,
      "stateMutability": "view",
      "type": "function"
    },
    {
      "constant": true,
      "inputs": [
        {
          "internalType": "uint256",
          "name": "",
          "type": "uint256"
        }
      ],
      "name": "mappGroupIDToGroupName",
      "outputs": [
        {
          "internalType": "string",
          "name": "",
          "type": "string"
        }
      ],
      "payable": false,
      "stateMutability": "view",
      "type": "function"
    },
    {
      "constant": false,
      "inputs": [],
      "name": "addInbox",
      "outputs": [],
      "payable": true,
      "stateMutability": "payable",
      "type": "function"
    },
    {
      "constant": true,
      "inputs": [
        {
          "internalType": "uint256",
          "name": "index",
          "type": "uint256"
        }
      ],
      "name": "getTokenDecimal",
      "outputs": [
        {
          "internalType": "uint256",
          "name": "",
          "type": "uint256"
        }
      ],
      "payable": false,
      "stateMutability": "view",
      "type": "function"
    },
    {
      "constant": true,
      "inputs": [],
      "name": "MAX",
      "outputs": [
        {
          "internalType": "uint256",
          "name": "",
          "type": "uint256"
        }
      ],
      "payable": false,
      "stateMutability": "view",
      "type": "function"
    },
    {
      "constant": true,
      "inputs": [],
      "name": "tgtcAmount",
      "outputs": [
        {
          "internalType": "uint256",
          "name": "",
          "type": "uint256"
        }
      ],
      "payable": false,
      "stateMutability": "view",
      "type": "function"
    },
    {
      "constant": true,
      "inputs": [
        {
          "internalType": "uint256",
          "name": "index",
          "type": "uint256"
        }
      ],
      "name": "getTokenName",
      "outputs": [
        {
          "internalType": "string",
          "name": "",
          "type": "string"
        }
      ],
      "payable": false,
      "stateMutability": "view",
      "type": "function"
    },
    {
      "constant": false,
      "inputs": [
        {
          "internalType": "uint256",
          "name": "_max",
          "type": "uint256"
        }
      ],
      "name": "setMaxLength",
      "outputs": [],
      "payable": false,
      "stateMutability": "nonpayable",
      "type": "function"
    },
    {
      "constant": true,
      "inputs": [],
      "name": "getSize",
      "outputs": [
        {
          "internalType": "uint256",
          "name": "",
          "type": "uint256"
        }
      ],
      "payable": false,
      "stateMutability": "view",
      "type": "function"
    },
    {
      "constant": true,
      "inputs": [
        {
          "internalType": "address",
          "name": "",
          "type": "address"
        },
        {
          "internalType": "uint256",
          "name": "",
          "type": "uint256"
        }
      ],
      "name": "mappGroupsForAddress",
      "outputs": [
        {
          "internalType": "uint256",
          "name": "",
          "type": "uint256"
        }
      ],
      "payable": false,
      "stateMutability": "view",
      "type": "function"
    },
    {
      "constant": false,
      "inputs": [
        {
          "internalType": "address payable",
          "name": "newOwner",
          "type": "address"
        }
      ],
      "name": "transferOwnership",
      "outputs": [],
      "payable": false,
      "stateMutability": "nonpayable",
      "type": "function"
    },
    {
      "inputs": [],
      "payable": false,
      "stateMutability": "nonpayable",
      "type": "constructor"
    },
    {
      "anonymous": false,
      "inputs": [
        {
          "indexed": true,
          "internalType": "uint256",
          "name": "ID",
          "type": "uint256"
        }
      ],
      "name": "newDemand",
      "type": "event"
    },
    {
      "anonymous": false,
      "inputs": [
        {
          "indexed": true,
          "internalType": "uint256",
          "name": "ID",
          "type": "uint256"
        }
      ],
      "name": "payDemand",
      "type": "event"
    },
    {
      "anonymous": false,
      "inputs": [
        {
          "indexed": true,
          "internalType": "uint256",
          "name": "ID",
          "type": "uint256"
        }
      ],
      "name": "endDemand",
      "type": "event"
    },
    {
      "anonymous": false,
      "inputs": [
        {
          "indexed": true,
          "internalType": "address",
          "name": "previousOwner",
          "type": "address"
        },
        {
          "indexed": true,
          "internalType": "address",
          "name": "newOwner",
          "type": "address"
        }
      ],
      "name": "OwnershipTransferred",
      "type": "event"
    },
    {
      "constant": false,
      "inputs": [
        {
          "internalType": "uint256",
          "name": "_groupID",
          "type": "uint256"
        }
      ],
      "name": "ask",
      "outputs": [],
      "payable": false,
      "stateMutability": "nonpayable",
      "type": "function"
    },
    {
      "constant": false,
      "inputs": [
        {
          "internalType": "uint256",
          "name": "_groupID",
          "type": "uint256"
        },
        {
          "internalType": "address",
          "name": "newOwner",
          "type": "address"
        }
      ],
      "name": "transferGroupOwnership",
      "outputs": [],
      "payable": false,
      "stateMutability": "nonpayable",
      "type": "function"
    },
    {
      "constant": false,
      "inputs": [
        {
          "internalType": "string",
          "name": "_pseudo",
          "type": "string"
        },
        {
          "internalType": "string",
          "name": "_ipfsImage",
          "type": "string"
        },
        {
          "internalType": "string",
          "name": "_userName",
          "type": "string"
        },
        {
          "internalType": "uint256",
          "name": "_language",
          "type": "uint256"
        }
      ],
      "name": "setUser",
      "outputs": [],
      "payable": false,
      "stateMutability": "nonpayable",
      "type": "function"
    },
    {
      "constant": false,
      "inputs": [
        {
          "internalType": "string",
          "name": "_groupName",
          "type": "string"
        }
      ],
      "name": "createGroup",
      "outputs": [],
      "payable": false,
      "stateMutability": "nonpayable",
      "type": "function"
    },
    {
      "constant": false,
      "inputs": [
        {
          "internalType": "uint256",
          "name": "groupID",
          "type": "uint256"
        },
        {
          "internalType": "string",
          "name": "_pseudo",
          "type": "string"
        }
      ],
      "name": "createProfile",
      "outputs": [],
      "payable": false,
      "stateMutability": "nonpayable",
      "type": "function"
    },
    {
      "constant": false,
      "inputs": [
        {
          "internalType": "uint256",
          "name": "groupID",
          "type": "uint256"
        },
        {
          "internalType": "string",
          "name": "_description",
          "type": "string"
        },
        {
          "internalType": "uint256",
          "name": "_fees",
          "type": "uint256"
        }
      ],
      "name": "askForFunds",
      "outputs": [],
      "payable": true,
      "stateMutability": "payable",
      "type": "function"
    },
    {
      "constant": false,
      "inputs": [
        {
          "internalType": "address",
          "name": "_publicKey",
          "type": "address"
        },
        {
          "internalType": "uint256",
          "name": "groupID",
          "type": "uint256"
        },
        {
          "internalType": "uint256",
          "name": "_tokenAmount",
          "type": "uint256"
        },
        {
          "internalType": "uint256",
          "name": "_crypto",
          "type": "uint256"
        },
        {
          "internalType": "uint256",
          "name": "_fees",
          "type": "uint256"
        }
      ],
      "name": "payForFunds",
      "outputs": [],
      "payable": true,
      "stateMutability": "payable",
      "type": "function"
    },
    {
      "constant": false,
      "inputs": [
        {
          "internalType": "uint256",
          "name": "groupID",
          "type": "uint256"
        }
      ],
      "name": "withdrawFunds",
      "outputs": [
        {
          "internalType": "uint256",
          "name": "",
          "type": "uint256"
        }
      ],
      "payable": false,
      "stateMutability": "nonpayable",
      "type": "function"
    },
    {
      "constant": false,
      "inputs": [
        {
          "internalType": "address",
          "name": "_publicKey",
          "type": "address"
        },
        {
          "internalType": "uint256",
          "name": "groupID",
          "type": "uint256"
        }
      ],
      "name": "removeMember",
      "outputs": [],
      "payable": false,
      "stateMutability": "nonpayable",
      "type": "function"
    },
    {
      "constant": false,
      "inputs": [
        {
          "internalType": "uint256",
          "name": "_groupID",
          "type": "uint256"
        }
      ],
      "name": "quitGroup",
      "outputs": [],
      "payable": false,
      "stateMutability": "nonpayable",
      "type": "function"
    },
    {
      "constant": true,
      "inputs": [
        {
          "internalType": "uint256",
          "name": "_group",
          "type": "uint256"
        },
        {
          "internalType": "uint256",
          "name": "_num",
          "type": "uint256"
        }
      ],
      "name": "getUserName",
      "outputs": [
        {
          "internalType": "string",
          "name": "",
          "type": "string"
        }
      ],
      "payable": false,
      "stateMutability": "view",
      "type": "function"
    },
    {
      "constant": true,
      "inputs": [
        {
          "internalType": "uint256",
          "name": "_group",
          "type": "uint256"
        },
        {
          "internalType": "uint256",
          "name": "_num",
          "type": "uint256"
        }
      ],
      "name": "getUserName2",
      "outputs": [
        {
          "internalType": "string",
          "name": "",
          "type": "string"
        }
      ],
      "payable": false,
      "stateMutability": "view",
      "type": "function"
    },
    {
      "constant": true,
      "inputs": [
        {
          "internalType": "uint256",
          "name": "_num",
          "type": "uint256"
        }
      ],
      "name": "getGroup",
      "outputs": [
        {
          "internalType": "string",
          "name": "",
          "type": "string"
        }
      ],
      "payable": false,
      "stateMutability": "view",
      "type": "function"
    },
    {
      "constant": true,
      "inputs": [
        {
          "internalType": "uint256",
          "name": "_group",
          "type": "uint256"
        },
        {
          "internalType": "uint256",
          "name": "_num",
          "type": "uint256"
        }
      ],
      "name": "getUserAddress",
      "outputs": [
        {
          "internalType": "address",
          "name": "",
          "type": "address"
        }
      ],
      "payable": false,
      "stateMutability": "view",
      "type": "function"
    },
    {
      "constant": true,
      "inputs": [
        {
          "internalType": "uint256",
          "name": "_num",
          "type": "uint256"
        }
      ],
      "name": "getGroupID",
      "outputs": [
        {
          "internalType": "uint256",
          "name": "",
          "type": "uint256"
        }
      ],
      "payable": false,
      "stateMutability": "view",
      "type": "function"
    },
    {
      "constant": true,
      "inputs": [],
      "name": "getGroupsLength",
      "outputs": [
        {
          "internalType": "uint256",
          "name": "",
          "type": "uint256"
        }
      ],
      "payable": false,
      "stateMutability": "view",
      "type": "function"
    },
    {
      "constant": true,
      "inputs": [
        {
          "internalType": "uint256",
          "name": "_group",
          "type": "uint256"
        }
      ],
      "name": "getUsersLength",
      "outputs": [
        {
          "internalType": "uint256",
          "name": "",
          "type": "uint256"
        }
      ],
      "payable": false,
      "stateMutability": "view",
      "type": "function"
    }
  ],
  "bytecode": "0x608060405234801561001057600080fd5b50336000806101000a81548173ffffffffffffffffffffffffffffffffffffffff021916908373ffffffffffffffffffffffffffffffffffffffff160217905550606460038190555060028081905550615b1e80620000706000396000f3fe608060405260043610610301576000357c010000000000000000000000000000000000000000000000000000000090048063890abf41116101ad578063cc33fb6a116100f9578063dc2ddcae116100b2578063de8fa4311161008c578063de8fa43114611a3e578063debc5fc714611a69578063e47e7e6614611ad8578063f2fde38b14611b1357610301565b8063dc2ddcae1461186c578063dc2f786714611934578063dd7704951461196f57610301565b8063cc33fb6a14611655578063ceb606541461165f578063d39eda2a14611713578063d49d518114611762578063db0c6dc21461178d578063dbe16c07146117b857610301565b8063a4d02b9d11610166578063bc16ad5a11610140578063bc16ad5a146112ab578063bdc7070f14611366578063caefe5c71461141a578063cb6d308a1461145557610301565b8063a4d02b9d14611180578063af9f558214611205578063b3cea2171461128057610301565b8063890abf4114610f865780638da5cb5b14610fe15780638e9d2bb4146110385780639a829e9e1461108f578063a44e1fce146110ba578063a4c66c531461112d57610301565b8063341f09d41161026c5780636378a6c8116102255780636eeae7b9116101ff5780636eeae7b914610e2d578063719a1b4614610e5857806379c1afb914610ea75780637b78bd3f14610ed257610301565b80636378a6c814610d0257806367ccdf3814610d875780636d3524f514610e0257610301565b8063341f09d41461090a5780634004db201461095957806343d726d614610ae25780634435924014610af957806345946a2314610b725780634e63506214610c4457610301565b8063146e3a16116102be578063146e3a161461072f578063155dd5ee1461076a57806316f6f03e146107b95780631f92b14214610814578063259b798f1461083f5780633262fd9a146108cf57610301565b806301a2895914610306578063039646ac1461039557806306afe8da146105455780630e5b2b8d146105b457806310feb0e51461062057806311f733ee14610671575b600080fd5b34801561031257600080fd5b5061037f6004803603606081101561032957600080fd5b81019080803573ffffffffffffffffffffffffffffffffffffffff169060200190929190803573ffffffffffffffffffffffffffffffffffffffff16906020019092919080359060200190929190505050611b64565b6040518082815260200191505060405180910390f35b3480156103a157600080fd5b506103e4600480360360208110156103b857600080fd5b81019080803573ffffffffffffffffffffffffffffffffffffffff169060200190929190505050611b96565b60405180806020018060200180602001868152602001858152602001848103845289818151815260200191508051906020019080838360005b8381101561043857808201518184015260208101905061041d565b50505050905090810190601f1680156104655780820380516001836020036101000a031916815260200191505b50848103835288818151815260200191508051906020019080838360005b8381101561049e578082015181840152602081019050610483565b50505050905090810190601f1680156104cb5780820380516001836020036101000a031916815260200191505b50848103825287818151815260200191508051906020019080838360005b838110156105045780820151818401526020810190506104e9565b50505050905090810190601f1680156105315780820380516001836020036101000a031916815260200191505b509850505050505050505060405180910390f35b34801561055157600080fd5b5061059e6004803603604081101561056857600080fd5b81019080803573ffffffffffffffffffffffffffffffffffffffff16906020019092919080359060200190929190505050611d94565b6040518082815260200191505060405180910390f35b61061e600480360360a08110156105ca57600080fd5b81019080803573ffffffffffffffffffffffffffffffffffffffff16906020019092919080359060200190929190803590602001909291908035906020019092919080359060200190929190505050611db9565b005b34801561062c57600080fd5b5061066f6004803603602081101561064357600080fd5b81019080803573ffffffffffffffffffffffffffffffffffffffff16906020019092919050505061219f565b005b34801561067d57600080fd5b506106b46004803603604081101561069457600080fd5b8101908080359060200190929190803590602001909291905050506122fa565b6040518080602001828103825283818151815260200191508051906020019080838360005b838110156106f45780820151818401526020810190506106d9565b50505050905090810190601f1680156107215780820380516001836020036101000a031916815260200191505b509250505060405180910390f35b34801561073b57600080fd5b506107686004803603602081101561075257600080fd5b810190808035906020019092919050505061244e565b005b34801561077657600080fd5b506107a36004803603602081101561078d57600080fd5b8101908080359060200190929190505050612535565b6040518082815260200191505060405180910390f35b3480156107c557600080fd5b50610812600480360360408110156107dc57600080fd5b81019080803573ffffffffffffffffffffffffffffffffffffffff16906020019092919080359060200190929190505050612ab3565b005b34801561082057600080fd5b50610829612c4d565b6040518082815260200191505060405180910390f35b34801561084b57600080fd5b506108986004803603604081101561086257600080fd5b8101908080359060200190929190803573ffffffffffffffffffffffffffffffffffffffff169060200190929190505050612c52565b6040518085151515158152602001841515151581526020018315151515815260200182815260200194505050505060405180910390f35b3480156108db57600080fd5b50610908600480360360208110156108f257600080fd5b8101908080359060200190929190505050612cb6565b005b34801561091657600080fd5b506109436004803603602081101561092d57600080fd5b8101908080359060200190929190505050612d94565b6040518082815260200191505060405180910390f35b34801561096557600080fd5b50610ae06004803603608081101561097c57600080fd5b810190808035906020019064010000000081111561099957600080fd5b8201836020820111156109ab57600080fd5b803590602001918460018302840111640100000000831117156109cd57600080fd5b91908080601f016020809104026020016040519081016040528093929190818152602001838380828437600081840152601f19601f82011690508083019250505050505050919291929080359060200190640100000000811115610a3057600080fd5b820183602082011115610a4257600080fd5b80359060200191846001830284011164010000000083111715610a6457600080fd5b91908080601f016020809104026020016040519081016040528093929190818152602001838380828437600081840152601f19601f820116905080830192505050505050509192919290803573ffffffffffffffffffffffffffffffffffffffff16906020019092919080359060200190929190505050612df2565b005b348015610aee57600080fd5b50610af7612f7d565b005b348015610b0557600080fd5b50610b5c60048036036060811015610b1c57600080fd5b8101908080359060200190929190803573ffffffffffffffffffffffffffffffffffffffff16906020019092919080359060200190929190505050613213565b6040518082815260200191505060405180910390f35b348015610b7e57600080fd5b50610c4260048036036040811015610b9557600080fd5b810190808035906020019092919080359060200190640100000000811115610bbc57600080fd5b820183602082011115610bce57600080fd5b80359060200191846001830284011164010000000083111715610bf057600080fd5b91908080601f016020809104026020016040519081016040528093929190818152602001838380828437600081840152601f19601f820116905080830192505050505050509192919290505050613245565b005b348015610c5057600080fd5b50610c8760048036036040811015610c6757600080fd5b810190808035906020019092919080359060200190929190505050613415565b6040518080602001828103825283818151815260200191508051906020019080838360005b83811015610cc7578082015181840152602081019050610cac565b50505050905090810190601f168015610cf45780820380516001836020036101000a031916815260200191505b509250505060405180910390f35b348015610d0e57600080fd5b50610d4560048036036040811015610d2557600080fd5b810190808035906020019092919080359060200190929190505050613569565b604051808273ffffffffffffffffffffffffffffffffffffffff1673ffffffffffffffffffffffffffffffffffffffff16815260200191505060405180910390f35b348015610d9357600080fd5b50610dc060048036036020811015610daa57600080fd5b81019080803590602001909291905050506135d5565b604051808273ffffffffffffffffffffffffffffffffffffffff1673ffffffffffffffffffffffffffffffffffffffff16815260200191505060405180910390f35b348015610e0e57600080fd5b50610e1761361d565b6040518082815260200191505060405180910390f35b348015610e3957600080fd5b50610e42613667565b6040518082815260200191505060405180910390f35b348015610e6457600080fd5b50610e9160048036036020811015610e7b57600080fd5b810190808035906020019092919050505061366d565b6040518082815260200191505060405180910390f35b348015610eb357600080fd5b50610ebc61368d565b6040518082815260200191505060405180910390f35b348015610ede57600080fd5b50610f0b60048036036020811015610ef557600080fd5b8101908080359060200190929190505050613693565b6040518080602001828103825283818151815260200191508051906020019080838360005b83811015610f4b578082015181840152602081019050610f30565b50505050905090810190601f168015610f785780820380516001836020036101000a031916815260200191505b509250505060405180910390f35b348015610f9257600080fd5b50610fdf60048036036040811015610fa957600080fd5b8101908080359060200190929190803573ffffffffffffffffffffffffffffffffffffffff169060200190929190505050613753565b005b348015610fed57600080fd5b50610ff6613911565b604051808273ffffffffffffffffffffffffffffffffffffffff1673ffffffffffffffffffffffffffffffffffffffff16815260200191505060405180910390f35b34801561104457600080fd5b5061104d613936565b604051808273ffffffffffffffffffffffffffffffffffffffff1673ffffffffffffffffffffffffffffffffffffffff16815260200191505060405180910390f35b34801561109b57600080fd5b506110a461395c565b6040518082815260200191505060405180910390f35b3480156110c657600080fd5b50611113600480360360408110156110dd57600080fd5b81019080803573ffffffffffffffffffffffffffffffffffffffff16906020019092919080359060200190929190505050613961565b604051808215151515815260200191505060405180910390f35b34801561113957600080fd5b506111666004803603602081101561115057600080fd5b8101908080359060200190929190505050613990565b604051808215151515815260200191505060405180910390f35b34801561118c57600080fd5b506111c3600480360360408110156111a357600080fd5b8101908080359060200190929190803590602001909291905050506139b0565b604051808273ffffffffffffffffffffffffffffffffffffffff1673ffffffffffffffffffffffffffffffffffffffff16815260200191505060405180910390f35b34801561121157600080fd5b5061123e6004803603602081101561122857600080fd5b81019080803590602001909291905050506139fb565b604051808273ffffffffffffffffffffffffffffffffffffffff1673ffffffffffffffffffffffffffffffffffffffff16815260200191505060405180910390f35b34801561128c57600080fd5b50611295613a2e565b6040518082815260200191505060405180910390f35b3480156112b757600080fd5b506112e4600480360360208110156112ce57600080fd5b8101908080359060200190929190505050613a34565b6040518080602001838152602001828103825284818151815260200191508051906020019080838360005b8381101561132a57808201518184015260208101905061130f565b50505050905090810190601f1680156113575780820380516001836020036101000a031916815260200191505b50935050505060405180910390f35b34801561137257600080fd5b5061139f6004803603602081101561138957600080fd5b8101908080359060200190929190505050613af0565b6040518080602001828103825283818151815260200191508051906020019080838360005b838110156113df5780820151818401526020810190506113c4565b50505050905090810190601f16801561140c5780820380516001836020036101000a031916815260200191505b509250505060405180910390f35b34801561142657600080fd5b506114536004803603602081101561143d57600080fd5b8101908080359060200190929190505050613ba0565b005b34801561146157600080fd5b506116536004803603608081101561147857600080fd5b810190808035906020019064010000000081111561149557600080fd5b8201836020820111156114a757600080fd5b803590602001918460018302840111640100000000831117156114c957600080fd5b91908080601f016020809104026020016040519081016040528093929190818152602001838380828437600081840152601f19601f8201169050808301925050505050505091929192908035906020019064010000000081111561152c57600080fd5b82018360208201111561153e57600080fd5b8035906020019184600183028401116401000000008311171561156057600080fd5b91908080601f016020809104026020016040519081016040528093929190818152602001838380828437600081840152601f19601f820116905080830192505050505050509192919290803590602001906401000000008111156115c357600080fd5b8201836020820111156115d557600080fd5b803590602001918460018302840111640100000000831117156115f757600080fd5b91908080601f016020809104026020016040519081016040528093929190818152602001838380828437600081840152601f19601f82011690508083019250505050505050919291929080359060200190929190505050613db4565b005b61165d61403b565b005b34801561166b57600080fd5b506116986004803603602081101561168257600080fd5b8101908080359060200190929190505050614053565b6040518080602001828103825283818151815260200191508051906020019080838360005b838110156116d85780820151818401526020810190506116bd565b50505050905090810190601f1680156117055780820380516001836020036101000a031916815260200191505b509250505060405180910390f35b34801561171f57600080fd5b5061174c6004803603602081101561173657600080fd5b810190808035906020019092919050505061415c565b6040518082815260200191505060405180910390f35b34801561176e57600080fd5b50611777614184565b6040518082815260200191505060405180910390f35b34801561179957600080fd5b506117a261418a565b6040518082815260200191505060405180910390f35b3480156117c457600080fd5b506117f1600480360360208110156117db57600080fd5b8101908080359060200190929190505050614196565b6040518080602001828103825283818151815260200191508051906020019080838360005b83811015611831578082015181840152602081019050611816565b50505050905090810190601f16801561185e5780820380516001836020036101000a031916815260200191505b509250505060405180910390f35b34801561187857600080fd5b506119326004803603602081101561188f57600080fd5b81019080803590602001906401000000008111156118ac57600080fd5b8201836020820111156118be57600080fd5b803590602001918460018302840111640100000000831117156118e057600080fd5b91908080601f016020809104026020016040519081016040528093929190818152602001838380828437600081840152601f19601f820116905080830192505050505050509192919290505050614256565b005b34801561194057600080fd5b5061196d6004803603602081101561195757600080fd5b81019080803590602001909291905050506143c3565b005b611a3c6004803603606081101561198557600080fd5b8101908080359060200190929190803590602001906401000000008111156119ac57600080fd5b8201836020820111156119be57600080fd5b803590602001918460018302840111640100000000831117156119e057600080fd5b91908080601f016020809104026020016040519081016040528093929190818152602001838380828437600081840152601f19601f82011690508083019250505050505050919291929080359060200190929190505050614426565b005b348015611a4a57600080fd5b50611a5361482b565b6040518082815260200191505060405180910390f35b348015611a7557600080fd5b50611ac260048036036040811015611a8c57600080fd5b81019080803573ffffffffffffffffffffffffffffffffffffffff16906020019092919080359060200190929190505050614838565b6040518082815260200191505060405180910390f35b348015611ae457600080fd5b50611b1160048036036020811015611afb57600080fd5b8101908080359060200190929190505050614866565b005b348015611b1f57600080fd5b50611b6260048036036020811015611b3657600080fd5b81019080803573ffffffffffffffffffffffffffffffffffffffff1690602001909291905050506149a5565b005b600c60205282600052604060002060205281600052604060002060205280600052604060002060009250925050505481565b600d602052806000526040600020600091509050806000018054600181600116156101000203166002900480601f016020809104026020016040519081016040528092919081815260200182805460018160011615610100020316600290048015611c425780601f10611c1757610100808354040283529160200191611c42565b820191906000526020600020905b815481529060010190602001808311611c2557829003601f168201915b505050505090806001018054600181600116156101000203166002900480601f016020809104026020016040519081016040528092919081815260200182805460018160011615610100020316600290048015611ce05780601f10611cb557610100808354040283529160200191611ce0565b820191906000526020600020905b815481529060010190602001808311611cc357829003601f168201915b505050505090806002018054600181600116156101000203166002900480601f016020809104026020016040519081016040528092919081815260200182805460018160011615610100020316600290048015611d7e5780601f10611d5357610100808354040283529160200191611d7e565b820191906000526020600020905b815481529060010190602001808311611d6157829003601f168201915b5050505050908060030154908060040154905085565b6013602052816000526040600020602052806000526040600020600091509150505481565b80341015611dc657600080fd5b60011515600f600086815260200190815260200160002060008773ffffffffffffffffffffffffffffffffffffffff1673ffffffffffffffffffffffffffffffffffffffff16815260200190815260200160002060000160019054906101000a900460ff16151514611e3757600080fd5b60011515600f600086815260200190815260200160002060003373ffffffffffffffffffffffffffffffffffffffff1673ffffffffffffffffffffffffffffffffffffffff16815260200190815260200160002060000160009054906101000a900460ff16151514611ea857600080fd5b611eb061482b565b82108015611ee25750600015156006600084815260200190815260200160002060009054906101000a900460ff161515145b611eeb57600080fd5b600080831415611f0f57611f088234614cbe90919063ffffffff16565b905061203c565b6000841415611f1d57600080fd5b611f26836135d5565b73ffffffffffffffffffffffffffffffffffffffff166323b872dd3330876040518463ffffffff167c0100000000000000000000000000000000000000000000000000000000028152600401808473ffffffffffffffffffffffffffffffffffffffff1673ffffffffffffffffffffffffffffffffffffffff1681526020018373ffffffffffffffffffffffffffffffffffffffff1673ffffffffffffffffffffffffffffffffffffffff1681526020018281526020019350505050602060405180830381600087803b158015611ffc57600080fd5b505af1158015612010573d6000803e3d6000fd5b505050506040513d602081101561202657600080fd5b8101908080519060200190929190505050508390505b6120dc81600c60003373ffffffffffffffffffffffffffffffffffffffff1673ffffffffffffffffffffffffffffffffffffffff16815260200190815260200160002060008973ffffffffffffffffffffffffffffffffffffffff1673ffffffffffffffffffffffffffffffffffffffff168152602001908152602001600020600086815260200190815260200160002054614d0890919063ffffffff16565b50612151816007600088815260200190815260200160002060008973ffffffffffffffffffffffffffffffffffffffff1673ffffffffffffffffffffffffffffffffffffffff168152602001908152602001600020600086815260200190815260200160002054614d0890919063ffffffff16565b5061216782600b54614d0890919063ffffffff16565b506002547f01aaada18c452af0f5a5b9fd949e9e7df65aad4c5b0d7ff60d4637ea8de0cd0b60405160405180910390a2505050505050565b6000809054906101000a900473ffffffffffffffffffffffffffffffffffffffff1673ffffffffffffffffffffffffffffffffffffffff163373ffffffffffffffffffffffffffffffffffffffff16146121f857600080fd5b600073ffffffffffffffffffffffffffffffffffffffff16600a60009054906101000a900473ffffffffffffffffffffffffffffffffffffffff1673ffffffffffffffffffffffffffffffffffffffff161461225357600080fd5b80600a60006101000a81548173ffffffffffffffffffffffffffffffffffffffff021916908373ffffffffffffffffffffffffffffffffffffffff160217905550600a60009054906101000a900473ffffffffffffffffffffffffffffffffffffffff16600160006101000a81548173ffffffffffffffffffffffffffffffffffffffff021916908373ffffffffffffffffffffffffffffffffffffffff16021790555050565b60606123058361366d565b821061232257604051806020016040528060008152509050612448565b600d600060116000868152602001908152602001600020848154811061234457fe5b9060005260206000200160009054906101000a900473ffffffffffffffffffffffffffffffffffffffff1673ffffffffffffffffffffffffffffffffffffffff1673ffffffffffffffffffffffffffffffffffffffff1681526020019081526020016000206000018054600181600116156101000203166002900480601f0160208091040260200160405190810160405280929190818152602001828054600181600116156101000203166002900480156124405780601f1061241557610100808354040283529160200191612440565b820191906000526020600020905b81548152906001019060200180831161242357829003601f168201915b505050505090505b92915050565b6000809054906101000a900473ffffffffffffffffffffffffffffffffffffffff1673ffffffffffffffffffffffffffffffffffffffff163373ffffffffffffffffffffffffffffffffffffffff16146124a757600080fd5b600015156006600083815260200190815260200160002060009054906101000a900460ff16151514156125055760016006600083815260200190815260200160002060006101000a81548160ff021916908315150217905550612532565b60006006600083815260200190815260200160002060006101000a81548160ff0219169083151502179055505b50565b600060011515600f600084815260200190815260200160002060003373ffffffffffffffffffffffffffffffffffffffff1673ffffffffffffffffffffffffffffffffffffffff16815260200190815260200160002060000160019054906101000a900460ff161515146125a857600080fd5b600080600f600085815260200190815260200160002060003373ffffffffffffffffffffffffffffffffffffffff1673ffffffffffffffffffffffffffffffffffffffff16815260200190815260200160002060000160016101000a81548160ff0219169083151502179055506000151561262284614d90565b15151415612a195760008090505b61263861482b565b81101561294d5760006007600086815260200190815260200160002060003373ffffffffffffffffffffffffffffffffffffffff1673ffffffffffffffffffffffffffffffffffffffff1681526020019081526020016000206000838152602001908152602001600020541180156126d45750600015156006600083815260200190815260200160002060009054906101000a900460ff161515145b1561294057600081141561278f573373ffffffffffffffffffffffffffffffffffffffff166108fc6007600087815260200190815260200160002060003373ffffffffffffffffffffffffffffffffffffffff1673ffffffffffffffffffffffffffffffffffffffff1681526020019081526020016000206000848152602001908152602001600020549081150290604051600060405180830381858888f19350505050158015612789573d6000803e3d6000fd5b506128d8565b612798816135d5565b73ffffffffffffffffffffffffffffffffffffffff1663a9059cbb336007600088815260200190815260200160002060003373ffffffffffffffffffffffffffffffffffffffff1673ffffffffffffffffffffffffffffffffffffffff1681526020019081526020016000206000858152602001908152602001600020546040518363ffffffff167c0100000000000000000000000000000000000000000000000000000000028152600401808373ffffffffffffffffffffffffffffffffffffffff1673ffffffffffffffffffffffffffffffffffffffff16815260200182815260200192505050602060405180830381600087803b15801561289b57600080fd5b505af11580156128af573d6000803e3d6000fd5b505050506040513d60208110156128c557600080fd5b8101908080519060200190929190505050505b60006007600086815260200190815260200160002060003373ffffffffffffffffffffffffffffffffffffffff1673ffffffffffffffffffffffffffffffffffffffff1681526020019081526020016000206000838152602001908152602001600020819055505b8080600101915050612630565b50600d60003373ffffffffffffffffffffffffffffffffffffffff1673ffffffffffffffffffffffffffffffffffffffff16815260200190815260200160002060040154431115612a18576129af600554600b54614e3390919063ffffffff16565b905060008114612a17573373ffffffffffffffffffffffffffffffffffffffff166108fc829081150290604051600060405180830381858888f193505050501580156129ff573d6000803e3d6000fd5b50612a1581600b54614cbe90919063ffffffff16565b505b5b5b600f600084815260200190815260200160002060003373ffffffffffffffffffffffffffffffffffffffff1673ffffffffffffffffffffffffffffffffffffffff168152602001908152602001600020600101547fd7812da44ded4ee1fa218de345c5ad64e4eb94c45247e3eaf6805ba38c398e1960405160405180910390a2600160056000828254039250508190555080915050919050565b3373ffffffffffffffffffffffffffffffffffffffff168273ffffffffffffffffffffffffffffffffffffffff161415612aec57600080fd5b60011515600f600083815260200190815260200160002060003373ffffffffffffffffffffffffffffffffffffffff1673ffffffffffffffffffffffffffffffffffffffff16815260200190815260200160002060000160029054906101000a900460ff16151514612b5d57600080fd5b60011515600f600083815260200190815260200160002060008473ffffffffffffffffffffffffffffffffffffffff1673ffffffffffffffffffffffffffffffffffffffff16815260200190815260200160002060000160009054906101000a900460ff16151514612bce57600080fd5b60001515600f600083815260200190815260200160002060008473ffffffffffffffffffffffffffffffffffffffff1673ffffffffffffffffffffffffffffffffffffffff16815260200190815260200160002060000160019054906101000a900460ff16151514612c3f57600080fd5b612c498183614e7d565b5050565b600181565b600f602052816000526040600020602052806000526040600020600091509150508060000160009054906101000a900460ff16908060000160019054906101000a900460ff16908060000160029054906101000a900460ff16908060010154905084565b6000809054906101000a900473ffffffffffffffffffffffffffffffffffffffff1673ffffffffffffffffffffffffffffffffffffffff163373ffffffffffffffffffffffffffffffffffffffff1614612d0f57600080fd5b600080821480612d205750600b5482115b15612d2f57600b549050612d33565b8190505b612d4881600b54614cbe90919063ffffffff16565b503373ffffffffffffffffffffffffffffffffffffffff166108fc829081150290604051600060405180830381858888f19350505050158015612d8f573d6000803e3d6000fd5b505050565b6000601060003373ffffffffffffffffffffffffffffffffffffffff1673ffffffffffffffffffffffffffffffffffffffff1681526020019081526020016000208281548110612de057fe5b90600052602060002001549050919050565b6000809054906101000a900473ffffffffffffffffffffffffffffffffffffffff1673ffffffffffffffffffffffffffffffffffffffff163373ffffffffffffffffffffffffffffffffffffffff1614612e4b57600080fd5b600073ffffffffffffffffffffffffffffffffffffffff168273ffffffffffffffffffffffffffffffffffffffff161415612e8557600080fd5b600960405180608001604052808681526020018581526020018473ffffffffffffffffffffffffffffffffffffffff16815260200183815250908060018154018082558091505090600182039060005260206000209060040201600090919290919091506000820151816000019080519060200190612f0592919061596c565b506020820151816001019080519060200190612f2292919061596c565b5060408201518160020160006101000a81548173ffffffffffffffffffffffffffffffffffffffff021916908373ffffffffffffffffffffffffffffffffffffffff1602179055506060820151816003015550505050505050565b6000809054906101000a900473ffffffffffffffffffffffffffffffffffffffff1673ffffffffffffffffffffffffffffffffffffffff163373ffffffffffffffffffffffffffffffffffffffff1614612fd657600080fd5b3373ffffffffffffffffffffffffffffffffffffffff16600160009054906101000a900473ffffffffffffffffffffffffffffffffffffffff1673ffffffffffffffffffffffffffffffffffffffff1663081812fc60006040518263ffffffff167c01000000000000000000000000000000000000000000000000000000000281526004018082815260200191505060206040518083038186803b15801561307d57600080fd5b505afa158015613091573d6000803e3d6000fd5b505050506040513d60208110156130a757600080fd5b810190808051906020019092919050505073ffffffffffffffffffffffffffffffffffffffff161480156131d057503373ffffffffffffffffffffffffffffffffffffffff16600160009054906101000a900473ffffffffffffffffffffffffffffffffffffffff1673ffffffffffffffffffffffffffffffffffffffff1663081812fc60016040518263ffffffff167c01000000000000000000000000000000000000000000000000000000000281526004018082815260200191505060206040518083038186803b15801561317d57600080fd5b505afa158015613191573d6000803e3d6000fd5b505050506040513d60208110156131a757600080fd5b810190808051906020019092919050505073ffffffffffffffffffffffffffffffffffffffff16145b6131d957600080fd5b6000809054906101000a900473ffffffffffffffffffffffffffffffffffffffff1673ffffffffffffffffffffffffffffffffffffffff16ff5b600760205282600052604060002060205281600052604060002060205280600052604060002060009250925050505481565b600061325082615579565b905060006012600083815260200190815260200160002060009054906101000a900473ffffffffffffffffffffffffffffffffffffffff16905060001515600f600086815260200190815260200160002060008373ffffffffffffffffffffffffffffffffffffffff1673ffffffffffffffffffffffffffffffffffffffff16815260200190815260200160002060000160009054906101000a900460ff161515146132fb57600080fd5b60011515600f600086815260200190815260200160002060003373ffffffffffffffffffffffffffffffffffffffff1673ffffffffffffffffffffffffffffffffffffffff16815260200190815260200160002060000160029054906101000a900460ff1615151461336c57600080fd5b60011515601460008373ffffffffffffffffffffffffffffffffffffffff1673ffffffffffffffffffffffffffffffffffffffff168152602001908152602001600020600086815260200190815260200160002060009054906101000a900460ff161515146133da57600080fd5b6003546133e561361d565b106133ef57600080fd5b6003546133fb8561366d565b1061340557600080fd5b61340f848261558e565b50505050565b60606134208361366d565b821061343d57604051806020016040528060008152509050613563565b600d600060116000868152602001908152602001600020848154811061345f57fe5b9060005260206000200160009054906101000a900473ffffffffffffffffffffffffffffffffffffffff1673ffffffffffffffffffffffffffffffffffffffff1673ffffffffffffffffffffffffffffffffffffffff1681526020019081526020016000206001018054600181600116156101000203166002900480601f01602080910402602001604051908101604052809291908181526020018280546001816001161561010002031660029004801561355b5780601f106135305761010080835404028352916020019161355b565b820191906000526020600020905b81548152906001019060200180831161353e57829003601f168201915b505050505090505b92915050565b60006135748361366d565b821061358357600090506135cf565b6011600084815260200190815260200160002082815481106135a157fe5b9060005260206000200160009054906101000a900473ffffffffffffffffffffffffffffffffffffffff1690505b92915050565b6000600982815481106135e457fe5b906000526020600020906004020160020160009054906101000a900473ffffffffffffffffffffffffffffffffffffffff169050919050565b6000601060003373ffffffffffffffffffffffffffffffffffffffff1673ffffffffffffffffffffffffffffffffffffffff16815260200190815260200160002080549050905090565b60055481565b600060116000838152602001908152602001600020805490509050919050565b60045481565b6060600982815481106136a257fe5b90600052602060002090600402016001018054600181600116156101000203166002900480601f0160208091040260200160405190810160405280929190818152602001828054600181600116156101000203166002900480156137475780601f1061371c57610100808354040283529160200191613747565b820191906000526020600020905b81548152906001019060200180831161372a57829003601f168201915b50505050509050919050565b60011515600f600084815260200190815260200160002060003373ffffffffffffffffffffffffffffffffffffffff1673ffffffffffffffffffffffffffffffffffffffff16815260200190815260200160002060000160029054906101000a900460ff161515146137c457600080fd5b60011515600f600084815260200190815260200160002060008373ffffffffffffffffffffffffffffffffffffffff1673ffffffffffffffffffffffffffffffffffffffff16815260200190815260200160002060000160009054906101000a900460ff1615151461383557600080fd5b6000600f600084815260200190815260200160002060003373ffffffffffffffffffffffffffffffffffffffff1673ffffffffffffffffffffffffffffffffffffffff16815260200190815260200160002060000160026101000a81548160ff0219169083151502179055506001600f600084815260200190815260200160002060008373ffffffffffffffffffffffffffffffffffffffff1673ffffffffffffffffffffffffffffffffffffffff16815260200190815260200160002060000160026101000a81548160ff0219169083151502179055505050565b6000809054906101000a900473ffffffffffffffffffffffffffffffffffffffff1681565b600160009054906101000a900473ffffffffffffffffffffffffffffffffffffffff1681565b600081565b60146020528160005260406000206020528060005260406000206000915091509054906101000a900460ff1681565b60066020528060005260406000206000915054906101000a900460ff1681565b601160205281600052604060002081815481106139c957fe5b906000526020600020016000915091509054906101000a900473ffffffffffffffffffffffffffffffffffffffff1681565b60126020528060005260406000206000915054906101000a900473ffffffffffffffffffffffffffffffffffffffff1681565b60025481565b6008602052806000526040600020600091509050806000018054600181600116156101000203166002900480601f016020809104026020016040519081016040528092919081815260200182805460018160011615610100020316600290048015613ae05780601f10613ab557610100808354040283529160200191613ae0565b820191906000526020600020905b815481529060010190602001808311613ac357829003601f168201915b5050505050908060010154905082565b600e6020528060005260406000206000915090508054600181600116156101000203166002900480601f016020809104026020016040519081016040528092919081815260200182805460018160011615610100020316600290048015613b985780601f10613b6d57610100808354040283529160200191613b98565b820191906000526020600020905b815481529060010190602001808311613b7b57829003601f168201915b505050505081565b60011515600f600083815260200190815260200160002060003373ffffffffffffffffffffffffffffffffffffffff1673ffffffffffffffffffffffffffffffffffffffff16815260200190815260200160002060000160009054906101000a900460ff16151514613c1157600080fd5b60011515600f600083815260200190815260200160002060003373ffffffffffffffffffffffffffffffffffffffff1673ffffffffffffffffffffffffffffffffffffffff16815260200190815260200160002060000160029054906101000a900460ff161515148015613c9b575060016011600083815260200190815260200160002080549050145b80613d2d57506001601160008381526020019081526020016000208054905014158015613d2c575060001515600f600083815260200190815260200160002060003373ffffffffffffffffffffffffffffffffffffffff1673ffffffffffffffffffffffffffffffffffffffff16815260200190815260200160002060000160029054906101000a900460ff161515145b5b613d3657600080fd5b60001515600f600083815260200190815260200160002060003373ffffffffffffffffffffffffffffffffffffffff1673ffffffffffffffffffffffffffffffffffffffff16815260200190815260200160002060000160019054906101000a900460ff16151514613da757600080fd5b613db18133614e7d565b50565b6000613dbf85615579565b9050600073ffffffffffffffffffffffffffffffffffffffff166012600083815260200190815260200160002060009054906101000a900473ffffffffffffffffffffffffffffffffffffffff1673ffffffffffffffffffffffffffffffffffffffff1614613e2d57600080fd5b336012600083815260200190815260200160002060006101000a81548173ffffffffffffffffffffffffffffffffffffffff021916908373ffffffffffffffffffffffffffffffffffffffff1602179055506001601460003373ffffffffffffffffffffffffffffffffffffffff1673ffffffffffffffffffffffffffffffffffffffff168152602001908152602001600020600083815260200190815260200160002060006101000a81548160ff02191690831515021790555082600d60003373ffffffffffffffffffffffffffffffffffffffff1673ffffffffffffffffffffffffffffffffffffffff1681526020019081526020016000206000019080519060200190613f3e9291906159ec565b5084600d60003373ffffffffffffffffffffffffffffffffffffffff1673ffffffffffffffffffffffffffffffffffffffff1681526020019081526020016000206001019080519060200190613f959291906159ec565b5081600d60003373ffffffffffffffffffffffffffffffffffffffff1673ffffffffffffffffffffffffffffffffffffffff1681526020019081526020016000206003018190555083600d60003373ffffffffffffffffffffffffffffffffffffffff1673ffffffffffffffffffffffffffffffffffffffff16815260200190815260200160002060020190805190602001906140339291906159ec565b505050505050565b61405034600b54614d0890919063ffffffff16565b50565b6060600e6000601060003373ffffffffffffffffffffffffffffffffffffffff1673ffffffffffffffffffffffffffffffffffffffff16815260200190815260200160002084815481106140a357fe5b906000526020600020015481526020019081526020016000208054600181600116156101000203166002900480601f0160208091040260200160405190810160405280929190818152602001828054600181600116156101000203166002900480156141505780601f1061412557610100808354040283529160200191614150565b820191906000526020600020905b81548152906001019060200180831161413357829003601f168201915b50505050509050919050565b60006009828154811061416b57fe5b9060005260206000209060040201600301549050919050565b60035481565b670de0b6b3a764000081565b6060600982815481106141a557fe5b90600052602060002090600402016000018054600181600116156101000203166002900480601f01602080910402602001604051908101604052809291908181526020018280546001816001161561010002031660029004801561424a5780601f1061421f5761010080835404028352916020019161424a565b820191906000526020600020905b81548152906001019060200180831161422d57829003601f168201915b50505050509050919050565b60016004600082825401925050819055506000600d60003373ffffffffffffffffffffffffffffffffffffffff1673ffffffffffffffffffffffffffffffffffffffff1681526020019081526020016000206003015414156142b757600080fd5b6000601360003373ffffffffffffffffffffffffffffffffffffffff1673ffffffffffffffffffffffffffffffffffffffff168152602001908152602001600020600061430384615579565b8152602001908152602001600020541461431c57600080fd5b6001600f6000600454815260200190815260200160002060003373ffffffffffffffffffffffffffffffffffffffff1673ffffffffffffffffffffffffffffffffffffffff16815260200190815260200160002060000160026101000a81548160ff02191690831515021790555080600e6000600454815260200190815260200160002090805190602001906143b39291906159ec565b506143c06004543361558e565b50565b6000809054906101000a900473ffffffffffffffffffffffffffffffffffffffff1673ffffffffffffffffffffffffffffffffffffffff163373ffffffffffffffffffffffffffffffffffffffff161461441c57600080fd5b8060038190555050565b80341461443257600080fd5b60001515600f600085815260200190815260200160002060003373ffffffffffffffffffffffffffffffffffffffff1673ffffffffffffffffffffffffffffffffffffffff16815260200190815260200160002060000160019054906101000a900460ff161515146144a357600080fd5b60011515600f600085815260200190815260200160002060003373ffffffffffffffffffffffffffffffffffffffff1673ffffffffffffffffffffffffffffffffffffffff16815260200190815260200160002060000160009054906101000a900460ff1615151461451457600080fd5b61452981600b54614d0890919063ffffffff16565b506001600f600085815260200190815260200160002060003373ffffffffffffffffffffffffffffffffffffffff1673ffffffffffffffffffffffffffffffffffffffff16815260200190815260200160002060000160016101000a81548160ff021916908315150217905550600254600f600085815260200190815260200160002060003373ffffffffffffffffffffffffffffffffffffffff1673ffffffffffffffffffffffffffffffffffffffff1681526020019081526020016000206001018190555043600d60003373ffffffffffffffffffffffffffffffffffffffff1673ffffffffffffffffffffffffffffffffffffffff16815260200190815260200160002060040181905550600d60003373ffffffffffffffffffffffffffffffffffffffff1673ffffffffffffffffffffffffffffffffffffffff16815260200190815260200160002060030154600860006002548152602001908152602001600020600101819055508160086000600254815260200190815260200160002060000190805190602001906146c29291906159ec565b5060016005600082825401925050819055506002547f5ffc7ee36b6193ebb3b80eb5a1f5be73294260f12e9430bc5279f1feb822130560405160405180910390a2600160026000828254019250508190555061471e60016135d5565b73ffffffffffffffffffffffffffffffffffffffff1663f4da1846600a60009054906101000a900473ffffffffffffffffffffffffffffffffffffffff16670de0b6b3a76400006040518363ffffffff167c0100000000000000000000000000000000000000000000000000000000028152600401808373ffffffffffffffffffffffffffffffffffffffff1673ffffffffffffffffffffffffffffffffffffffff16815260200182815260200192505050602060405180830381600087803b1580156147ea57600080fd5b505af11580156147fe573d6000803e3d6000fd5b505050506040513d602081101561481457600080fd5b810190808051906020019092919050505050505050565b6000600980549050905090565b6010602052816000526040600020818154811061485157fe5b90600052602060002001600091509150505481565b60006148718261366d565b1161487b57600080fd5b6000600d60003373ffffffffffffffffffffffffffffffffffffffff1673ffffffffffffffffffffffffffffffffffffffff1681526020019081526020016000206003015414156148cb57600080fd5b60001515601460003373ffffffffffffffffffffffffffffffffffffffff1673ffffffffffffffffffffffffffffffffffffffff168152602001908152602001600020600083815260200190815260200160002060009054906101000a900460ff1615151461493957600080fd5b6001601460003373ffffffffffffffffffffffffffffffffffffffff1673ffffffffffffffffffffffffffffffffffffffff168152602001908152602001600020600083815260200190815260200160002060006101000a81548160ff02191690831515021790555050565b6000809054906101000a900473ffffffffffffffffffffffffffffffffffffffff1673ffffffffffffffffffffffffffffffffffffffff163373ffffffffffffffffffffffffffffffffffffffff16146149fe57600080fd5b8073ffffffffffffffffffffffffffffffffffffffff16600160009054906101000a900473ffffffffffffffffffffffffffffffffffffffff1673ffffffffffffffffffffffffffffffffffffffff1663081812fc60006040518263ffffffff167c01000000000000000000000000000000000000000000000000000000000281526004018082815260200191505060206040518083038186803b158015614aa557600080fd5b505afa158015614ab9573d6000803e3d6000fd5b505050506040513d6020811015614acf57600080fd5b810190808051906020019092919050505073ffffffffffffffffffffffffffffffffffffffff161480614bf757508073ffffffffffffffffffffffffffffffffffffffff16600160009054906101000a900473ffffffffffffffffffffffffffffffffffffffff1673ffffffffffffffffffffffffffffffffffffffff1663081812fc60016040518263ffffffff167c01000000000000000000000000000000000000000000000000000000000281526004018082815260200191505060206040518083038186803b158015614ba457600080fd5b505afa158015614bb8573d6000803e3d6000fd5b505050506040513d6020811015614bce57600080fd5b810190808051906020019092919050505073ffffffffffffffffffffffffffffffffffffffff16145b614c0057600080fd5b8073ffffffffffffffffffffffffffffffffffffffff166000809054906101000a900473ffffffffffffffffffffffffffffffffffffffff1673ffffffffffffffffffffffffffffffffffffffff167f8be0079c531659141344cd1fd0a4f28419497f9722a3daafe3b4186f6b6457e060405160405180910390a3806000806101000a81548173ffffffffffffffffffffffffffffffffffffffff021916908373ffffffffffffffffffffffffffffffffffffffff16021790555050565b6000614d0083836040518060400160405280601e81526020017f536166654d6174683a207375627472616374696f6e206f766572666c6f7700008152506157e6565b905092915050565b600080828401905083811015614d86576040517f08c379a000000000000000000000000000000000000000000000000000000000815260040180806020018281038252601b8152602001807f536166654d6174683a206164646974696f6e206f766572666c6f77000000000081525060200191505060405180910390fd5b8091505092915050565b600080600090505b614da061482b565b811015614e285760006007600085815260200190815260200160002060003373ffffffffffffffffffffffffffffffffffffffff1673ffffffffffffffffffffffffffffffffffffffff1681526020019081526020016000206000838152602001908152602001600020541115614e1b576000915050614e2e565b8080600101915050614d98565b50600190505b919050565b6000614e7583836040518060400160405280601a81526020017f536166654d6174683a206469766973696f6e206279207a65726f0000000000008152506158a6565b905092915050565b60008090505b60116000848152602001908152602001600020805490508110156150a1578173ffffffffffffffffffffffffffffffffffffffff16601160008581526020019081526020016000208281548110614ed657fe5b9060005260206000200160009054906101000a900473ffffffffffffffffffffffffffffffffffffffff1673ffffffffffffffffffffffffffffffffffffffff1614156150945760008190505b600160116000868152602001908152602001600020805490500381101561500357601160008581526020019081526020016000206001820181548110614f6557fe5b9060005260206000200160009054906101000a900473ffffffffffffffffffffffffffffffffffffffff16601160008681526020019081526020016000208281548110614fae57fe5b9060005260206000200160006101000a81548173ffffffffffffffffffffffffffffffffffffffff021916908373ffffffffffffffffffffffffffffffffffffffff1602179055508080600101915050614f23565b506011600084815260200190815260200160002060016011600086815260200190815260200160002080549050038154811061503b57fe5b9060005260206000200160006101000a81549073ffffffffffffffffffffffffffffffffffffffff02191690556011600084815260200190815260200160002080548091906001900361508e9190615a6c565b506150a1565b8080600101915050614e83565b5060008090505b601060008373ffffffffffffffffffffffffffffffffffffffff1673ffffffffffffffffffffffffffffffffffffffff168152602001908152602001600020805490508110156153615782601060008473ffffffffffffffffffffffffffffffffffffffff1673ffffffffffffffffffffffffffffffffffffffff168152602001908152602001600020828154811061513d57fe5b906000526020600020015414156153545760008190505b6001601060008573ffffffffffffffffffffffffffffffffffffffff1673ffffffffffffffffffffffffffffffffffffffff168152602001908152602001600020805490500381101561525e57601060008473ffffffffffffffffffffffffffffffffffffffff1673ffffffffffffffffffffffffffffffffffffffff16815260200190815260200160002060018201815481106151ee57fe5b9060005260206000200154601060008573ffffffffffffffffffffffffffffffffffffffff1673ffffffffffffffffffffffffffffffffffffffff168152602001908152602001600020828154811061524357fe5b90600052602060002001819055508080600101915050615154565b50601060008373ffffffffffffffffffffffffffffffffffffffff1673ffffffffffffffffffffffffffffffffffffffff1681526020019081526020016000206001601060008573ffffffffffffffffffffffffffffffffffffffff1673ffffffffffffffffffffffffffffffffffffffff1681526020019081526020016000208054905003815481106152ee57fe5b9060005260206000200160009055601060008373ffffffffffffffffffffffffffffffffffffffff1673ffffffffffffffffffffffffffffffffffffffff16815260200190815260200160002080548091906001900361534e9190615a98565b50615361565b80806001019150506150a8565b506000600f600084815260200190815260200160002060008373ffffffffffffffffffffffffffffffffffffffff1673ffffffffffffffffffffffffffffffffffffffff16815260200190815260200160002060000160006101000a81548160ff0219169083151502179055506000600f600084815260200190815260200160002060008373ffffffffffffffffffffffffffffffffffffffff1673ffffffffffffffffffffffffffffffffffffffff16815260200190815260200160002060000160026101000a81548160ff0219169083151502179055506000600f600084815260200190815260200160002060008373ffffffffffffffffffffffffffffffffffffffff1673ffffffffffffffffffffffffffffffffffffffff16815260200190815260200160002060000160016101000a81548160ff0219169083151502179055506000601360008373ffffffffffffffffffffffffffffffffffffffff1673ffffffffffffffffffffffffffffffffffffffff16815260200190815260200160002060006154fa6154f586614053565b615579565b8152602001908152602001600020819055506000601460008373ffffffffffffffffffffffffffffffffffffffff1673ffffffffffffffffffffffffffffffffffffffff168152602001908152602001600020600084815260200190815260200160002060006101000a81548160ff0219169083151502179055505050565b60008180519060200120600190049050919050565b6001600f600084815260200190815260200160002060008373ffffffffffffffffffffffffffffffffffffffff1673ffffffffffffffffffffffffffffffffffffffff16815260200190815260200160002060000160006101000a81548160ff021916908315150217905550601060008273ffffffffffffffffffffffffffffffffffffffff1673ffffffffffffffffffffffffffffffffffffffff168152602001908152602001600020829080600181540180825580915050906001820390600052602060002001600090919290919091505550601160008381526020019081526020016000208190806001815401808255809150509060018203906000526020600020016000909192909190916101000a81548173ffffffffffffffffffffffffffffffffffffffff021916908373ffffffffffffffffffffffffffffffffffffffff1602179055505081601360008373ffffffffffffffffffffffffffffffffffffffff1673ffffffffffffffffffffffffffffffffffffffff16815260200190815260200160002060006157d0600e60008781526020019081526020016000208054600181600116156101000203166002900480601f0160208091040260200160405190810160405280929190818152602001828054600181600116156101000203166002900480156157c65780601f1061579b576101008083540402835291602001916157c6565b820191906000526020600020905b8154815290600101906020018083116157a957829003601f168201915b5050505050615579565b8152602001908152602001600020819055505050565b6000838311158290615893576040517f08c379a00000000000000000000000000000000000000000000000000000000081526004018080602001828103825283818151815260200191508051906020019080838360005b8381101561585857808201518184015260208101905061583d565b50505050905090810190601f1680156158855780820380516001836020036101000a031916815260200191505b509250505060405180910390fd5b5060008385039050809150509392505050565b60008083118290615952576040517f08c379a00000000000000000000000000000000000000000000000000000000081526004018080602001828103825283818151815260200191508051906020019080838360005b838110156159175780820151818401526020810190506158fc565b50505050905090810190601f1680156159445780820380516001836020036101000a031916815260200191505b509250505060405180910390fd5b50600083858161595e57fe5b049050809150509392505050565b828054600181600116156101000203166002900490600052602060002090601f016020900481019282601f106159ad57805160ff19168380011785556159db565b828001600101855582156159db579182015b828111156159da5782518255916020019190600101906159bf565b5b5090506159e89190615ac4565b5090565b828054600181600116156101000203166002900490600052602060002090601f016020900481019282601f10615a2d57805160ff1916838001178555615a5b565b82800160010185558215615a5b579182015b82811115615a5a578251825591602001919060010190615a3f565b5b509050615a689190615ac4565b5090565b815481835581811115615a9357818360005260206000209182019101615a929190615ac4565b5b505050565b815481835581811115615abf57818360005260206000209182019101615abe9190615ac4565b5b505050565b615ae691905b80821115615ae2576000816000905550600101615aca565b5090565b9056fea265627a7a72315820c4d606c7c8d8aed78d6a7c33759bb01d6b1b50601c91a9e86ec0a2e4650296c564736f6c634300050b0032",
  "source": "pragma solidity ^0.5.0;\n\nimport \"./Administration.sol\";\n\ncontract Togethers is Administration {\n\n  event newDemand(uint indexed ID);\n  event payDemand(uint indexed ID);\n  event endDemand(uint indexed ID);\n\n  mapping (address => mapping (address => mapping (uint => uint))) public mappStatsPeerToPeer;\n  mapping (address => user) public mappAddressToUser;\n  mapping (uint => string) public mappGroupIDToGroupName;\n  mapping (uint => mapping (address => profile)) public mappProfileInGroup;\n  mapping (address => uint[]) public mappGroupsForAddress;\n  mapping (uint => address[]) public mappUsersInGroup;\n  mapping (uint => address) public checkNameUnicity;\n  mapping (address => mapping (uint => uint)) public checkGroupUnicity;\n  mapping (address => mapping (uint => bool)) public mappAskForAdd;\n\n  struct user\n  {\n    string name;\n    string pseudo;\n    string ipfsImage;\n    uint language;\n    uint blockNumber;\n  }\n\n  struct profile\n  {\n    bool isMember;\n    bool open;\n    bool owner;\n    uint DemandID;\n  }\n\n  constructor() public {\n    owner = msg.sender;\n    MAX = 100;\n    ID = 2;\n  }\n\n  function ask(uint _groupID) public\n  {\n    require(getUsersLength(_groupID) > 0);\n    require(mappAddressToUser[msg.sender].language != 0);\n    require(mappAskForAdd[msg.sender][_groupID] == false);\n    mappAskForAdd[msg.sender][_groupID] = true;\n  }\n\n  function transferGroupOwnership(uint _groupID, address newOwner) public\n  {\n    require(mappProfileInGroup[_groupID][msg.sender].owner == true);\n    require(mappProfileInGroup[_groupID][newOwner].isMember == true);\n    mappProfileInGroup[_groupID][msg.sender].owner = false;\n    mappProfileInGroup[_groupID][newOwner].owner = true;\n  }\n\n  function setUser(string memory _pseudo, string memory _ipfsImage, string memory _userName, uint _language) public\n  {\n    uint currentID = returnHash(_pseudo);\n    require(checkNameUnicity[currentID] == address(0));\n    checkNameUnicity[currentID] = msg.sender;\n    mappAskForAdd[msg.sender][currentID] = true;\n    mappAddressToUser[msg.sender].name = _userName;\n    mappAddressToUser[msg.sender].pseudo = _pseudo;\n    mappAddressToUser[msg.sender].language = _language;\n    mappAddressToUser[msg.sender].ipfsImage = _ipfsImage;\n  }\n\n  function createGroup(string memory _groupName) public\n  {\n    groupNumber += 1;\n    require(mappAddressToUser[msg.sender].language != 0);\n    require(checkGroupUnicity[msg.sender][returnHash(_groupName)] == 0);\n    mappProfileInGroup[groupNumber][msg.sender].owner = true;\n    mappGroupIDToGroupName[groupNumber] = _groupName;\n    addMember(groupNumber,msg.sender);\n  }\n\n  function addMember(uint _groupID, address _key) private\n  {\n    mappProfileInGroup[_groupID][_key].isMember = true;\n    mappGroupsForAddress[_key].push(_groupID);\n    mappUsersInGroup[_groupID].push(_key);\n    checkGroupUnicity[_key][returnHash(mappGroupIDToGroupName[_groupID])] = _groupID;\n  }\n\n  function createProfile(uint groupID, string memory _pseudo) public\n  {\n    uint currentID = returnHash(_pseudo);\n    address _publicKey = checkNameUnicity[currentID];\n    require(mappProfileInGroup[groupID][_publicKey].isMember == false);\n    require(mappProfileInGroup[groupID][msg.sender].owner == true);\n    require(mappAskForAdd[_publicKey][groupID] == true);\n    require(getGroupsLength() < MAX);\n    require(getUsersLength(groupID) < MAX);\n    addMember(groupID,_publicKey);\n  }\n\n  function askForFunds(uint groupID, string memory _description, uint _fees) public payable\n  {\n    require(msg.value == _fees);\n    require(mappProfileInGroup[groupID][msg.sender].open == false);\n    require(mappProfileInGroup[groupID][msg.sender].isMember == true);\n    box.add(_fees);\n    mappProfileInGroup[groupID][msg.sender].open = true;\n    mappProfileInGroup[groupID][msg.sender].DemandID = ID;\n    mappAddressToUser[msg.sender].blockNumber = block.number;\n    mappSpaceInfo[ID].language = mappAddressToUser[msg.sender].language;\n    mappSpaceInfo[ID].description = _description;\n    nbDemands += 1;\n    emit newDemand(ID);\n    ID += 1;\n    External2(getTokenAddress(1)).mintExternal(powerToken,tgtcAmount);\n  }\n\n  function payForFunds(address _publicKey,  uint groupID, uint _tokenAmount, uint _crypto, uint _fees) public payable\n  {\n    require(msg.value >= _fees);\n    require(mappProfileInGroup[groupID][_publicKey].open == true);\n    require(mappProfileInGroup[groupID][msg.sender].isMember == true);\n    require(_crypto < getSize() && disableCrypto[_crypto] == false);\n    uint amount;\n    if (_crypto == 0)\n    {\n      amount = msg.value.sub(_fees);\n    }\n    else\n    {\n      require(_tokenAmount != 0);\n      External2(getTokenAddress(_crypto)).transferFrom(msg.sender,address(this),_tokenAmount);\n      amount = _tokenAmount;\n    }\n    mappStatsPeerToPeer[msg.sender][_publicKey][_crypto].add(amount);\n    mappGiven[groupID][_publicKey][_crypto].add(amount);\n    box.add(_fees);\n    emit payDemand(ID);\n  }\n\n  function withdrawFunds(uint groupID) public returns (uint)\n  {\n    require(mappProfileInGroup[groupID][msg.sender].open == true);\n    uint bonus;\n    mappProfileInGroup[groupID][msg.sender].open = false;\n    if (checkIsEmpty(groupID) == false)\n    {\n      for(uint i = 0 ; i < getSize() ; i++)\n      {\n        if (mappGiven[groupID][msg.sender][i] > 0 && disableCrypto[i] == false)\n        {\n          if (i == 0)\n          {\n            msg.sender.transfer(mappGiven[groupID][msg.sender][i]);\n          }\n          else External2(getTokenAddress(i)).transfer(msg.sender,mappGiven[groupID][msg.sender][i]);\n          mappGiven[groupID][msg.sender][i] = 0;\n        }\n      }\n      if (block.number > mappAddressToUser[msg.sender].blockNumber)\n      {\n        bonus = box.div(nbDemands);\n        if (bonus != 0)\n        {\n          msg.sender.transfer(bonus);\n          box.sub(bonus);\n        }\n      }\n    }\n    emit endDemand(mappProfileInGroup[groupID][msg.sender].DemandID);\n    nbDemands -= 1;\n    return bonus;\n  }\n\n  function removeMember(address _publicKey, uint groupID) public\n  {\n    require(_publicKey != msg.sender);\n    require(mappProfileInGroup[groupID][msg.sender].owner == true);\n    require(mappProfileInGroup[groupID][_publicKey].isMember == true);\n    require(mappProfileInGroup[groupID][_publicKey].open == false);\n    deleteProfile(groupID,_publicKey);\n  }\n\n  function quitGroup(uint _groupID) public\n  {\n    require(mappProfileInGroup[_groupID][msg.sender].isMember == true);\n    require((mappProfileInGroup[_groupID][msg.sender].owner == true && mappUsersInGroup[_groupID].length == 1)\n    || (mappUsersInGroup[_groupID].length != 1 && mappProfileInGroup[_groupID][msg.sender].owner == false));\n    require(mappProfileInGroup[_groupID][msg.sender].open == false);\n    deleteProfile(_groupID,msg.sender);\n  }\n\n  function deleteProfile(uint _groupID, address _publicKey) private\n  {\n    for(uint i = 0 ; i < mappUsersInGroup[_groupID].length ; i++)\n    {\n      if (mappUsersInGroup[_groupID][i] == _publicKey)\n      {\n        for (uint k = i; k < mappUsersInGroup[_groupID].length-1; k++){\n            mappUsersInGroup[_groupID][k] = mappUsersInGroup[_groupID][k+1];\n        }\n        delete mappUsersInGroup[_groupID][mappUsersInGroup[_groupID].length-1];\n        mappUsersInGroup[_groupID].length --;\n        break;\n      }\n    }\n    for(uint j = 0 ; j < mappGroupsForAddress[_publicKey].length ; j++)\n    {\n      if (mappGroupsForAddress[_publicKey][j] == _groupID)\n      {\n        for (uint g = j; g < mappGroupsForAddress[_publicKey].length-1; g++){\n            mappGroupsForAddress[_publicKey][g] = mappGroupsForAddress[_publicKey][g+1];\n        }\n        delete mappGroupsForAddress[_publicKey][mappGroupsForAddress[_publicKey].length-1];\n        mappGroupsForAddress[_publicKey].length --;\n        break;\n      }\n    }\n    mappProfileInGroup[_groupID][_publicKey].isMember = false;\n    mappProfileInGroup[_groupID][_publicKey].owner = false;\n    mappProfileInGroup[_groupID][_publicKey].open = false;\n    checkGroupUnicity[_publicKey][returnHash(getGroup(_groupID))] = 0;\n    mappAskForAdd[_publicKey][_groupID] = false;\n  }\n\n  function getUserName(uint _group, uint _num) view public returns (string memory)\n  {\n    if (_num >= getUsersLength(_group))\n    {\n      return \"\";\n    }\n    return mappAddressToUser[mappUsersInGroup[_group][_num]].pseudo;\n  }\n\n  function getUserName2(uint _group, uint _num) view public returns (string memory)\n  {\n    if (_num >= getUsersLength(_group))\n    {\n      return \"\";\n    }\n    return mappAddressToUser[mappUsersInGroup[_group][_num]].name;\n  }\n\n  function getGroup(uint _num) view public returns (string memory)\n  {\n    return mappGroupIDToGroupName[mappGroupsForAddress[msg.sender][_num]];\n  }\n\n  function getUserAddress(uint _group, uint _num) view public returns (address)\n  {\n    if (_num >= getUsersLength(_group))\n    {\n      return address(0);\n    }\n    return mappUsersInGroup[_group][_num];\n  }\n\n  function getGroupID(uint _num) view public returns (uint)\n  {\n    return mappGroupsForAddress[msg.sender][_num];\n  }\n\n  function getGroupsLength() view public returns (uint)\n  {\n    return mappGroupsForAddress[msg.sender].length;\n  }\n\n  function getUsersLength(uint _group) view public returns (uint)\n  {\n    return mappUsersInGroup[_group].length;\n  }\n\n}\n",
  "sourcePath": "/Users/germaindacunha/Documents/GitHub/App_Togethers/contracts/main/Togethers.sol",
  "compiler": {
    "name": "solc",
    "version": "0.5.11+commit.c082d0b4.Emscripten.clang"
  },
  "schemaVersion": "3.0.9",
  "updatedAt": "2019-11-28T09:54:04.373Z",
  "devdoc": {
    "methods": {}
  },
  "userdoc": {
    "methods": {}
  }
}