{
  "contractName": "Administration",
  "abi": [
    {
      "constant": true,
      "inputs": [
        {
          "internalType": "uint256",
          "name": "",
          "type": "uint256"
        }
      ],
      "name": "stopCrypto",
      "outputs": [
        {
          "internalType": "bool",
          "name": "",
          "type": "bool"
        }
      ],
      "payable": false,
      "stateMutability": "view",
      "type": "function"
    },
    {
      "constant": true,
      "inputs": [],
      "name": "owner",
      "outputs": [
        {
          "internalType": "address",
          "name": "",
          "type": "address"
        }
      ],
      "payable": false,
      "stateMutability": "view",
      "type": "function"
    },
    {
      "constant": true,
      "inputs": [],
      "name": "TGTSToken",
      "outputs": [
        {
          "internalType": "contract External2",
          "name": "",
          "type": "address"
        }
      ],
      "payable": false,
      "stateMutability": "view",
      "type": "function"
    },
    {
      "constant": true,
      "inputs": [
        {
          "internalType": "uint256",
          "name": "",
          "type": "uint256"
        }
      ],
      "name": "disableCrypto",
      "outputs": [
        {
          "internalType": "bool",
          "name": "",
          "type": "bool"
        }
      ],
      "payable": false,
      "stateMutability": "view",
      "type": "function"
    },
    {
      "constant": true,
      "inputs": [],
      "name": "ID",
      "outputs": [
        {
          "internalType": "uint256",
          "name": "",
          "type": "uint256"
        }
      ],
      "payable": false,
      "stateMutability": "view",
      "type": "function"
    },
    {
      "constant": true,
      "inputs": [],
      "name": "tgtcAmount",
      "outputs": [
        {
          "internalType": "uint256",
          "name": "",
          "type": "uint256"
        }
      ],
      "payable": false,
      "stateMutability": "view",
      "type": "function"
    },
    {
      "constant": false,
      "inputs": [
        {
          "internalType": "address",
          "name": "newOwner",
          "type": "address"
        }
      ],
      "name": "transferOwnership",
      "outputs": [],
      "payable": false,
      "stateMutability": "nonpayable",
      "type": "function"
    },
    {
      "constant": true,
      "inputs": [],
      "name": "TGTCToken",
      "outputs": [
        {
          "internalType": "contract External2",
          "name": "",
          "type": "address"
        }
      ],
      "payable": false,
      "stateMutability": "view",
      "type": "function"
    },
    {
      "anonymous": false,
      "inputs": [
        {
          "indexed": true,
          "internalType": "address",
          "name": "previousOwner",
          "type": "address"
        },
        {
          "indexed": true,
          "internalType": "address",
          "name": "newOwner",
          "type": "address"
        }
      ],
      "name": "OwnershipTransferred",
      "type": "event"
    },
    {
      "constant": false,
      "inputs": [
        {
          "internalType": "string",
          "name": "name",
          "type": "string"
        },
        {
          "internalType": "string",
          "name": "symbol",
          "type": "string"
        },
        {
          "internalType": "address",
          "name": "_address",
          "type": "address"
        },
        {
          "internalType": "uint256",
          "name": "decimal",
          "type": "uint256"
        }
      ],
      "name": "useNewToken",
      "outputs": [],
      "payable": false,
      "stateMutability": "nonpayable",
      "type": "function"
    },
    {
      "constant": true,
      "inputs": [
        {
          "internalType": "uint256",
          "name": "index",
          "type": "uint256"
        }
      ],
      "name": "getTokenAddress",
      "outputs": [
        {
          "internalType": "address",
          "name": "",
          "type": "address"
        }
      ],
      "payable": false,
      "stateMutability": "view",
      "type": "function"
    },
    {
      "constant": true,
      "inputs": [
        {
          "internalType": "uint256",
          "name": "index",
          "type": "uint256"
        }
      ],
      "name": "getTokenDecimal",
      "outputs": [
        {
          "internalType": "uint256",
          "name": "",
          "type": "uint256"
        }
      ],
      "payable": false,
      "stateMutability": "view",
      "type": "function"
    },
    {
      "constant": true,
      "inputs": [
        {
          "internalType": "uint256",
          "name": "index",
          "type": "uint256"
        }
      ],
      "name": "getTokenSymbol",
      "outputs": [
        {
          "internalType": "string",
          "name": "",
          "type": "string"
        }
      ],
      "payable": false,
      "stateMutability": "view",
      "type": "function"
    },
    {
      "constant": true,
      "inputs": [
        {
          "internalType": "uint256",
          "name": "index",
          "type": "uint256"
        }
      ],
      "name": "getTokenName",
      "outputs": [
        {
          "internalType": "string",
          "name": "",
          "type": "string"
        }
      ],
      "payable": false,
      "stateMutability": "view",
      "type": "function"
    },
    {
      "constant": true,
      "inputs": [],
      "name": "getSize",
      "outputs": [
        {
          "internalType": "uint256",
          "name": "",
          "type": "uint256"
        }
      ],
      "payable": false,
      "stateMutability": "view",
      "type": "function"
    },
    {
      "constant": false,
      "inputs": [
        {
          "internalType": "uint256",
          "name": "_index",
          "type": "uint256"
        }
      ],
      "name": "enableCrypto",
      "outputs": [],
      "payable": false,
      "stateMutability": "nonpayable",
      "type": "function"
    },
    {
      "constant": false,
      "inputs": [
        {
          "internalType": "uint256",
          "name": "_index",
          "type": "uint256"
        }
      ],
      "name": "protectCrypto",
      "outputs": [],
      "payable": false,
      "stateMutability": "nonpayable",
      "type": "function"
    }
  ],
  "bytecode": "0x608060405234801561001057600080fd5b50610f8a806100206000396000f3fe608060405234801561001057600080fd5b506004361061011d576000357c010000000000000000000000000000000000000000000000000000000090048063a4c66c53116100b4578063dbe16c0711610083578063dbe16c07146105ad578063de8fa43114610654578063f2fde38b14610672578063f75cc56b146106b65761011d565b8063a4c66c53146104e9578063b3cea2171461052f578063d39eda2a1461054d578063db0c6dc21461058f5761011d565b80637b78bd3f116100f05780637b78bd3f146103805780638da5cb5b146104275780638e9d2bb4146104715780639498b37a146104bb5761011d565b8063146e3a16146101225780634004db20146101505780635d641b67146102cc57806367ccdf3814610312575b600080fd5b61014e6004803603602081101561013857600080fd5b8101908080359060200190929190505050610700565b005b6102ca6004803603608081101561016657600080fd5b810190808035906020019064010000000081111561018357600080fd5b82018360208201111561019557600080fd5b803590602001918460018302840111640100000000831117156101b757600080fd5b91908080601f016020809104026020016040519081016040528093929190818152602001838380828437600081840152601f19601f8201169050808301925050505050505091929192908035906020019064010000000081111561021a57600080fd5b82018360208201111561022c57600080fd5b8035906020019184600183028401116401000000008311171561024e57600080fd5b91908080601f016020809104026020016040519081016040528093929190818152602001838380828437600081840152601f19601f820116905080830192505050505050509192919290803573ffffffffffffffffffffffffffffffffffffffff16906020019092919080359060200190929190505050610813565b005b6102f8600480360360208110156102e257600080fd5b810190808035906020019092919050505061099e565b604051808215151515815260200191505060405180910390f35b61033e6004803603602081101561032857600080fd5b81019080803590602001909291905050506109be565b604051808273ffffffffffffffffffffffffffffffffffffffff1673ffffffffffffffffffffffffffffffffffffffff16815260200191505060405180910390f35b6103ac6004803603602081101561039657600080fd5b8101908080359060200190929190505050610a06565b6040518080602001828103825283818151815260200191508051906020019080838360005b838110156103ec5780820151818401526020810190506103d1565b50505050905090810190601f1680156104195780820380516001836020036101000a031916815260200191505b509250505060405180910390f35b61042f610ac6565b604051808273ffffffffffffffffffffffffffffffffffffffff1673ffffffffffffffffffffffffffffffffffffffff16815260200191505060405180910390f35b610479610aeb565b604051808273ffffffffffffffffffffffffffffffffffffffff1673ffffffffffffffffffffffffffffffffffffffff16815260200191505060405180910390f35b6104e7600480360360208110156104d157600080fd5b8101908080359060200190929190505050610b11565b005b610515600480360360208110156104ff57600080fd5b8101908080359060200190929190505050610c28565b604051808215151515815260200191505060405180910390f35b610537610c48565b6040518082815260200191505060405180910390f35b6105796004803603602081101561056357600080fd5b8101908080359060200190929190505050610c4e565b6040518082815260200191505060405180910390f35b610597610c76565b6040518082815260200191505060405180910390f35b6105d9600480360360208110156105c357600080fd5b8101908080359060200190929190505050610c82565b6040518080602001828103825283818151815260200191508051906020019080838360005b838110156106195780820151818401526020810190506105fe565b50505050905090810190601f1680156106465780820380516001836020036101000a031916815260200191505b509250505060405180910390f35b61065c610d42565b6040518082815260200191505060405180910390f35b6106b46004803603602081101561068857600080fd5b81019080803573ffffffffffffffffffffffffffffffffffffffff169060200190929190505050610d4f565b005b6106be610e8a565b604051808273ffffffffffffffffffffffffffffffffffffffff1673ffffffffffffffffffffffffffffffffffffffff16815260200191505060405180910390f35b6000809054906101000a900473ffffffffffffffffffffffffffffffffffffffff1673ffffffffffffffffffffffffffffffffffffffff163373ffffffffffffffffffffffffffffffffffffffff161461075957600080fd5b600015156004600083815260200190815260200160002060009054906101000a900460ff16151514156107b75760016004600083815260200190815260200160002060006101000a81548160ff021916908315150217905550610810565b60006004600083815260200190815260200160002060006101000a81548160ff02191690831515021790555060006005600083815260200190815260200160002060006101000a81548160ff0219169083151502179055505b50565b6000809054906101000a900473ffffffffffffffffffffffffffffffffffffffff1673ffffffffffffffffffffffffffffffffffffffff163373ffffffffffffffffffffffffffffffffffffffff161461086c57600080fd5b600073ffffffffffffffffffffffffffffffffffffffff168273ffffffffffffffffffffffffffffffffffffffff1614156108a657600080fd5b600660405180608001604052808681526020018581526020018473ffffffffffffffffffffffffffffffffffffffff16815260200183815250908060018154018082558091505090600182039060005260206000209060040201600090919290919091506000820151816000019080519060200190610926929190610eb0565b506020820151816001019080519060200190610943929190610eb0565b5060408201518160020160006101000a81548173ffffffffffffffffffffffffffffffffffffffff021916908373ffffffffffffffffffffffffffffffffffffffff1602179055506060820151816003015550505050505050565b60056020528060005260406000206000915054906101000a900460ff1681565b6000600682815481106109cd57fe5b906000526020600020906004020160020160009054906101000a900473ffffffffffffffffffffffffffffffffffffffff169050919050565b606060068281548110610a1557fe5b90600052602060002090600402016001018054600181600116156101000203166002900480601f016020809104026020016040519081016040528092919081815260200182805460018160011615610100020316600290048015610aba5780601f10610a8f57610100808354040283529160200191610aba565b820191906000526020600020905b815481529060010190602001808311610a9d57829003601f168201915b50505050509050919050565b6000809054906101000a900473ffffffffffffffffffffffffffffffffffffffff1681565b600260009054906101000a900473ffffffffffffffffffffffffffffffffffffffff1681565b6000809054906101000a900473ffffffffffffffffffffffffffffffffffffffff1673ffffffffffffffffffffffffffffffffffffffff163373ffffffffffffffffffffffffffffffffffffffff1614610b6a57600080fd5b600015156005600083815260200190815260200160002060009054906101000a900460ff161515148015610bc25750600115156004600083815260200190815260200160002060009054906101000a900460ff161515145b15610bf85760016005600083815260200190815260200160002060006101000a81548160ff021916908315150217905550610c25565b60006005600083815260200190815260200160002060006101000a81548160ff0219169083151502179055505b50565b60046020528060005260406000206000915054906101000a900460ff1681565b60035481565b600060068281548110610c5d57fe5b9060005260206000209060040201600301549050919050565b670de0b6b3a764000081565b606060068281548110610c9157fe5b90600052602060002090600402016000018054600181600116156101000203166002900480601f016020809104026020016040519081016040528092919081815260200182805460018160011615610100020316600290048015610d365780601f10610d0b57610100808354040283529160200191610d36565b820191906000526020600020905b815481529060010190602001808311610d1957829003601f168201915b50505050509050919050565b6000600680549050905090565b6000809054906101000a900473ffffffffffffffffffffffffffffffffffffffff1673ffffffffffffffffffffffffffffffffffffffff163373ffffffffffffffffffffffffffffffffffffffff1614610da857600080fd5b60658173ffffffffffffffffffffffffffffffffffffffff163114610dcc57600080fd5b8073ffffffffffffffffffffffffffffffffffffffff166000809054906101000a900473ffffffffffffffffffffffffffffffffffffffff1673ffffffffffffffffffffffffffffffffffffffff167f8be0079c531659141344cd1fd0a4f28419497f9722a3daafe3b4186f6b6457e060405160405180910390a3806000806101000a81548173ffffffffffffffffffffffffffffffffffffffff021916908373ffffffffffffffffffffffffffffffffffffffff16021790555050565b600160009054906101000a900473ffffffffffffffffffffffffffffffffffffffff1681565b828054600181600116156101000203166002900490600052602060002090601f016020900481019282601f10610ef157805160ff1916838001178555610f1f565b82800160010185558215610f1f579182015b82811115610f1e578251825591602001919060010190610f03565b5b509050610f2c9190610f30565b5090565b610f5291905b80821115610f4e576000816000905550600101610f36565b5090565b9056fea265627a7a72315820ee36c14a21d997bf1523bc50a725950e874b080c9d01a1f7dd567f7d0697c71f64736f6c634300050b0032",
  "source": "pragma solidity ^0.5.0;\n\nimport \"../owner/Ownable.sol\";\nimport \"../technical/SafeMath.sol\";\n\ninterface External2 {\n  function totalSupply() external view returns (uint256);\n  function balanceOf(address who) external view returns (uint256);\n  function mintExternal(address account, uint256 value) external returns (bool);\n  function transferFrom(address from, address to, uint256 value) external returns (bool);\n  function transfer(address to, uint256 value) external returns (bool);\n  function approve(address spender, uint256 value) external returns (bool);\n  function getApproved(uint256 tokenId) external view returns (address);\n  function ID() external view returns (uint);\n}\n\ncontract Administration is Ownable {\n\n  External2 public TGTCToken;\n  External2 public TGTSToken;\n\n  using SafeMath for uint256;\n\n  uint public ID;\n\n  uint constant public tgtcAmount = 1000000000000000000;\n\n  mapping (uint => bool) public disableCrypto;\n  mapping (uint => bool) public stopCrypto;\n\n  Token[] list;\n\n  struct Token\n  {\n    string name;\n    string symbol;\n    address ID;\n    uint decimal;\n  }\n\n  function useNewToken(string memory name, string memory symbol, address _address, uint decimal) public onlyOwner\n  {\n    require(_address != address(0));\n    list.push(Token(name,symbol,_address,decimal));\n  }\n\n  function getTokenAddress(uint256 index) public view returns (address)\n  {\n    return list[index].ID;\n  }\n\n  function getTokenDecimal(uint256 index) public view returns (uint)\n  {\n    return list[index].decimal;\n  }\n\n  function getTokenSymbol(uint256 index) public view returns (string memory)\n  {\n    return list[index].symbol;\n  }\n\n  function getTokenName(uint256 index) public view returns (string memory)\n  {\n    return list[index].name;\n  }\n\n  function getSize() public view returns (uint)\n  {\n    return list.length;\n  }\n\n  function enableCrypto(uint _index) public onlyOwner\n  {\n    if (disableCrypto[_index] == false)\n    {\n      disableCrypto[_index] = true;\n    }\n    else\n    {\n      disableCrypto[_index] = false;\n      stopCrypto[_index] = false;\n    }\n  }\n\n  function switchReward() internal view returns (uint)\n  {\n    uint tgtcReward;\n    if (ID < 100)\n    {\n      tgtcReward = tgtcAmount.mul(10000);\n    }\n    if (100 >= ID && ID < 1000)\n    {\n      tgtcReward = tgtcAmount.mul(1000);\n    }\n    if (1000 >= ID && ID < 10000)\n    {\n      tgtcReward = tgtcAmount.mul(100);\n    }\n    if (10000 >= ID && ID < 100000)\n    {\n      tgtcReward = tgtcAmount.mul(10);\n    }\n    else\n    {\n      tgtcReward = tgtcAmount;\n    }\n    return tgtcReward;\n  }\n\n  function protectCrypto(uint _index) public onlyOwner\n  {\n    if (stopCrypto[_index] == false && disableCrypto[_index] == true)\n    {\n      stopCrypto[_index] = true;\n    }\n    else stopCrypto[_index] = false;\n  }\n\n}\n",
  "sourcePath": "/Users/germaindacunha/Documents/GitHub/App_Togethers/contracts/main/Administration.sol",
  "compiler": {
    "name": "solc",
    "version": "0.5.11+commit.c082d0b4.Emscripten.clang"
  },
  "schemaVersion": "3.0.9",
  "updatedAt": "2019-11-19T14:34:30.604Z",
  "devdoc": {
    "methods": {
      "transferOwnership(address)": {
        "details": "Allows the current owner to transfer control of the contract to a newOwner.",
        "params": {
          "newOwner": "The address to transfer ownership to."
        }
      }
    }
  },
  "userdoc": {
    "methods": {}
  }
}