{
  "contractName": "SpaceManager",
  "abi": [
    {
      "constant": true,
      "inputs": [
        {
          "internalType": "bytes4",
          "name": "interfaceId",
          "type": "bytes4"
        }
      ],
      "name": "supportsInterface",
      "outputs": [
        {
          "internalType": "bool",
          "name": "",
          "type": "bool"
        }
      ],
      "payable": false,
      "stateMutability": "view",
      "type": "function"
    },
    {
      "constant": true,
      "inputs": [
        {
          "internalType": "uint256",
          "name": "tokenId",
          "type": "uint256"
        }
      ],
      "name": "getApproved",
      "outputs": [
        {
          "internalType": "address",
          "name": "",
          "type": "address"
        }
      ],
      "payable": false,
      "stateMutability": "view",
      "type": "function"
    },
    {
      "constant": false,
      "inputs": [
        {
          "internalType": "address",
          "name": "to",
          "type": "address"
        },
        {
          "internalType": "uint256",
          "name": "tokenId",
          "type": "uint256"
        }
      ],
      "name": "approve",
      "outputs": [],
      "payable": false,
      "stateMutability": "nonpayable",
      "type": "function"
    },
    {
      "constant": true,
      "inputs": [
        {
          "internalType": "address",
          "name": "",
          "type": "address"
        }
      ],
      "name": "mappSociety",
      "outputs": [
        {
          "internalType": "string",
          "name": "name",
          "type": "string"
        },
        {
          "internalType": "uint256",
          "name": "ID",
          "type": "uint256"
        },
        {
          "internalType": "uint256",
          "name": "SIRET",
          "type": "uint256"
        },
        {
          "internalType": "string",
          "name": "signatory",
          "type": "string"
        },
        {
          "internalType": "string",
          "name": "email",
          "type": "string"
        }
      ],
      "payable": false,
      "stateMutability": "view",
      "type": "function"
    },
    {
      "constant": false,
      "inputs": [
        {
          "internalType": "address",
          "name": "from",
          "type": "address"
        },
        {
          "internalType": "address",
          "name": "to",
          "type": "address"
        },
        {
          "internalType": "uint256",
          "name": "tokenId",
          "type": "uint256"
        }
      ],
      "name": "transferFrom",
      "outputs": [],
      "payable": false,
      "stateMutability": "nonpayable",
      "type": "function"
    },
    {
      "constant": true,
      "inputs": [
        {
          "internalType": "uint256",
          "name": "",
          "type": "uint256"
        }
      ],
      "name": "balckList",
      "outputs": [
        {
          "internalType": "bool",
          "name": "isBlacklisted",
          "type": "bool"
        },
        {
          "internalType": "string",
          "name": "reason",
          "type": "string"
        }
      ],
      "payable": false,
      "stateMutability": "view",
      "type": "function"
    },
    {
      "constant": true,
      "inputs": [
        {
          "internalType": "uint256",
          "name": "tokenId",
          "type": "uint256"
        }
      ],
      "name": "ownerOf",
      "outputs": [
        {
          "internalType": "address",
          "name": "",
          "type": "address"
        }
      ],
      "payable": false,
      "stateMutability": "view",
      "type": "function"
    },
    {
      "constant": true,
      "inputs": [
        {
          "internalType": "address",
          "name": "owner",
          "type": "address"
        }
      ],
      "name": "balanceOf",
      "outputs": [
        {
          "internalType": "uint256",
          "name": "",
          "type": "uint256"
        }
      ],
      "payable": false,
      "stateMutability": "view",
      "type": "function"
    },
    {
      "constant": true,
      "inputs": [
        {
          "internalType": "uint256",
          "name": "",
          "type": "uint256"
        }
      ],
      "name": "lockedSpace",
      "outputs": [
        {
          "internalType": "address",
          "name": "",
          "type": "address"
        }
      ],
      "payable": false,
      "stateMutability": "view",
      "type": "function"
    },
    {
      "constant": true,
      "inputs": [
        {
          "internalType": "uint256",
          "name": "",
          "type": "uint256"
        }
      ],
      "name": "mappIDSocietyToHash",
      "outputs": [
        {
          "internalType": "uint256",
          "name": "",
          "type": "uint256"
        }
      ],
      "payable": false,
      "stateMutability": "view",
      "type": "function"
    },
    {
      "constant": true,
      "inputs": [
        {
          "internalType": "uint256",
          "name": "",
          "type": "uint256"
        }
      ],
      "name": "isApproved",
      "outputs": [
        {
          "internalType": "bool",
          "name": "",
          "type": "bool"
        }
      ],
      "payable": false,
      "stateMutability": "view",
      "type": "function"
    },
    {
      "constant": true,
      "inputs": [
        {
          "internalType": "uint256",
          "name": "",
          "type": "uint256"
        }
      ],
      "name": "urls",
      "outputs": [
        {
          "internalType": "string",
          "name": "",
          "type": "string"
        }
      ],
      "payable": false,
      "stateMutability": "view",
      "type": "function"
    },
    {
      "constant": true,
      "inputs": [
        {
          "internalType": "address",
          "name": "",
          "type": "address"
        },
        {
          "internalType": "uint256",
          "name": "",
          "type": "uint256"
        }
      ],
      "name": "mappSpacesList",
      "outputs": [
        {
          "internalType": "uint256",
          "name": "",
          "type": "uint256"
        }
      ],
      "payable": false,
      "stateMutability": "view",
      "type": "function"
    },
    {
      "constant": true,
      "inputs": [],
      "name": "TGTCPrice",
      "outputs": [
        {
          "internalType": "uint256",
          "name": "",
          "type": "uint256"
        }
      ],
      "payable": false,
      "stateMutability": "view",
      "type": "function"
    },
    {
      "constant": true,
      "inputs": [
        {
          "internalType": "uint256",
          "name": "",
          "type": "uint256"
        }
      ],
      "name": "mappPassword",
      "outputs": [
        {
          "internalType": "uint256",
          "name": "",
          "type": "uint256"
        }
      ],
      "payable": false,
      "stateMutability": "view",
      "type": "function"
    },
    {
      "constant": true,
      "inputs": [],
      "name": "owner",
      "outputs": [
        {
          "internalType": "address",
          "name": "",
          "type": "address"
        }
      ],
      "payable": false,
      "stateMutability": "view",
      "type": "function"
    },
    {
      "constant": false,
      "inputs": [
        {
          "internalType": "address",
          "name": "to",
          "type": "address"
        },
        {
          "internalType": "bool",
          "name": "approved",
          "type": "bool"
        }
      ],
      "name": "setApprovalForAll",
      "outputs": [],
      "payable": false,
      "stateMutability": "nonpayable",
      "type": "function"
    },
    {
      "constant": true,
      "inputs": [],
      "name": "ID",
      "outputs": [
        {
          "internalType": "uint256",
          "name": "",
          "type": "uint256"
        }
      ],
      "payable": false,
      "stateMutability": "view",
      "type": "function"
    },
    {
      "constant": true,
      "inputs": [],
      "name": "MainContract",
      "outputs": [
        {
          "internalType": "contract External1",
          "name": "",
          "type": "address"
        }
      ],
      "payable": false,
      "stateMutability": "view",
      "type": "function"
    },
    {
      "constant": true,
      "inputs": [
        {
          "internalType": "uint256",
          "name": "",
          "type": "uint256"
        }
      ],
      "name": "checkedSociety",
      "outputs": [
        {
          "internalType": "address",
          "name": "",
          "type": "address"
        }
      ],
      "payable": false,
      "stateMutability": "view",
      "type": "function"
    },
    {
      "constant": true,
      "inputs": [
        {
          "internalType": "address",
          "name": "owner",
          "type": "address"
        },
        {
          "internalType": "address",
          "name": "operator",
          "type": "address"
        }
      ],
      "name": "isApprovedForAll",
      "outputs": [
        {
          "internalType": "bool",
          "name": "",
          "type": "bool"
        }
      ],
      "payable": false,
      "stateMutability": "view",
      "type": "function"
    },
    {
      "constant": false,
      "inputs": [
        {
          "internalType": "address",
          "name": "newOwner",
          "type": "address"
        }
      ],
      "name": "transferOwnership",
      "outputs": [],
      "payable": false,
      "stateMutability": "nonpayable",
      "type": "function"
    },
    {
      "constant": true,
      "inputs": [],
      "name": "TGTCToken",
      "outputs": [
        {
          "internalType": "contract External1",
          "name": "",
          "type": "address"
        }
      ],
      "payable": false,
      "stateMutability": "view",
      "type": "function"
    },
    {
      "constant": true,
      "inputs": [],
      "name": "MaxTokenCount",
      "outputs": [
        {
          "internalType": "uint256",
          "name": "",
          "type": "uint256"
        }
      ],
      "payable": false,
      "stateMutability": "view",
      "type": "function"
    },
    {
      "inputs": [
        {
          "internalType": "address",
          "name": "tgtc",
          "type": "address"
        },
        {
          "internalType": "address",
          "name": "main",
          "type": "address"
        }
      ],
      "payable": false,
      "stateMutability": "nonpayable",
      "type": "constructor"
    },
    {
      "anonymous": false,
      "inputs": [
        {
          "indexed": true,
          "internalType": "address",
          "name": "from",
          "type": "address"
        },
        {
          "indexed": true,
          "internalType": "uint256",
          "name": "ID",
          "type": "uint256"
        }
      ],
      "name": "newSociety",
      "type": "event"
    },
    {
      "anonymous": false,
      "inputs": [
        {
          "indexed": true,
          "internalType": "address",
          "name": "from",
          "type": "address"
        },
        {
          "indexed": false,
          "internalType": "bool",
          "name": "decision",
          "type": "bool"
        }
      ],
      "name": "decision",
      "type": "event"
    },
    {
      "anonymous": false,
      "inputs": [
        {
          "indexed": true,
          "internalType": "address",
          "name": "previousOwner",
          "type": "address"
        },
        {
          "indexed": true,
          "internalType": "address",
          "name": "newOwner",
          "type": "address"
        }
      ],
      "name": "OwnershipTransferred",
      "type": "event"
    },
    {
      "anonymous": false,
      "inputs": [
        {
          "indexed": true,
          "internalType": "address",
          "name": "from",
          "type": "address"
        },
        {
          "indexed": true,
          "internalType": "address",
          "name": "to",
          "type": "address"
        },
        {
          "indexed": true,
          "internalType": "uint256",
          "name": "tokenId",
          "type": "uint256"
        }
      ],
      "name": "Transfer",
      "type": "event"
    },
    {
      "anonymous": false,
      "inputs": [
        {
          "indexed": true,
          "internalType": "address",
          "name": "owner",
          "type": "address"
        },
        {
          "indexed": true,
          "internalType": "address",
          "name": "approved",
          "type": "address"
        },
        {
          "indexed": true,
          "internalType": "uint256",
          "name": "tokenId",
          "type": "uint256"
        }
      ],
      "name": "Approval",
      "type": "event"
    },
    {
      "anonymous": false,
      "inputs": [
        {
          "indexed": true,
          "internalType": "address",
          "name": "owner",
          "type": "address"
        },
        {
          "indexed": true,
          "internalType": "address",
          "name": "operator",
          "type": "address"
        },
        {
          "indexed": false,
          "internalType": "bool",
          "name": "approved",
          "type": "bool"
        }
      ],
      "name": "ApprovalForAll",
      "type": "event"
    },
    {
      "constant": false,
      "inputs": [
        {
          "internalType": "address",
          "name": "_spaceOperator",
          "type": "address"
        }
      ],
      "name": "setSpaceOperator",
      "outputs": [],
      "payable": false,
      "stateMutability": "nonpayable",
      "type": "function"
    },
    {
      "constant": false,
      "inputs": [
        {
          "internalType": "uint256",
          "name": "_max",
          "type": "uint256"
        }
      ],
      "name": "changeMaxTokenCount",
      "outputs": [],
      "payable": false,
      "stateMutability": "nonpayable",
      "type": "function"
    },
    {
      "constant": true,
      "inputs": [
        {
          "internalType": "uint256",
          "name": "_space",
          "type": "uint256"
        }
      ],
      "name": "getSpaceInfoName",
      "outputs": [
        {
          "internalType": "string",
          "name": "",
          "type": "string"
        }
      ],
      "payable": false,
      "stateMutability": "view",
      "type": "function"
    },
    {
      "constant": true,
      "inputs": [
        {
          "internalType": "uint256",
          "name": "_space",
          "type": "uint256"
        }
      ],
      "name": "getSpaceInfoSIRET",
      "outputs": [
        {
          "internalType": "uint256",
          "name": "",
          "type": "uint256"
        }
      ],
      "payable": false,
      "stateMutability": "view",
      "type": "function"
    },
    {
      "constant": true,
      "inputs": [
        {
          "internalType": "address",
          "name": "_society",
          "type": "address"
        }
      ],
      "name": "getNBSpaces",
      "outputs": [
        {
          "internalType": "uint256",
          "name": "",
          "type": "uint256"
        }
      ],
      "payable": false,
      "stateMutability": "view",
      "type": "function"
    },
    {
      "constant": true,
      "inputs": [
        {
          "internalType": "address",
          "name": "_society",
          "type": "address"
        }
      ],
      "name": "getSocietyName",
      "outputs": [
        {
          "internalType": "string",
          "name": "",
          "type": "string"
        }
      ],
      "payable": false,
      "stateMutability": "view",
      "type": "function"
    },
    {
      "constant": true,
      "inputs": [
        {
          "internalType": "address",
          "name": "_society",
          "type": "address"
        }
      ],
      "name": "getSocietyID",
      "outputs": [
        {
          "internalType": "uint256",
          "name": "",
          "type": "uint256"
        }
      ],
      "payable": false,
      "stateMutability": "view",
      "type": "function"
    },
    {
      "constant": true,
      "inputs": [
        {
          "internalType": "address",
          "name": "_society",
          "type": "address"
        }
      ],
      "name": "getSocietyEmail",
      "outputs": [
        {
          "internalType": "string",
          "name": "",
          "type": "string"
        }
      ],
      "payable": false,
      "stateMutability": "view",
      "type": "function"
    },
    {
      "constant": true,
      "inputs": [
        {
          "internalType": "address",
          "name": "_society",
          "type": "address"
        }
      ],
      "name": "getSocietySignatory",
      "outputs": [
        {
          "internalType": "string",
          "name": "",
          "type": "string"
        }
      ],
      "payable": false,
      "stateMutability": "view",
      "type": "function"
    },
    {
      "constant": true,
      "inputs": [
        {
          "internalType": "address",
          "name": "_society",
          "type": "address"
        }
      ],
      "name": "getSocietySIRET",
      "outputs": [
        {
          "internalType": "uint256",
          "name": "",
          "type": "uint256"
        }
      ],
      "payable": false,
      "stateMutability": "view",
      "type": "function"
    },
    {
      "constant": false,
      "inputs": [],
      "name": "getLastSpaceID",
      "outputs": [
        {
          "internalType": "uint256",
          "name": "",
          "type": "uint256"
        }
      ],
      "payable": false,
      "stateMutability": "nonpayable",
      "type": "function"
    },
    {
      "constant": false,
      "inputs": [
        {
          "internalType": "string",
          "name": "password",
          "type": "string"
        },
        {
          "internalType": "string",
          "name": "name",
          "type": "string"
        },
        {
          "internalType": "uint256",
          "name": "SIRET",
          "type": "uint256"
        },
        {
          "internalType": "string",
          "name": "signatory",
          "type": "string"
        },
        {
          "internalType": "string",
          "name": "email",
          "type": "string"
        }
      ],
      "name": "registerSociety",
      "outputs": [],
      "payable": false,
      "stateMutability": "nonpayable",
      "type": "function"
    },
    {
      "constant": false,
      "inputs": [
        {
          "internalType": "uint256",
          "name": "SIRET",
          "type": "uint256"
        },
        {
          "internalType": "string",
          "name": "password",
          "type": "string"
        }
      ],
      "name": "givePassword",
      "outputs": [],
      "payable": false,
      "stateMutability": "nonpayable",
      "type": "function"
    },
    {
      "constant": false,
      "inputs": [
        {
          "internalType": "uint256",
          "name": "_ID",
          "type": "uint256"
        }
      ],
      "name": "approveSociety",
      "outputs": [],
      "payable": false,
      "stateMutability": "nonpayable",
      "type": "function"
    },
    {
      "constant": false,
      "inputs": [
        {
          "internalType": "uint256",
          "name": "_ID",
          "type": "uint256"
        },
        {
          "internalType": "string",
          "name": "_reason",
          "type": "string"
        }
      ],
      "name": "blackListSociety",
      "outputs": [],
      "payable": false,
      "stateMutability": "nonpayable",
      "type": "function"
    },
    {
      "constant": true,
      "inputs": [
        {
          "internalType": "uint256",
          "name": "_ID",
          "type": "uint256"
        }
      ],
      "name": "getBlackListState",
      "outputs": [
        {
          "internalType": "bool",
          "name": "",
          "type": "bool"
        }
      ],
      "payable": false,
      "stateMutability": "view",
      "type": "function"
    },
    {
      "constant": false,
      "inputs": [],
      "name": "getMoney",
      "outputs": [],
      "payable": false,
      "stateMutability": "nonpayable",
      "type": "function"
    },
    {
      "constant": false,
      "inputs": [
        {
          "internalType": "uint256",
          "name": "price",
          "type": "uint256"
        }
      ],
      "name": "modifyTGTCPrice",
      "outputs": [],
      "payable": false,
      "stateMutability": "nonpayable",
      "type": "function"
    },
    {
      "constant": false,
      "inputs": [
        {
          "internalType": "uint256",
          "name": "amount",
          "type": "uint256"
        }
      ],
      "name": "putTGTCs",
      "outputs": [],
      "payable": false,
      "stateMutability": "nonpayable",
      "type": "function"
    },
    {
      "constant": false,
      "inputs": [
        {
          "internalType": "uint256",
          "name": "amount",
          "type": "uint256"
        }
      ],
      "name": "getTGTCs",
      "outputs": [],
      "payable": true,
      "stateMutability": "payable",
      "type": "function"
    },
    {
      "constant": true,
      "inputs": [
        {
          "internalType": "uint256",
          "name": "_ID",
          "type": "uint256"
        }
      ],
      "name": "getBlackListReason",
      "outputs": [
        {
          "internalType": "string",
          "name": "",
          "type": "string"
        }
      ],
      "payable": false,
      "stateMutability": "view",
      "type": "function"
    },
    {
      "constant": false,
      "inputs": [
        {
          "internalType": "uint256[]",
          "name": "space",
          "type": "uint256[]"
        },
        {
          "internalType": "string",
          "name": "url",
          "type": "string"
        }
      ],
      "name": "modifySpaces",
      "outputs": [],
      "payable": false,
      "stateMutability": "nonpayable",
      "type": "function"
    },
    {
      "constant": false,
      "inputs": [
        {
          "internalType": "uint256[]",
          "name": "space",
          "type": "uint256[]"
        }
      ],
      "name": "lockSpaces",
      "outputs": [],
      "payable": false,
      "stateMutability": "nonpayable",
      "type": "function"
    },
    {
      "constant": false,
      "inputs": [
        {
          "internalType": "uint256[]",
          "name": "space",
          "type": "uint256[]"
        }
      ],
      "name": "buySpaces",
      "outputs": [],
      "payable": false,
      "stateMutability": "nonpayable",
      "type": "function"
    }
  ],
  "bytecode": "0x60806040523480156200001157600080fd5b50604051620053f3380380620053f3833981810160405260408110156200003757600080fd5b8101908080519060200190929190805190602001909291905050506200008f6301ffc9a77c010000000000000000000000000000000000000000000000000000000002620001a0640100000000026401000000009004565b620000cc6380ac58cd7c010000000000000000000000000000000000000000000000000000000002620001a0640100000000026401000000009004565b81600f60006101000a81548173ffffffffffffffffffffffffffffffffffffffff021916908373ffffffffffffffffffffffffffffffffffffffff16021790555080601060006101000a81548173ffffffffffffffffffffffffffffffffffffffff021916908373ffffffffffffffffffffffffffffffffffffffff16021790555033600560006101000a81548173ffffffffffffffffffffffffffffffffffffffff021916908373ffffffffffffffffffffffffffffffffffffffff1602179055506127106012819055505050620002c5565b63ffffffff7c010000000000000000000000000000000000000000000000000000000002817bffffffffffffffffffffffffffffffffffffffffffffffffffffffff1916141562000259576040517f08c379a000000000000000000000000000000000000000000000000000000000815260040180806020018281038252601c8152602001807f4552433136353a20696e76616c696420696e746572666163652069640000000081525060200191505060405180910390fd5b6001600080837bffffffffffffffffffffffffffffffffffffffffffffffffffffffff19167bffffffffffffffffffffffffffffffffffffffffffffffffffffffff1916815260200190815260200160002060006101000a81548160ff02191690831515021790555050565b61511e80620002d56000396000f3fe6080604052600436106102b0576000357c0100000000000000000000000000000000000000000000000000000000900480638b7b120f11610177578063becc99d4116100de578063ead7c2f411610097578063ead7c2f4146118d5578063f2fde38b146119a7578063f75cc56b146119f8578063fa56902e14611a4f578063fb0fee4b14611a7a578063fe813ad014611b2e576102b0565b8063becc99d4146113d0578063c3d2b54f1461149a578063d230e7df14611731578063dd0540d01461176c578063e23b38fe146117e7578063e985e9c51461184c576102b0565b80639cd00f57116101305780639cd00f5714611155578063a22cb46514611227578063ac850a4d14611284578063b3cea217146112e9578063b516cf2e14611314578063be86a2c11461136b576102b0565b80638b7b120f14610fee5780638d21af32146110195780638da5cb5b146110685780638e322899146110bf57806398e1b410146110ed57806398ec7b4514611104576102b0565b80635d2995c31161021b578063726349f7116101d4578063726349f714610d5f57806373e73fe214610dda5780637910867b14610e29578063796676be14610e7c578063807d78c614610f3057806381035e3714610f9f576102b0565b80635d2995c3146109e357806361f4efba14610aad5780636352211e14610ae857806363f4623d14610b63578063704aa39f14610b9e57806370a0823114610cfa576102b0565b80631fb574271161026d5780631fb574271461068c57806323b872dd146107515780632ca79197146107cc5780632d91f79a1461081f57806334803d951461085a57806341a6133814610924576102b0565b806301ffc9a7146102b5578063072b83f114610327578063081812fc146103db578063095ea7b3146104565780630a7fa5e3146104b15780631710775a14610661575b600080fd5b3480156102c157600080fd5b5061030d600480360360208110156102d857600080fd5b8101908080357bffffffffffffffffffffffffffffffffffffffffffffffffffffffff19169060200190929190505050611bf3565b604051808215151515815260200191505060405180910390f35b34801561033357600080fd5b506103606004803603602081101561034a57600080fd5b8101908080359060200190929190505050611c5a565b6040518080602001828103825283818151815260200191508051906020019080838360005b838110156103a0578082015181840152602081019050610385565b50505050905090810190601f1680156103cd5780820380516001836020036101000a031916815260200191505b509250505060405180910390f35b3480156103e757600080fd5b50610414600480360360208110156103fe57600080fd5b8101908080359060200190929190505050611d71565b604051808273ffffffffffffffffffffffffffffffffffffffff1673ffffffffffffffffffffffffffffffffffffffff16815260200191505060405180910390f35b34801561046257600080fd5b506104af6004803603604081101561047957600080fd5b81019080803573ffffffffffffffffffffffffffffffffffffffff16906020019092919080359060200190929190505050611e0c565b005b3480156104bd57600080fd5b50610500600480360360208110156104d457600080fd5b81019080803573ffffffffffffffffffffffffffffffffffffffff169060200190929190505050611ff3565b60405180806020018681526020018581526020018060200180602001848103845289818151815260200191508051906020019080838360005b83811015610554578082015181840152602081019050610539565b50505050905090810190601f1680156105815780820380516001836020036101000a031916815260200191505b50848103835286818151815260200191508051906020019080838360005b838110156105ba57808201518184015260208101905061059f565b50505050905090810190601f1680156105e75780820380516001836020036101000a031916815260200191505b50848103825285818151815260200191508051906020019080838360005b83811015610620578082015181840152602081019050610605565b50505050905090810190601f16801561064d5780820380516001836020036101000a031916815260200191505b509850505050505050505060405180910390f35b34801561066d57600080fd5b506106766121f1565b6040518082815260200191505060405180910390f35b34801561069857600080fd5b5061074f600480360360208110156106af57600080fd5b81019080803590602001906401000000008111156106cc57600080fd5b8201836020820111156106de57600080fd5b8035906020019184602083028401116401000000008311171561070057600080fd5b919080806020026020016040519081016040528093929190818152602001838360200280828437600081840152601f19601f8201169050808301925050505050505091929192905050506122b9565b005b34801561075d57600080fd5b506107ca6004803603606081101561077457600080fd5b81019080803573ffffffffffffffffffffffffffffffffffffffff169060200190929190803573ffffffffffffffffffffffffffffffffffffffff169060200190929190803590602001909291905050506127bf565b005b3480156107d857600080fd5b50610805600480360360208110156107ef57600080fd5b8101908080359060200190929190505050612835565b604051808215151515815260200191505060405180910390f35b34801561082b57600080fd5b506108586004803603602081101561084257600080fd5b8101908080359060200190929190505050612862565b005b34801561086657600080fd5b506108a96004803603602081101561087d57600080fd5b81019080803573ffffffffffffffffffffffffffffffffffffffff1690602001909291905050506128c6565b6040518080602001828103825283818151815260200191508051906020019080838360005b838110156108e95780820151818401526020810190506108ce565b50505050905090810190601f1680156109165780820380516001836020036101000a031916815260200191505b509250505060405180910390f35b34801561093057600080fd5b5061095d6004803603602081101561094757600080fd5b81019080803590602001909291905050506129aa565b604051808315151515815260200180602001828103825283818151815260200191508051906020019080838360005b838110156109a757808201518184015260208101905061098c565b50505050905090810190601f1680156109d45780820380516001836020036101000a031916815260200191505b50935050505060405180910390f35b3480156109ef57600080fd5b50610a3260048036036020811015610a0657600080fd5b81019080803573ffffffffffffffffffffffffffffffffffffffff169060200190929190505050612a73565b6040518080602001828103825283818151815260200191508051906020019080838360005b83811015610a72578082015181840152602081019050610a57565b50505050905090810190601f168015610a9f5780820380516001836020036101000a031916815260200191505b509250505060405180910390f35b348015610ab957600080fd5b50610ae660048036036020811015610ad057600080fd5b8101908080359060200190929190505050612b57565b005b348015610af457600080fd5b50610b2160048036036020811015610b0b57600080fd5b8101908080359060200190929190505050612bbb565b604051808273ffffffffffffffffffffffffffffffffffffffff1673ffffffffffffffffffffffffffffffffffffffff16815260200191505060405180910390f35b348015610b6f57600080fd5b50610b9c60048036036020811015610b8657600080fd5b8101908080359060200190929190505050612c83565b005b348015610baa57600080fd5b50610cf860048036036040811015610bc157600080fd5b8101908080359060200190640100000000811115610bde57600080fd5b820183602082011115610bf057600080fd5b80359060200191846020830284011164010000000083111715610c1257600080fd5b919080806020026020016040519081016040528093929190818152602001838360200280828437600081840152601f19601f82011690508083019250505050505050919291929080359060200190640100000000811115610c7257600080fd5b820183602082011115610c8457600080fd5b80359060200191846001830284011164010000000083111715610ca657600080fd5b91908080601f016020809104026020016040519081016040528093929190818152602001838380828437600081840152601f19601f820116905080830192505050505050509192919290505050612eca565b005b348015610d0657600080fd5b50610d4960048036036020811015610d1d57600080fd5b81019080803573ffffffffffffffffffffffffffffffffffffffff169060200190929190505050612f76565b6040518082815260200191505060405180910390f35b348015610d6b57600080fd5b50610d9860048036036020811015610d8257600080fd5b810190808035906020019092919050505061304b565b604051808273ffffffffffffffffffffffffffffffffffffffff1673ffffffffffffffffffffffffffffffffffffffff16815260200191505060405180910390f35b348015610de657600080fd5b50610e1360048036036020811015610dfd57600080fd5b810190808035906020019092919050505061307e565b6040518082815260200191505060405180910390f35b348015610e3557600080fd5b50610e6260048036036020811015610e4c57600080fd5b8101908080359060200190929190505050613096565b604051808215151515815260200191505060405180910390f35b348015610e8857600080fd5b50610eb560048036036020811015610e9f57600080fd5b81019080803590602001909291905050506130b6565b6040518080602001828103825283818151815260200191508051906020019080838360005b83811015610ef5578082015181840152602081019050610eda565b50505050905090810190601f168015610f225780820380516001836020036101000a031916815260200191505b509250505060405180910390f35b348015610f3c57600080fd5b50610f8960048036036040811015610f5357600080fd5b81019080803573ffffffffffffffffffffffffffffffffffffffff16906020019092919080359060200190929190505050613166565b6040518082815260200191505060405180910390f35b348015610fab57600080fd5b50610fd860048036036020811015610fc257600080fd5b8101908080359060200190929190505050613194565b6040518082815260200191505060405180910390f35b348015610ffa57600080fd5b50611003613213565b6040518082815260200191505060405180910390f35b34801561102557600080fd5b506110526004803603602081101561103c57600080fd5b8101908080359060200190929190505050613219565b6040518082815260200191505060405180910390f35b34801561107457600080fd5b5061107d613231565b604051808273ffffffffffffffffffffffffffffffffffffffff1673ffffffffffffffffffffffffffffffffffffffff16815260200191505060405180910390f35b6110eb600480360360208110156110d557600080fd5b8101908080359060200190929190505050613257565b005b3480156110f957600080fd5b5061110261338b565b005b34801561111057600080fd5b506111536004803603602081101561112757600080fd5b81019080803573ffffffffffffffffffffffffffffffffffffffff169060200190929190505050613445565b005b34801561116157600080fd5b506112256004803603604081101561117857600080fd5b81019080803590602001909291908035906020019064010000000081111561119f57600080fd5b8201836020820111156111b157600080fd5b803590602001918460018302840111640100000000831117156111d357600080fd5b91908080601f016020809104026020016040519081016040528093929190818152602001838380828437600081840152601f19601f82011690508083019250505050505050919291929050505061353e565b005b34801561123357600080fd5b506112826004803603604081101561124a57600080fd5b81019080803573ffffffffffffffffffffffffffffffffffffffff169060200190929190803515159060200190929190505050613629565b005b34801561129057600080fd5b506112d3600480360360208110156112a757600080fd5b81019080803573ffffffffffffffffffffffffffffffffffffffff1690602001909291905050506137e1565b6040518082815260200191505060405180910390f35b3480156112f557600080fd5b506112fe61382d565b6040518082815260200191505060405180910390f35b34801561132057600080fd5b50611329613833565b604051808273ffffffffffffffffffffffffffffffffffffffff1673ffffffffffffffffffffffffffffffffffffffff16815260200191505060405180910390f35b34801561137757600080fd5b506113ba6004803603602081101561138e57600080fd5b81019080803573ffffffffffffffffffffffffffffffffffffffff169060200190929190505050613859565b6040518082815260200191505060405180910390f35b3480156113dc57600080fd5b5061141f600480360360208110156113f357600080fd5b81019080803573ffffffffffffffffffffffffffffffffffffffff1690602001909291905050506138a5565b6040518080602001828103825283818151815260200191508051906020019080838360005b8381101561145f578082015181840152602081019050611444565b50505050905090810190601f16801561148c5780820380516001836020036101000a031916815260200191505b509250505060405180910390f35b3480156114a657600080fd5b5061172f600480360360a08110156114bd57600080fd5b81019080803590602001906401000000008111156114da57600080fd5b8201836020820111156114ec57600080fd5b8035906020019184600183028401116401000000008311171561150e57600080fd5b91908080601f016020809104026020016040519081016040528093929190818152602001838380828437600081840152601f19601f8201169050808301925050505050505091929192908035906020019064010000000081111561157157600080fd5b82018360208201111561158357600080fd5b803590602001918460018302840111640100000000831117156115a557600080fd5b91908080601f016020809104026020016040519081016040528093929190818152602001838380828437600081840152601f19601f820116905080830192505050505050509192919290803590602001909291908035906020019064010000000081111561161257600080fd5b82018360208201111561162457600080fd5b8035906020019184600183028401116401000000008311171561164657600080fd5b91908080601f016020809104026020016040519081016040528093929190818152602001838380828437600081840152601f19601f820116905080830192505050505050509192919290803590602001906401000000008111156116a957600080fd5b8201836020820111156116bb57600080fd5b803590602001918460018302840111640100000000831117156116dd57600080fd5b91908080601f016020809104026020016040519081016040528093929190818152602001838380828437600081840152601f19601f820116905080830192505050505050509192919290505050613989565b005b34801561173d57600080fd5b5061176a6004803603602081101561175457600080fd5b8101908080359060200190929190505050613e19565b005b34801561177857600080fd5b506117a56004803603602081101561178f57600080fd5b8101908080359060200190929190505050613fbb565b604051808273ffffffffffffffffffffffffffffffffffffffff1673ffffffffffffffffffffffffffffffffffffffff16815260200191505060405180910390f35b3480156117f357600080fd5b506118366004803603602081101561180a57600080fd5b81019080803573ffffffffffffffffffffffffffffffffffffffff169060200190929190505050613fee565b6040518082815260200191505060405180910390f35b34801561185857600080fd5b506118bb6004803603604081101561186f57600080fd5b81019080803573ffffffffffffffffffffffffffffffffffffffff169060200190929190803573ffffffffffffffffffffffffffffffffffffffff16906020019092919050505061403a565b604051808215151515815260200191505060405180910390f35b3480156118e157600080fd5b506119a5600480360360408110156118f857600080fd5b81019080803590602001909291908035906020019064010000000081111561191f57600080fd5b82018360208201111561193157600080fd5b8035906020019184600183028401116401000000008311171561195357600080fd5b91908080601f016020809104026020016040519081016040528093929190818152602001838380828437600081840152601f19601f8201169050808301925050505050505091929192905050506140ce565b005b3480156119b357600080fd5b506119f6600480360360208110156119ca57600080fd5b81019080803573ffffffffffffffffffffffffffffffffffffffff16906020019092919050505061414f565b005b348015611a0457600080fd5b50611a0d61428d565b604051808273ffffffffffffffffffffffffffffffffffffffff1673ffffffffffffffffffffffffffffffffffffffff16815260200191505060405180910390f35b348015611a5b57600080fd5b50611a646142b3565b6040518082815260200191505060405180910390f35b348015611a8657600080fd5b50611ab360048036036020811015611a9d57600080fd5b81019080803590602001909291905050506142b9565b6040518080602001828103825283818151815260200191508051906020019080838360005b83811015611af3578082015181840152602081019050611ad8565b50505050905090810190601f168015611b205780820380516001836020036101000a031916815260200191505b509250505060405180910390f35b348015611b3a57600080fd5b50611bf160048036036020811015611b5157600080fd5b8101908080359060200190640100000000811115611b6e57600080fd5b820183602082011115611b8057600080fd5b80359060200191846020830284011164010000000083111715611ba257600080fd5b919080806020026020016040519081016040528093929190818152602001838360200280828437600081840152601f19601f820116905080830192505050505050509192919290505050614371565b005b6000806000837bffffffffffffffffffffffffffffffffffffffffffffffffffffffff19167bffffffffffffffffffffffffffffffffffffffffffffffffffffffff1916815260200190815260200160002060009054906101000a900460ff169050919050565b6060600860006009600085815260200190815260200160002060009054906101000a900473ffffffffffffffffffffffffffffffffffffffff1673ffffffffffffffffffffffffffffffffffffffff1673ffffffffffffffffffffffffffffffffffffffff1681526020019081526020016000206000018054600181600116156101000203166002900480601f016020809104026020016040519081016040528092919081815260200182805460018160011615610100020316600290048015611d655780601f10611d3a57610100808354040283529160200191611d65565b820191906000526020600020905b815481529060010190602001808311611d4857829003601f168201915b50505050509050919050565b6000611d7c82614462565b611dd1576040517f08c379a000000000000000000000000000000000000000000000000000000000815260040180806020018281038252602c81526020018061501e602c913960400191505060405180910390fd5b6002600083815260200190815260200160002060009054906101000a900473ffffffffffffffffffffffffffffffffffffffff169050919050565b6000611e1782612bbb565b90508073ffffffffffffffffffffffffffffffffffffffff168373ffffffffffffffffffffffffffffffffffffffff161415611e9e576040517f08c379a00000000000000000000000000000000000000000000000000000000081526004018080602001828103825260218152602001806150736021913960400191505060405180910390fd5b8073ffffffffffffffffffffffffffffffffffffffff16611ebd6144d4565b73ffffffffffffffffffffffffffffffffffffffff161480611eec5750611eeb81611ee66144d4565b61403a565b5b611f41576040517f08c379a0000000000000000000000000000000000000000000000000000000008152600401808060200182810382526038815260200180614f726038913960400191505060405180910390fd5b826002600084815260200190815260200160002060006101000a81548173ffffffffffffffffffffffffffffffffffffffff021916908373ffffffffffffffffffffffffffffffffffffffff160217905550818373ffffffffffffffffffffffffffffffffffffffff168273ffffffffffffffffffffffffffffffffffffffff167f8c5be1e5ebec7d5bd14f71427d1e84f3dd0314c0f7b2291e5b200ac8c7c3b92560405160405180910390a4505050565b6008602052806000526040600020600091509050806000018054600181600116156101000203166002900480601f01602080910402602001604051908101604052809291908181526020018280546001816001161561010002031660029004801561209f5780601f106120745761010080835404028352916020019161209f565b820191906000526020600020905b81548152906001019060200180831161208257829003601f168201915b505050505090806001015490806002015490806003018054600181600116156101000203166002900480601f0160208091040260200160405190810160405280929190818152602001828054600181600116156101000203166002900480156121495780601f1061211e57610100808354040283529160200191612149565b820191906000526020600020905b81548152906001019060200180831161212c57829003601f168201915b505050505090806004018054600181600116156101000203166002900480601f0160208091040260200160405190810160405280929190818152602001828054600181600116156101000203166002900480156121e75780601f106121bc576101008083540402835291602001916121e7565b820191906000526020600020905b8154815290600101906020018083116121ca57829003601f168201915b5050505050905085565b6000601060009054906101000a900473ffffffffffffffffffffffffffffffffffffffff1673ffffffffffffffffffffffffffffffffffffffff1663b3cea2176040518163ffffffff167c0100000000000000000000000000000000000000000000000000000000028152600401602060405180830381600087803b15801561227957600080fd5b505af115801561228d573d6000803e3d6000fd5b505050506040513d60208110156122a357600080fd5b8101908080519060200190929190505050905090565b60011515600a6000600860003373ffffffffffffffffffffffffffffffffffffffff1673ffffffffffffffffffffffffffffffffffffffff16815260200190815260200160002060010154815260200190815260200160002060009054906101000a900460ff1615151461232c57600080fd5b601060009054906101000a900473ffffffffffffffffffffffffffffffffffffffff1673ffffffffffffffffffffffffffffffffffffffff1663db0c6dc26040518163ffffffff167c0100000000000000000000000000000000000000000000000000000000028152600401602060405180830381600087803b1580156123b257600080fd5b505af11580156123c6573d6000803e3d6000fd5b505050506040513d60208110156123dc57600080fd5b8101908080519060200190929190505050815102600f60009054906101000a900473ffffffffffffffffffffffffffffffffffffffff1673ffffffffffffffffffffffffffffffffffffffff166370a08231336040518263ffffffff167c0100000000000000000000000000000000000000000000000000000000028152600401808273ffffffffffffffffffffffffffffffffffffffff1673ffffffffffffffffffffffffffffffffffffffff16815260200191505060206040518083038186803b1580156124ab57600080fd5b505afa1580156124bf573d6000803e3d6000fd5b505050506040513d60208110156124d557600080fd5b810190808051906020019092919050505010156124f157600080fd5b600080600090505b82518110156125ed576000151561252284838151811061251557fe5b6020026020010151614462565b151514801561253757506125346121f1565b81115b156125e05760125461254833612f76565b1115612553576125ed565b600c60003373ffffffffffffffffffffffffffffffffffffffff1673ffffffffffffffffffffffffffffffffffffffff16815260200190815260200160002083828151811061259e57fe5b602002602001015190806001815401808255809150509060018203906000526020600020016000909192909190915055506001820191506125df33826144dc565b5b80806001019150506124f9565b5060008111156127bb57600f60009054906101000a900473ffffffffffffffffffffffffffffffffffffffff1673ffffffffffffffffffffffffffffffffffffffff1663072788683383601060009054906101000a900473ffffffffffffffffffffffffffffffffffffffff1673ffffffffffffffffffffffffffffffffffffffff1663db0c6dc26040518163ffffffff167c0100000000000000000000000000000000000000000000000000000000028152600401602060405180830381600087803b1580156126bd57600080fd5b505af11580156126d1573d6000803e3d6000fd5b505050506040513d60208110156126e757600080fd5b8101908080519060200190929190505050026040518363ffffffff167c0100000000000000000000000000000000000000000000000000000000028152600401808373ffffffffffffffffffffffffffffffffffffffff1673ffffffffffffffffffffffffffffffffffffffff16815260200182815260200192505050602060405180830381600087803b15801561277e57600080fd5b505af1158015612792573d6000803e3d6000fd5b505050506040513d60208110156127a857600080fd5b8101908080519060200190929190505050505b5050565b6127d06127ca6144d4565b826146f4565b612825576040517f08c379a00000000000000000000000000000000000000000000000000000000081526004018080602001828103825260318152602001806150946031913960400191505060405180910390fd5b6128308383836147e8565b505050565b6000600d600083815260200190815260200160002060000160009054906101000a900460ff169050919050565b600560009054906101000a900473ffffffffffffffffffffffffffffffffffffffff1673ffffffffffffffffffffffffffffffffffffffff163373ffffffffffffffffffffffffffffffffffffffff16146128bc57600080fd5b8060128190555050565b6060600860008373ffffffffffffffffffffffffffffffffffffffff1673ffffffffffffffffffffffffffffffffffffffff1681526020019081526020016000206000018054600181600116156101000203166002900480601f01602080910402602001604051908101604052809291908181526020018280546001816001161561010002031660029004801561299e5780601f106129735761010080835404028352916020019161299e565b820191906000526020600020905b81548152906001019060200180831161298157829003601f168201915b50505050509050919050565b600d6020528060005260406000206000915090508060000160009054906101000a900460ff1690806001018054600181600116156101000203166002900480601f016020809104026020016040519081016040528092919081815260200182805460018160011615610100020316600290048015612a695780601f10612a3e57610100808354040283529160200191612a69565b820191906000526020600020905b815481529060010190602001808311612a4c57829003601f168201915b5050505050905082565b6060600860008373ffffffffffffffffffffffffffffffffffffffff1673ffffffffffffffffffffffffffffffffffffffff1681526020019081526020016000206004018054600181600116156101000203166002900480601f016020809104026020016040519081016040528092919081815260200182805460018160011615610100020316600290048015612b4b5780601f10612b2057610100808354040283529160200191612b4b565b820191906000526020600020905b815481529060010190602001808311612b2e57829003601f168201915b50505050509050919050565b600560009054906101000a900473ffffffffffffffffffffffffffffffffffffffff1673ffffffffffffffffffffffffffffffffffffffff163373ffffffffffffffffffffffffffffffffffffffff1614612bb157600080fd5b8060118190555050565b6000806001600084815260200190815260200160002060009054906101000a900473ffffffffffffffffffffffffffffffffffffffff169050600073ffffffffffffffffffffffffffffffffffffffff168173ffffffffffffffffffffffffffffffffffffffff161415612c7a576040517f08c379a0000000000000000000000000000000000000000000000000000000008152600401808060200182810382526029815260200180614fd46029913960400191505060405180910390fd5b80915050919050565b600560009054906101000a900473ffffffffffffffffffffffffffffffffffffffff1673ffffffffffffffffffffffffffffffffffffffff163373ffffffffffffffffffffffffffffffffffffffff1614612cdd57600080fd5b60001515600d600083815260200190815260200160002060000160009054906101000a900460ff16151514612d1157600080fd5b60001515600a600083815260200190815260200160002060009054906101000a900460ff1615151415612de2576001600a600083815260200190815260200160002060006101000a81548160ff021916908315150217905550612ddc60096000600b600085815260200190815260200160002054815260200190815260200160002060009054906101000a900473ffffffffffffffffffffffffffffffffffffffff16601360009054906101000a900473ffffffffffffffffffffffffffffffffffffffff1661403a565b50612e0f565b6000600a600083815260200190815260200160002060006101000a81548160ff0219169083151502179055505b60096000600b600084815260200190815260200160002054815260200190815260200160002060009054906101000a900473ffffffffffffffffffffffffffffffffffffffff1673ffffffffffffffffffffffffffffffffffffffff167f42506b1629ea51105dbfee1afc9ea5cb980192a1d6eeae144ca64d9d3b902125600a600084815260200190815260200160002060009054906101000a900460ff16604051808215151515815260200191505060405180910390a250565b60008090505b8251811015612f71573373ffffffffffffffffffffffffffffffffffffffff16612f0c848381518110612eff57fe5b6020026020010151611d71565b73ffffffffffffffffffffffffffffffffffffffff161415612f64578160066000858481518110612f3957fe5b602002602001015181526020019081526020016000209080519060200190612f62929190614e7c565b505b8080600101915050612ed0565b505050565b60008073ffffffffffffffffffffffffffffffffffffffff168273ffffffffffffffffffffffffffffffffffffffff161415612ffd576040517f08c379a000000000000000000000000000000000000000000000000000000000815260040180806020018281038252602a815260200180614faa602a913960400191505060405180910390fd5b613044600360008473ffffffffffffffffffffffffffffffffffffffff1673ffffffffffffffffffffffffffffffffffffffff168152602001908152602001600020614a43565b9050919050565b60076020528060005260406000206000915054906101000a900473ffffffffffffffffffffffffffffffffffffffff1681565b600b6020528060005260406000206000915090505481565b600a6020528060005260406000206000915054906101000a900460ff1681565b60066020528060005260406000206000915090508054600181600116156101000203166002900480601f01602080910402602001604051908101604052809291908181526020018280546001816001161561010002031660029004801561315e5780601f106131335761010080835404028352916020019161315e565b820191906000526020600020905b81548152906001019060200180831161314157829003601f168201915b505050505081565b600c602052816000526040600020818154811061317f57fe5b90600052602060002001600091509150505481565b6000600860006009600085815260200190815260200160002060009054906101000a900473ffffffffffffffffffffffffffffffffffffffff1673ffffffffffffffffffffffffffffffffffffffff1673ffffffffffffffffffffffffffffffffffffffff168152602001908152602001600020600201549050919050565b60115481565b600e6020528060005260406000206000915090505481565b600560009054906101000a900473ffffffffffffffffffffffffffffffffffffffff1681565b6000601154141561326757600080fd5b61327c81601154614a5190919063ffffffff16565b341461328757600080fd5b600f60009054906101000a900473ffffffffffffffffffffffffffffffffffffffff1673ffffffffffffffffffffffffffffffffffffffff1663a9059cbb33836040518363ffffffff167c0100000000000000000000000000000000000000000000000000000000028152600401808373ffffffffffffffffffffffffffffffffffffffff1673ffffffffffffffffffffffffffffffffffffffff16815260200182815260200192505050602060405180830381600087803b15801561334c57600080fd5b505af1158015613360573d6000803e3d6000fd5b505050506040513d602081101561337657600080fd5b81019080805190602001909291905050505050565b600560009054906101000a900473ffffffffffffffffffffffffffffffffffffffff1673ffffffffffffffffffffffffffffffffffffffff163373ffffffffffffffffffffffffffffffffffffffff16146133e557600080fd5b3373ffffffffffffffffffffffffffffffffffffffff166108fc3073ffffffffffffffffffffffffffffffffffffffff16319081150290604051600060405180830381858888f19350505050158015613442573d6000803e3d6000fd5b50565b600560009054906101000a900473ffffffffffffffffffffffffffffffffffffffff1673ffffffffffffffffffffffffffffffffffffffff163373ffffffffffffffffffffffffffffffffffffffff161461349f57600080fd5b600073ffffffffffffffffffffffffffffffffffffffff16601360009054906101000a900473ffffffffffffffffffffffffffffffffffffffff1673ffffffffffffffffffffffffffffffffffffffff16146134fa57600080fd5b80601360006101000a81548173ffffffffffffffffffffffffffffffffffffffff021916908373ffffffffffffffffffffffffffffffffffffffff16021790555050565b600560009054906101000a900473ffffffffffffffffffffffffffffffffffffffff1673ffffffffffffffffffffffffffffffffffffffff163373ffffffffffffffffffffffffffffffffffffffff161461359857600080fd5b60001515600a6000601454815260200190815260200160002060009054906101000a900460ff161515146135cb57600080fd5b6001600d600084815260200190815260200160002060000160006101000a81548160ff02191690831515021790555080600d60008481526020019081526020016000206001019080519060200190613624929190614e7c565b505050565b6136316144d4565b73ffffffffffffffffffffffffffffffffffffffff168273ffffffffffffffffffffffffffffffffffffffff1614156136d2576040517f08c379a00000000000000000000000000000000000000000000000000000000081526004018080602001828103825260198152602001807f4552433732313a20617070726f766520746f2063616c6c65720000000000000081525060200191505060405180910390fd5b80600460006136df6144d4565b73ffffffffffffffffffffffffffffffffffffffff1673ffffffffffffffffffffffffffffffffffffffff16815260200190815260200160002060008473ffffffffffffffffffffffffffffffffffffffff1673ffffffffffffffffffffffffffffffffffffffff16815260200190815260200160002060006101000a81548160ff0219169083151502179055508173ffffffffffffffffffffffffffffffffffffffff1661378c6144d4565b73ffffffffffffffffffffffffffffffffffffffff167f17307eab39ab6107e8899845ad3d59bd9653f200f220920489ca2b5937696c3183604051808215151515815260200191505060405180910390a35050565b6000600860008373ffffffffffffffffffffffffffffffffffffffff1673ffffffffffffffffffffffffffffffffffffffff168152602001908152602001600020600201549050919050565b60145481565b601060009054906101000a900473ffffffffffffffffffffffffffffffffffffffff1681565b6000600c60008373ffffffffffffffffffffffffffffffffffffffff1673ffffffffffffffffffffffffffffffffffffffff168152602001908152602001600020805490509050919050565b6060600860008373ffffffffffffffffffffffffffffffffffffffff1673ffffffffffffffffffffffffffffffffffffffff1681526020019081526020016000206003018054600181600116156101000203166002900480601f01602080910402602001604051908101604052809291908181526020018280546001816001161561010002031660029004801561397d5780601f106139525761010080835404028352916020019161397d565b820191906000526020600020905b81548152906001019060200180831161396057829003601f168201915b50505050509050919050565b60008580519060200120600190049050600e60008581526020019081526020016000205481146139b857600080fd5b60008580519060200120600190049050600073ffffffffffffffffffffffffffffffffffffffff166009600083815260200190815260200160002060009054906101000a900473ffffffffffffffffffffffffffffffffffffffff1673ffffffffffffffffffffffffffffffffffffffff161480613a9457503373ffffffffffffffffffffffffffffffffffffffff166009600083815260200190815260200160002060009054906101000a900473ffffffffffffffffffffffffffffffffffffffff1673ffffffffffffffffffffffffffffffffffffffff16145b613a9d57600080fd5b3373ffffffffffffffffffffffffffffffffffffffff166009600083815260200190815260200160002060009054906101000a900473ffffffffffffffffffffffffffffffffffffffff1673ffffffffffffffffffffffffffffffffffffffff161415613bb75782600860003373ffffffffffffffffffffffffffffffffffffffff1673ffffffffffffffffffffffffffffffffffffffff1681526020019081526020016000206004019080519060200190613b5a929190614e7c565b5083600860003373ffffffffffffffffffffffffffffffffffffffff1673ffffffffffffffffffffffffffffffffffffffff1681526020019081526020016000206003019080519060200190613bb1929190614e7c565b50613dca565b336009600083815260200190815260200160002060006101000a81548173ffffffffffffffffffffffffffffffffffffffff021916908373ffffffffffffffffffffffffffffffffffffffff160217905550600160146000828254019250508190555085600860003373ffffffffffffffffffffffffffffffffffffffff1673ffffffffffffffffffffffffffffffffffffffff1681526020019081526020016000206000019080519060200190613c70929190614e7c565b50601454600860003373ffffffffffffffffffffffffffffffffffffffff1673ffffffffffffffffffffffffffffffffffffffff1681526020019081526020016000206001018190555084600860003373ffffffffffffffffffffffffffffffffffffffff1673ffffffffffffffffffffffffffffffffffffffff1681526020019081526020016000206002018190555082600860003373ffffffffffffffffffffffffffffffffffffffff1673ffffffffffffffffffffffffffffffffffffffff1681526020019081526020016000206004019080519060200190613d57929190614e7c565b5083600860003373ffffffffffffffffffffffffffffffffffffffff1673ffffffffffffffffffffffffffffffffffffffff1681526020019081526020016000206003019080519060200190613dae929190614e7c565b5080600b60006014548152602001908152602001600020819055505b6014543373ffffffffffffffffffffffffffffffffffffffff167fbf424f49c5146b94a91799dd259465aec6427c3792d9e1e1bd3a1a2b2bc4aeb060405160405180910390a350505050505050565b600560009054906101000a900473ffffffffffffffffffffffffffffffffffffffff1673ffffffffffffffffffffffffffffffffffffffff163373ffffffffffffffffffffffffffffffffffffffff1614613e7357600080fd5b60006011541415613e8357600080fd5b600f60009054906101000a900473ffffffffffffffffffffffffffffffffffffffff1673ffffffffffffffffffffffffffffffffffffffff166323b872dd3330846040518463ffffffff167c0100000000000000000000000000000000000000000000000000000000028152600401808473ffffffffffffffffffffffffffffffffffffffff1673ffffffffffffffffffffffffffffffffffffffff1681526020018373ffffffffffffffffffffffffffffffffffffffff1673ffffffffffffffffffffffffffffffffffffffff1681526020018281526020019350505050602060405180830381600087803b158015613f7c57600080fd5b505af1158015613f90573d6000803e3d6000fd5b505050506040513d6020811015613fa657600080fd5b81019080805190602001909291905050505050565b60096020528060005260406000206000915054906101000a900473ffffffffffffffffffffffffffffffffffffffff1681565b6000600860008373ffffffffffffffffffffffffffffffffffffffff1673ffffffffffffffffffffffffffffffffffffffff168152602001908152602001600020600101549050919050565b6000600460008473ffffffffffffffffffffffffffffffffffffffff1673ffffffffffffffffffffffffffffffffffffffff16815260200190815260200160002060008373ffffffffffffffffffffffffffffffffffffffff1673ffffffffffffffffffffffffffffffffffffffff16815260200190815260200160002060009054906101000a900460ff16905092915050565b600560009054906101000a900473ffffffffffffffffffffffffffffffffffffffff1673ffffffffffffffffffffffffffffffffffffffff163373ffffffffffffffffffffffffffffffffffffffff161461412857600080fd5b808051906020012060019004600e6000848152602001908152602001600020819055505050565b600560009054906101000a900473ffffffffffffffffffffffffffffffffffffffff1673ffffffffffffffffffffffffffffffffffffffff163373ffffffffffffffffffffffffffffffffffffffff16146141a957600080fd5b60658173ffffffffffffffffffffffffffffffffffffffff1631146141cd57600080fd5b8073ffffffffffffffffffffffffffffffffffffffff16600560009054906101000a900473ffffffffffffffffffffffffffffffffffffffff1673ffffffffffffffffffffffffffffffffffffffff167f8be0079c531659141344cd1fd0a4f28419497f9722a3daafe3b4186f6b6457e060405160405180910390a380600560006101000a81548173ffffffffffffffffffffffffffffffffffffffff021916908373ffffffffffffffffffffffffffffffffffffffff16021790555050565b600f60009054906101000a900473ffffffffffffffffffffffffffffffffffffffff1681565b60125481565b6060600d60008381526020019081526020016000206001018054600181600116156101000203166002900480601f0160208091040260200160405190810160405280929190818152602001828054600181600116156101000203166002900480156143655780601f1061433a57610100808354040283529160200191614365565b820191906000526020600020905b81548152906001019060200180831161434857829003601f168201915b50505050509050919050565b60008090505b815181101561445e573373ffffffffffffffffffffffffffffffffffffffff166143b38383815181106143a657fe5b6020026020010151611d71565b73ffffffffffffffffffffffffffffffffffffffff1614156144515733600760008484815181106143e057fe5b6020026020010151815260200190815260200160002060006101000a81548173ffffffffffffffffffffffffffffffffffffffff021916908373ffffffffffffffffffffffffffffffffffffffff16021790555061445082828151811061444357fe5b6020026020010151614ad7565b5b8080600101915050614377565b5050565b6000806001600084815260200190815260200160002060009054906101000a900473ffffffffffffffffffffffffffffffffffffffff169050600073ffffffffffffffffffffffffffffffffffffffff168173ffffffffffffffffffffffffffffffffffffffff161415915050919050565b600033905090565b600073ffffffffffffffffffffffffffffffffffffffff168273ffffffffffffffffffffffffffffffffffffffff16141561457f576040517f08c379a00000000000000000000000000000000000000000000000000000000081526004018080602001828103825260208152602001807f4552433732313a206d696e7420746f20746865207a65726f206164647265737381525060200191505060405180910390fd5b61458881614462565b156145fb576040517f08c379a000000000000000000000000000000000000000000000000000000000815260040180806020018281038252601c8152602001807f4552433732313a20746f6b656e20616c7265616479206d696e7465640000000081525060200191505060405180910390fd5b816001600083815260200190815260200160002060006101000a81548173ffffffffffffffffffffffffffffffffffffffff021916908373ffffffffffffffffffffffffffffffffffffffff160217905550614694600360008473ffffffffffffffffffffffffffffffffffffffff1673ffffffffffffffffffffffffffffffffffffffff168152602001908152602001600020614aec565b808273ffffffffffffffffffffffffffffffffffffffff16600073ffffffffffffffffffffffffffffffffffffffff167fddf252ad1be2c89b69c2b068fc378daa952ba7f163c4a11628f55a4df523b3ef60405160405180910390a45050565b60006146ff82614462565b614754576040517f08c379a000000000000000000000000000000000000000000000000000000000815260040180806020018281038252602c815260200180614f46602c913960400191505060405180910390fd5b600061475f83612bbb565b90508073ffffffffffffffffffffffffffffffffffffffff168473ffffffffffffffffffffffffffffffffffffffff1614806147ce57508373ffffffffffffffffffffffffffffffffffffffff166147b684611d71565b73ffffffffffffffffffffffffffffffffffffffff16145b806147df57506147de818561403a565b5b91505092915050565b8273ffffffffffffffffffffffffffffffffffffffff1661480882612bbb565b73ffffffffffffffffffffffffffffffffffffffff1614614874576040517f08c379a000000000000000000000000000000000000000000000000000000000815260040180806020018281038252602981526020018061504a6029913960400191505060405180910390fd5b600073ffffffffffffffffffffffffffffffffffffffff168273ffffffffffffffffffffffffffffffffffffffff1614156148fa576040517f08c379a0000000000000000000000000000000000000000000000000000000008152600401808060200182810382526024815260200180614f226024913960400191505060405180910390fd5b61490381614b02565b61494a600360008573ffffffffffffffffffffffffffffffffffffffff1673ffffffffffffffffffffffffffffffffffffffff168152602001908152602001600020614bc0565b614991600360008473ffffffffffffffffffffffffffffffffffffffff1673ffffffffffffffffffffffffffffffffffffffff168152602001908152602001600020614aec565b816001600083815260200190815260200160002060006101000a81548173ffffffffffffffffffffffffffffffffffffffff021916908373ffffffffffffffffffffffffffffffffffffffff160217905550808273ffffffffffffffffffffffffffffffffffffffff168473ffffffffffffffffffffffffffffffffffffffff167fddf252ad1be2c89b69c2b068fc378daa952ba7f163c4a11628f55a4df523b3ef60405160405180910390a4505050565b600081600001549050919050565b600080831415614a645760009050614ad1565b6000828402905082848281614a7557fe5b0414614acc576040517f08c379a0000000000000000000000000000000000000000000000000000000008152600401808060200182810382526021815260200180614ffd6021913960400191505060405180910390fd5b809150505b92915050565b614ae9614ae382612bbb565b82614be3565b50565b6001816000016000828254019250508190555050565b600073ffffffffffffffffffffffffffffffffffffffff166002600083815260200190815260200160002060009054906101000a900473ffffffffffffffffffffffffffffffffffffffff1673ffffffffffffffffffffffffffffffffffffffff1614614bbd5760006002600083815260200190815260200160002060006101000a81548173ffffffffffffffffffffffffffffffffffffffff021916908373ffffffffffffffffffffffffffffffffffffffff1602179055505b50565b614bd860018260000154614d7290919063ffffffff16565b816000018190555050565b8173ffffffffffffffffffffffffffffffffffffffff16614c0382612bbb565b73ffffffffffffffffffffffffffffffffffffffff1614614c6f576040517f08c379a00000000000000000000000000000000000000000000000000000000081526004018080602001828103825260258152602001806150c56025913960400191505060405180910390fd5b614c7881614b02565b614cbf600360008473ffffffffffffffffffffffffffffffffffffffff1673ffffffffffffffffffffffffffffffffffffffff168152602001908152602001600020614bc0565b60006001600083815260200190815260200160002060006101000a81548173ffffffffffffffffffffffffffffffffffffffff021916908373ffffffffffffffffffffffffffffffffffffffff16021790555080600073ffffffffffffffffffffffffffffffffffffffff168373ffffffffffffffffffffffffffffffffffffffff167fddf252ad1be2c89b69c2b068fc378daa952ba7f163c4a11628f55a4df523b3ef60405160405180910390a45050565b6000614db483836040518060400160405280601e81526020017f536166654d6174683a207375627472616374696f6e206f766572666c6f770000815250614dbc565b905092915050565b6000838311158290614e69576040517f08c379a00000000000000000000000000000000000000000000000000000000081526004018080602001828103825283818151815260200191508051906020019080838360005b83811015614e2e578082015181840152602081019050614e13565b50505050905090810190601f168015614e5b5780820380516001836020036101000a031916815260200191505b509250505060405180910390fd5b5060008385039050809150509392505050565b828054600181600116156101000203166002900490600052602060002090601f016020900481019282601f10614ebd57805160ff1916838001178555614eeb565b82800160010185558215614eeb579182015b82811115614eea578251825591602001919060010190614ecf565b5b509050614ef89190614efc565b5090565b614f1e91905b80821115614f1a576000816000905550600101614f02565b5090565b9056fe4552433732313a207472616e7366657220746f20746865207a65726f20616464726573734552433732313a206f70657261746f7220717565727920666f72206e6f6e6578697374656e7420746f6b656e4552433732313a20617070726f76652063616c6c6572206973206e6f74206f776e6572206e6f7220617070726f76656420666f7220616c6c4552433732313a2062616c616e636520717565727920666f7220746865207a65726f20616464726573734552433732313a206f776e657220717565727920666f72206e6f6e6578697374656e7420746f6b656e536166654d6174683a206d756c7469706c69636174696f6e206f766572666c6f774552433732313a20617070726f76656420717565727920666f72206e6f6e6578697374656e7420746f6b656e4552433732313a207472616e73666572206f6620746f6b656e2074686174206973206e6f74206f776e4552433732313a20617070726f76616c20746f2063757272656e74206f776e65724552433732313a207472616e736665722063616c6c6572206973206e6f74206f776e6572206e6f7220617070726f7665644552433732313a206275726e206f6620746f6b656e2074686174206973206e6f74206f776ea265627a7a72315820303261411b6b9f9417cef593432e0c574f0d2a6af76542999ba3c21bd91c151864736f6c634300050b0032",
  "source": "pragma solidity ^0.5.0;\n\nimport \"../token/TogethersSpace.sol\";\nimport \"../owner/Ownable.sol\";\nimport \"../technical/SafeMath.sol\";\n\ninterface External1 {\n  function burnExternal(address account, uint256 value) external returns (bool);\n  function ID() external returns (uint);\n  function balanceOf(address owner) external view returns (uint256);\n  function tgtcAmount() external returns (uint);\n  function transfer(address to, uint256 value) external returns (bool);\n  function transferFrom(address from, address to, uint256 value) external returns (bool);\n}\n\ncontract SpaceManager is TogethersSpace, Ownable {\n\n  using SafeMath for uint256;\n\n  event newSociety(address indexed from, uint indexed ID);\n  event decision(address indexed from, bool decision);\n\n  mapping (uint => string) public urls;\n  mapping (uint => address) public lockedSpace;\n  mapping (address => society) public mappSociety;\n  mapping (uint => address) public checkedSociety;\n  mapping (uint => bool) public isApproved;\n  mapping (uint => uint) public mappIDSocietyToHash;\n  mapping (address => uint[]) public mappSpacesList;\n  mapping (uint => description) public balckList;\n  mapping (uint => uint) public mappPassword;\n\n  External1 public TGTCToken;\n  External1 public MainContract;\n\n  uint public TGTCPrice;\n  uint public MaxTokenCount;\n\n  address spaceOperator;\n\n  constructor(address tgtc, address main) public {\n    TGTCToken = External1(tgtc);\n    MainContract = External1(main);\n    owner = msg.sender;\n    MaxTokenCount = 10000;\n  }\n\n  struct society\n  {\n    string name;\n    uint ID;\n    uint SIRET;\n    string signatory;\n    string email;\n  }\n\n  struct description\n  {\n    bool isBlacklisted;\n    string reason;\n  }\n\n  uint public ID;\n\n  function setSpaceOperator(address _spaceOperator) public onlyOwner\n  {\n    require(spaceOperator == address(0));\n    spaceOperator = _spaceOperator;\n  }\n\n  function changeMaxTokenCount(uint _max) public onlyOwner\n  {\n    MaxTokenCount = _max;\n  }\n\n  function getSpaceInfoName(uint _space) public view returns (string memory)\n  {\n    return mappSociety[checkedSociety[_space]].name;\n  }\n\n  function getSpaceInfoSIRET(uint _space) public view returns (uint)\n  {\n    return mappSociety[checkedSociety[_space]].SIRET;\n  }\n\n  function getNBSpaces(address _society) public view returns (uint)\n  {\n    return mappSpacesList[_society].length;\n  }\n\n  function getSocietyName(address _society) public view returns (string memory)\n  {\n    return mappSociety[_society].name;\n  }\n\n  function getSocietyID(address _society) public view returns (uint)\n  {\n    return mappSociety[_society].ID;\n  }\n\n  function getSocietyEmail(address _society) public view returns (string memory)\n  {\n    return mappSociety[_society].email;\n  }\n\n  function getSocietySignatory(address _society) public view returns (string memory)\n  {\n    return mappSociety[_society].signatory;\n  }\n\n  function getSocietySIRET(address _society) public view returns (uint)\n  {\n    return mappSociety[_society].SIRET;\n  }\n\n  function getLastSpaceID() public returns (uint)\n  {\n    return MainContract.ID();\n  }\n\n  function registerSociety(string memory password, string memory name, uint SIRET, string memory signatory, string memory email) public\n  {\n    uint hashPassword = uint(keccak256(bytes(password)));\n    require(hashPassword == mappPassword[SIRET]);\n    uint hashs = uint(keccak256(bytes(name)));\n    require(checkedSociety[hashs] == address(0) || checkedSociety[hashs] == msg.sender);\n    if (checkedSociety[hashs] == msg.sender)\n    {\n      mappSociety[msg.sender].email = email;\n      mappSociety[msg.sender].signatory = signatory;\n    }\n    else\n    {\n      checkedSociety[hashs] = msg.sender;\n      ID += 1;\n      mappSociety[msg.sender].name = name;\n      mappSociety[msg.sender].ID = ID;\n      mappSociety[msg.sender].SIRET = SIRET;\n      mappSociety[msg.sender].email = email;\n      mappSociety[msg.sender].signatory = signatory;\n      mappIDSocietyToHash[ID] = hashs;\n    }\n    emit newSociety(msg.sender,ID);\n  }\n\n  function givePassword(uint SIRET, string memory password) onlyOwner public\n  {\n    mappPassword[SIRET] = uint(keccak256(bytes(password)));\n  }\n\n  function approveSociety(uint _ID) onlyOwner public\n  {\n    require(balckList[_ID].isBlacklisted == false);\n    if (isApproved[_ID] == false)\n    {\n      isApproved[_ID] = true;\n      isApprovedForAll(checkedSociety[mappIDSocietyToHash[_ID]],spaceOperator);\n    }\n    else\n    {\n      isApproved[_ID] = false;\n    }\n    emit decision(checkedSociety[mappIDSocietyToHash[_ID]],isApproved[_ID]);\n  }\n\n  function blackListSociety(uint _ID, string memory _reason) onlyOwner public\n  {\n    require(isApproved[ID] == false);\n    balckList[_ID].isBlacklisted = true;\n    balckList[_ID].reason = _reason;\n  }\n\n  function getBlackListState(uint _ID) public view returns (bool)\n  {\n    return balckList[_ID].isBlacklisted;\n  }\n\n  function getMoney() public onlyOwner\n  {\n    msg.sender.transfer(address(this).balance);\n  }\n\n  function modifyTGTCPrice(uint price) public onlyOwner\n  {\n    TGTCPrice = price;\n  }\n\n  function putTGTCs(uint amount) public onlyOwner\n  {\n    require(TGTCPrice != 0);\n    TGTCToken.transferFrom(msg.sender,address(this),amount);\n  }\n\n  function getTGTCs(uint amount) public payable\n  {\n    require(TGTCPrice != 0);\n    require(msg.value == TGTCPrice.mul(amount));\n    TGTCToken.transfer(msg.sender,amount);\n  }\n\n  function getBlackListReason(uint _ID) public view returns (string memory)\n  {\n    return balckList[_ID].reason;\n  }\n\n  function modifySpaces(uint[] memory space, string memory url) public\n  {\n    for (uint i = 0; i < space.length; i++)\n    {\n      if (getApproved(space[i]) == msg.sender)\n      {\n        urls[space[i]] = url;\n      }\n    }\n  }\n\n  function lockSpaces(uint[] memory space) public\n  {\n    for (uint i = 0; i < space.length; i++)\n    {\n      if (getApproved(space[i]) == msg.sender)\n      {\n        lockedSpace[space[i]] = msg.sender;\n        _burn(space[i]);\n      }\n    }\n  }\n\n  function buySpaces(uint[] memory space) public\n  {\n    require(isApproved[mappSociety[msg.sender].ID] == true);\n    require(TGTCToken.balanceOf(msg.sender) >=  space.length * MainContract.tgtcAmount());\n    uint k;\n    for (uint i = 0; i < space.length; i++)\n    {\n      if (_exists(space[i]) == false && i > getLastSpaceID())\n      {\n        if (balanceOf(msg.sender) > MaxTokenCount)\n        {\n          break;\n        }\n        mappSpacesList[msg.sender].push(space[i]);\n        k=k+1;\n        _mint(msg.sender,i);\n      }\n    }\n    if (k > 0)\n    {\n      TGTCToken.burnExternal(msg.sender,MainContract.tgtcAmount() * k);\n    }\n  }\n}\n",
  "sourcePath": "/Users/germaindacunha/Documents/GitHub/App_Togethers/contracts/main/SpaceManager.sol",
  "compiler": {
    "name": "solc",
    "version": "0.5.11+commit.c082d0b4.Emscripten.clang"
  },
  "schemaVersion": "3.0.9",
  "updatedAt": "2019-11-19T14:34:32.653Z",
  "devdoc": {
    "methods": {
      "approve(address,uint256)": {
        "details": "Approves another address to transfer the given token ID The zero address indicates there is no approved address. There can only be one approved address per token at a given time. Can only be called by the token owner or an approved operator.",
        "params": {
          "to": "address to be approved for the given token ID",
          "tokenId": "uint256 ID of the token to be approved"
        }
      },
      "balanceOf(address)": {
        "details": "Gets the balance of the specified address.",
        "params": {
          "owner": "address to query the balance of"
        },
        "return": "uint256 representing the amount owned by the passed address"
      },
      "getApproved(uint256)": {
        "details": "Gets the approved address for a token ID, or zero if no address set Reverts if the token ID does not exist.",
        "params": {
          "tokenId": "uint256 ID of the token to query the approval of"
        },
        "return": "address currently approved for the given token ID"
      },
      "isApprovedForAll(address,address)": {
        "details": "Tells whether an operator is approved by a given owner.",
        "params": {
          "operator": "operator address which you want to query the approval of",
          "owner": "owner address which you want to query the approval of"
        },
        "return": "bool whether the given operator is approved by the given owner"
      },
      "ownerOf(uint256)": {
        "details": "Gets the owner of the specified token ID.",
        "params": {
          "tokenId": "uint256 ID of the token to query the owner of"
        },
        "return": "address currently marked as the owner of the given token ID"
      },
      "setApprovalForAll(address,bool)": {
        "details": "Sets or unsets the approval of a given operator An operator is allowed to transfer all tokens of the sender on their behalf.",
        "params": {
          "approved": "representing the status of the approval to be set",
          "to": "operator address to set the approval"
        }
      },
      "supportsInterface(bytes4)": {
        "details": "See {IERC165-supportsInterface}.     * Time complexity O(1), guaranteed to always use less than 30 000 gas."
      },
      "transferFrom(address,address,uint256)": {
        "details": "Transfers the ownership of a given token ID to another address. Usage of this method is discouraged, use {safeTransferFrom} whenever possible. Requires the msg.sender to be the owner, approved, or operator.",
        "params": {
          "from": "current owner of the token",
          "to": "address to receive the ownership of the given token ID",
          "tokenId": "uint256 ID of the token to be transferred"
        }
      },
      "transferOwnership(address)": {
        "details": "Allows the current owner to transfer control of the contract to a newOwner.",
        "params": {
          "newOwner": "The address to transfer ownership to."
        }
      }
    }
  },
  "userdoc": {
    "methods": {}
  }
}