{
  "contractName": "SpaceOperator",
  "abi": [
    {
      "constant": true,
      "inputs": [],
      "name": "owner",
      "outputs": [
        {
          "internalType": "address",
          "name": "",
          "type": "address"
        }
      ],
      "payable": false,
      "stateMutability": "view",
      "type": "function"
    },
    {
      "constant": true,
      "inputs": [],
      "name": "TGTSToken",
      "outputs": [
        {
          "internalType": "contract External3",
          "name": "",
          "type": "address"
        }
      ],
      "payable": false,
      "stateMutability": "view",
      "type": "function"
    },
    {
      "constant": true,
      "inputs": [
        {
          "internalType": "uint256",
          "name": "",
          "type": "uint256"
        }
      ],
      "name": "mappSpacePrice",
      "outputs": [
        {
          "internalType": "uint256",
          "name": "",
          "type": "uint256"
        }
      ],
      "payable": false,
      "stateMutability": "view",
      "type": "function"
    },
    {
      "constant": true,
      "inputs": [
        {
          "internalType": "uint256",
          "name": "",
          "type": "uint256"
        }
      ],
      "name": "swapOption",
      "outputs": [
        {
          "internalType": "uint256",
          "name": "spaceID",
          "type": "uint256"
        },
        {
          "internalType": "uint256",
          "name": "offer",
          "type": "uint256"
        }
      ],
      "payable": false,
      "stateMutability": "view",
      "type": "function"
    },
    {
      "constant": false,
      "inputs": [
        {
          "internalType": "address",
          "name": "newOwner",
          "type": "address"
        }
      ],
      "name": "transferOwnership",
      "outputs": [],
      "payable": false,
      "stateMutability": "nonpayable",
      "type": "function"
    },
    {
      "constant": true,
      "inputs": [],
      "name": "TGTCToken",
      "outputs": [
        {
          "internalType": "contract External4",
          "name": "",
          "type": "address"
        }
      ],
      "payable": false,
      "stateMutability": "view",
      "type": "function"
    },
    {
      "inputs": [
        {
          "internalType": "address",
          "name": "tgts",
          "type": "address"
        },
        {
          "internalType": "address",
          "name": "tgtc",
          "type": "address"
        }
      ],
      "payable": false,
      "stateMutability": "nonpayable",
      "type": "constructor"
    },
    {
      "anonymous": false,
      "inputs": [
        {
          "indexed": true,
          "internalType": "uint256",
          "name": "a",
          "type": "uint256"
        },
        {
          "indexed": true,
          "internalType": "uint256",
          "name": "b",
          "type": "uint256"
        },
        {
          "indexed": false,
          "internalType": "address",
          "name": "from",
          "type": "address"
        },
        {
          "indexed": true,
          "internalType": "address",
          "name": "to",
          "type": "address"
        },
        {
          "indexed": false,
          "internalType": "uint256",
          "name": "offer",
          "type": "uint256"
        }
      ],
      "name": "swapDemand",
      "type": "event"
    },
    {
      "anonymous": false,
      "inputs": [
        {
          "indexed": true,
          "internalType": "uint256",
          "name": "spaceFrom",
          "type": "uint256"
        },
        {
          "indexed": false,
          "internalType": "uint256",
          "name": "TGTCPrice",
          "type": "uint256"
        }
      ],
      "name": "onSale",
      "type": "event"
    },
    {
      "anonymous": false,
      "inputs": [
        {
          "indexed": true,
          "internalType": "address",
          "name": "previousOwner",
          "type": "address"
        },
        {
          "indexed": true,
          "internalType": "address",
          "name": "newOwner",
          "type": "address"
        }
      ],
      "name": "OwnershipTransferred",
      "type": "event"
    },
    {
      "constant": false,
      "inputs": [
        {
          "internalType": "uint256",
          "name": "spaceFrom",
          "type": "uint256"
        },
        {
          "internalType": "uint256",
          "name": "spaceTo",
          "type": "uint256"
        },
        {
          "internalType": "uint256",
          "name": "optionalTGTCOffer",
          "type": "uint256"
        }
      ],
      "name": "exchangeSpace",
      "outputs": [],
      "payable": false,
      "stateMutability": "nonpayable",
      "type": "function"
    },
    {
      "constant": false,
      "inputs": [
        {
          "internalType": "uint256",
          "name": "spaceFrom",
          "type": "uint256"
        },
        {
          "internalType": "uint256",
          "name": "TGTCPrice",
          "type": "uint256"
        }
      ],
      "name": "sellSpace",
      "outputs": [],
      "payable": false,
      "stateMutability": "nonpayable",
      "type": "function"
    },
    {
      "constant": false,
      "inputs": [
        {
          "internalType": "uint256",
          "name": "spaceFrom",
          "type": "uint256"
        },
        {
          "internalType": "uint256",
          "name": "TGTCAmount",
          "type": "uint256"
        }
      ],
      "name": "buySpace",
      "outputs": [],
      "payable": false,
      "stateMutability": "nonpayable",
      "type": "function"
    }
  ],
  "bytecode": "0x608060405234801561001057600080fd5b506040516112753803806112758339818101604052604081101561003357600080fd5b810190808051906020019092919080519060200190929190505050336000806101000a81548173ffffffffffffffffffffffffffffffffffffffff021916908373ffffffffffffffffffffffffffffffffffffffff16021790555081600460006101000a81548173ffffffffffffffffffffffffffffffffffffffff021916908373ffffffffffffffffffffffffffffffffffffffff16021790555080600360006101000a81548173ffffffffffffffffffffffffffffffffffffffff021916908373ffffffffffffffffffffffffffffffffffffffff1602179055505050611154806101216000396000f3fe608060405234801561001057600080fd5b50600436106100b0576000357c0100000000000000000000000000000000000000000000000000000000900480639400eb25116100835780639400eb25146101c3578063c9db6d84146101fb578063e5be9dd81461023d578063f2fde38b14610286578063f75cc56b146102ca576100b0565b80636703f91c146100b55780636e6a4bba146100f75780638da5cb5b1461012f5780638e9d2bb414610179575b600080fd5b6100f5600480360360608110156100cb57600080fd5b81019080803590602001909291908035906020019092919080359060200190929190505050610314565b005b61012d6004803603604081101561010d57600080fd5b810190808035906020019092919080359060200190929190505050610aaa565b005b610137610bff565b604051808273ffffffffffffffffffffffffffffffffffffffff1673ffffffffffffffffffffffffffffffffffffffff16815260200191505060405180910390f35b610181610c24565b604051808273ffffffffffffffffffffffffffffffffffffffff1673ffffffffffffffffffffffffffffffffffffffff16815260200191505060405180910390f35b6101f9600480360360408110156101d957600080fd5b810190808035906020019092919080359060200190929190505050610c4a565b005b6102276004803603602081101561021157600080fd5b8101908080359060200190929190505050610f82565b6040518082815260200191505060405180910390f35b6102696004803603602081101561025357600080fd5b8101908080359060200190929190505050610f9a565b604051808381526020018281526020019250505060405180910390f35b6102c86004803603602081101561029c57600080fd5b81019080803573ffffffffffffffffffffffffffffffffffffffff169060200190929190505050610fbe565b005b6102d26110f9565b604051808273ffffffffffffffffffffffffffffffffffffffff1673ffffffffffffffffffffffffffffffffffffffff16815260200191505060405180910390f35b6000600460009054906101000a900473ffffffffffffffffffffffffffffffffffffffff1673ffffffffffffffffffffffffffffffffffffffff1663081812fc846040518263ffffffff167c01000000000000000000000000000000000000000000000000000000000281526004018082815260200191505060206040518083038186803b1580156103a557600080fd5b505afa1580156103b9573d6000803e3d6000fd5b505050506040513d60208110156103cf57600080fd5b810190808051906020019092919050505090506000600460009054906101000a900473ffffffffffffffffffffffffffffffffffffffff1673ffffffffffffffffffffffffffffffffffffffff16631710775a6040518163ffffffff167c0100000000000000000000000000000000000000000000000000000000028152600401602060405180830381600087803b15801561046a57600080fd5b505af115801561047e573d6000803e3d6000fd5b505050506040513d602081101561049457600080fd5b8101908080519060200190929190505050905080851180156104b557508084115b6104be57600080fd5b3373ffffffffffffffffffffffffffffffffffffffff16600460009054906101000a900473ffffffffffffffffffffffffffffffffffffffff1673ffffffffffffffffffffffffffffffffffffffff1663081812fc876040518263ffffffff167c01000000000000000000000000000000000000000000000000000000000281526004018082815260200191505060206040518083038186803b15801561056457600080fd5b505afa158015610578573d6000803e3d6000fd5b505050506040513d602081101561058e57600080fd5b810190808051906020019092919050505073ffffffffffffffffffffffffffffffffffffffff161480156105ef5750600073ffffffffffffffffffffffffffffffffffffffff168273ffffffffffffffffffffffffffffffffffffffff1614155b801561062757503373ffffffffffffffffffffffffffffffffffffffff168273ffffffffffffffffffffffffffffffffffffffff1614155b61063057600080fd5b84600160008681526020019081526020016000206000015414156109df57600460009054906101000a900473ffffffffffffffffffffffffffffffffffffffff1673ffffffffffffffffffffffffffffffffffffffff166323b872dd3384886040518463ffffffff167c0100000000000000000000000000000000000000000000000000000000028152600401808473ffffffffffffffffffffffffffffffffffffffff1673ffffffffffffffffffffffffffffffffffffffff1681526020018373ffffffffffffffffffffffffffffffffffffffff1673ffffffffffffffffffffffffffffffffffffffff1681526020018281526020019350505050600060405180830381600087803b15801561074757600080fd5b505af115801561075b573d6000803e3d6000fd5b50505050600460009054906101000a900473ffffffffffffffffffffffffffffffffffffffff1673ffffffffffffffffffffffffffffffffffffffff166323b872dd8333876040518463ffffffff167c0100000000000000000000000000000000000000000000000000000000028152600401808473ffffffffffffffffffffffffffffffffffffffff1673ffffffffffffffffffffffffffffffffffffffff1681526020018373ffffffffffffffffffffffffffffffffffffffff1673ffffffffffffffffffffffffffffffffffffffff1681526020018281526020019350505050600060405180830381600087803b15801561085857600080fd5b505af115801561086c573d6000803e3d6000fd5b5050505060006001600086815260200190815260200160002060010154146109da57600360009054906101000a900473ffffffffffffffffffffffffffffffffffffffff1673ffffffffffffffffffffffffffffffffffffffff166323b872dd338460016000898152602001908152602001600020600101546040518463ffffffff167c0100000000000000000000000000000000000000000000000000000000028152600401808473ffffffffffffffffffffffffffffffffffffffff1673ffffffffffffffffffffffffffffffffffffffff1681526020018373ffffffffffffffffffffffffffffffffffffffff1673ffffffffffffffffffffffffffffffffffffffff1681526020018281526020019350505050602060405180830381600087803b15801561099d57600080fd5b505af11580156109b1573d6000803e3d6000fd5b505050506040513d60208110156109c757600080fd5b8101908080519060200190929190505050505b610aa3565b60008314610a03578260016000868152602001908152602001600020600101819055505b8360016000878152602001908152602001600020600001819055508173ffffffffffffffffffffffffffffffffffffffff1684867f791211140249fe8ff66e7d992eb4353649ea58b9916b3b19ba8e2ed38654853c3387604051808373ffffffffffffffffffffffffffffffffffffffff1673ffffffffffffffffffffffffffffffffffffffff1681526020018281526020019250505060405180910390a45b5050505050565b3373ffffffffffffffffffffffffffffffffffffffff16600460009054906101000a900473ffffffffffffffffffffffffffffffffffffffff1673ffffffffffffffffffffffffffffffffffffffff1663081812fc846040518263ffffffff167c01000000000000000000000000000000000000000000000000000000000281526004018082815260200191505060206040518083038186803b158015610b5057600080fd5b505afa158015610b64573d6000803e3d6000fd5b505050506040513d6020811015610b7a57600080fd5b810190808051906020019092919050505073ffffffffffffffffffffffffffffffffffffffff1614610bab57600080fd5b806002600084815260200190815260200160002081905550817f6c6a648185e78bce86957b13c7ce58dc2d2e825b2c2c452ad941e89b0eeb0aa8826040518082815260200191505060405180910390a25050565b6000809054906101000a900473ffffffffffffffffffffffffffffffffffffffff1681565b600460009054906101000a900473ffffffffffffffffffffffffffffffffffffffff1681565b60026000838152602001908152602001600020548114610c6957600080fd5b6000600460009054906101000a900473ffffffffffffffffffffffffffffffffffffffff1673ffffffffffffffffffffffffffffffffffffffff1663081812fc846040518263ffffffff167c01000000000000000000000000000000000000000000000000000000000281526004018082815260200191505060206040518083038186803b158015610cfa57600080fd5b505afa158015610d0e573d6000803e3d6000fd5b505050506040513d6020811015610d2457600080fd5b81019080805190602001909291905050509050600360009054906101000a900473ffffffffffffffffffffffffffffffffffffffff1673ffffffffffffffffffffffffffffffffffffffff166323b872dd3383856040518463ffffffff167c0100000000000000000000000000000000000000000000000000000000028152600401808473ffffffffffffffffffffffffffffffffffffffff1673ffffffffffffffffffffffffffffffffffffffff1681526020018373ffffffffffffffffffffffffffffffffffffffff1673ffffffffffffffffffffffffffffffffffffffff1681526020018281526020019350505050602060405180830381600087803b158015610e3057600080fd5b505af1158015610e44573d6000803e3d6000fd5b505050506040513d6020811015610e5a57600080fd5b810190808051906020019092919050505050600460009054906101000a900473ffffffffffffffffffffffffffffffffffffffff1673ffffffffffffffffffffffffffffffffffffffff166323b872dd8233866040518463ffffffff167c0100000000000000000000000000000000000000000000000000000000028152600401808473ffffffffffffffffffffffffffffffffffffffff1673ffffffffffffffffffffffffffffffffffffffff1681526020018373ffffffffffffffffffffffffffffffffffffffff1673ffffffffffffffffffffffffffffffffffffffff1681526020018281526020019350505050600060405180830381600087803b158015610f6557600080fd5b505af1158015610f79573d6000803e3d6000fd5b50505050505050565b60026020528060005260406000206000915090505481565b60016020528060005260406000206000915090508060000154908060010154905082565b6000809054906101000a900473ffffffffffffffffffffffffffffffffffffffff1673ffffffffffffffffffffffffffffffffffffffff163373ffffffffffffffffffffffffffffffffffffffff161461101757600080fd5b60658173ffffffffffffffffffffffffffffffffffffffff16311461103b57600080fd5b8073ffffffffffffffffffffffffffffffffffffffff166000809054906101000a900473ffffffffffffffffffffffffffffffffffffffff1673ffffffffffffffffffffffffffffffffffffffff167f8be0079c531659141344cd1fd0a4f28419497f9722a3daafe3b4186f6b6457e060405160405180910390a3806000806101000a81548173ffffffffffffffffffffffffffffffffffffffff021916908373ffffffffffffffffffffffffffffffffffffffff16021790555050565b600360009054906101000a900473ffffffffffffffffffffffffffffffffffffffff168156fea265627a7a723158208f43c62f649678304ca63c1ca030c2901710bcba0a472cf8cd20e8b26974c4a564736f6c634300050b0032",
  "source": "pragma solidity ^0.5.0;\n\nimport \"../owner/Ownable.sol\";\n\ninterface External3 {\n  function transferFrom(address from, address to, uint256 tokenId) external;\n  function getLastSpaceID() external returns (uint);\n  function getApproved(uint256 tokenId) external view returns (address);\n}\n\ninterface External4 {\n  function transferFrom(address from, address to, uint256 value) external returns (bool);\n}\n\ncontract SpaceOperator is Ownable {\n\n  event swapDemand(uint indexed a, uint indexed b, address from, address indexed to, uint offer);\n  event onSale(uint indexed spaceFrom, uint TGTCPrice);\n\n  mapping (uint => option) public swapOption;\n  mapping (uint => uint) public mappSpacePrice;\n\n  struct option\n  {\n    uint spaceID;\n    uint offer;\n  }\n\n  External4 public TGTCToken;\n  External3 public TGTSToken;\n\n  constructor(address tgts, address tgtc) public {\n    owner = msg.sender;\n    TGTSToken = External3(tgts);\n    TGTCToken = External4(tgtc);\n  }\n\n  function exchangeSpace(uint spaceFrom, uint spaceTo, uint optionalTGTCOffer) public\n  {\n    address addressTo = TGTSToken.getApproved(spaceTo);\n    uint spaceID = TGTSToken.getLastSpaceID();\n    require(spaceFrom > spaceID && spaceTo > spaceID);\n    require(TGTSToken.getApproved(spaceFrom) == msg.sender\n            && addressTo != address(0) && addressTo != msg.sender);\n    if (swapOption[spaceTo].spaceID == spaceFrom)\n    {\n      TGTSToken.transferFrom(msg.sender,addressTo,spaceFrom);\n      TGTSToken.transferFrom(addressTo,msg.sender,spaceTo);\n      if (swapOption[spaceTo].offer != 0)\n      {\n        TGTCToken.transferFrom(msg.sender,addressTo,swapOption[spaceTo].offer);\n      }\n    }\n    else\n    {\n      if (optionalTGTCOffer != 0)\n      {\n        swapOption[spaceTo].offer = optionalTGTCOffer;\n      }\n      swapOption[spaceFrom].spaceID = spaceTo;\n      emit swapDemand(spaceFrom,spaceTo,msg.sender,addressTo,optionalTGTCOffer);\n    }\n  }\n\n  function sellSpace(uint spaceFrom, uint TGTCPrice) public\n  {\n    require(TGTSToken.getApproved(spaceFrom) == msg.sender);\n    mappSpacePrice[spaceFrom] = TGTCPrice;\n    emit onSale(spaceFrom,TGTCPrice);\n  }\n\n  function buySpace(uint spaceFrom, uint TGTCAmount) public\n  {\n    require(TGTCAmount == mappSpacePrice[spaceFrom]);\n    address target = TGTSToken.getApproved(spaceFrom);\n    TGTCToken.transferFrom(msg.sender,target,TGTCAmount); // faire balance/approve dans app\n    TGTSToken.transferFrom(target,msg.sender,spaceFrom);\n  }\n\n}\n",
  "sourcePath": "/Users/germaindacunha/Desktop/App_Togethers/contracts/main/SpaceOperator.sol",
  "compiler": {
    "name": "solc",
    "version": "0.5.11+commit.c082d0b4.Emscripten.clang"
  },
  "schemaVersion": "3.0.9",
  "updatedAt": "2019-11-19T11:25:17.784Z",
  "devdoc": {
    "methods": {
      "transferOwnership(address)": {
        "details": "Allows the current owner to transfer control of the contract to a newOwner.",
        "params": {
          "newOwner": "The address to transfer ownership to."
        }
      }
    }
  },
  "userdoc": {
    "methods": {}
  }
}