{
  "contractName": "Togethers",
  "abi": [
    {
      "constant": true,
      "inputs": [
        {
          "internalType": "address",
          "name": "",
          "type": "address"
        },
        {
          "internalType": "address",
          "name": "",
          "type": "address"
        },
        {
          "internalType": "uint256",
          "name": "",
          "type": "uint256"
        }
      ],
      "name": "mappStatsPeerToPeer",
      "outputs": [
        {
          "internalType": "uint256",
          "name": "",
          "type": "uint256"
        }
      ],
      "payable": false,
      "stateMutability": "view",
      "type": "function"
    },
    {
      "constant": true,
      "inputs": [
        {
          "internalType": "address",
          "name": "",
          "type": "address"
        }
      ],
      "name": "mappAddressToUser",
      "outputs": [
        {
          "internalType": "string",
          "name": "name",
          "type": "string"
        },
        {
          "internalType": "string",
          "name": "pseudo",
          "type": "string"
        },
        {
          "internalType": "string",
          "name": "ipfsImage",
          "type": "string"
        },
        {
          "internalType": "uint256",
          "name": "language",
          "type": "uint256"
        }
      ],
      "payable": false,
      "stateMutability": "view",
      "type": "function"
    },
    {
      "constant": false,
      "inputs": [
        {
          "internalType": "uint256",
          "name": "_index",
          "type": "uint256"
        }
      ],
      "name": "enableCrypto",
      "outputs": [],
      "payable": false,
      "stateMutability": "nonpayable",
      "type": "function"
    },
    {
      "constant": true,
      "inputs": [
        {
          "internalType": "uint256",
          "name": "",
          "type": "uint256"
        },
        {
          "internalType": "address",
          "name": "",
          "type": "address"
        }
      ],
      "name": "mappProfileInGroup",
      "outputs": [
        {
          "internalType": "bool",
          "name": "isMember",
          "type": "bool"
        },
        {
          "internalType": "bool",
          "name": "open",
          "type": "bool"
        },
        {
          "internalType": "bool",
          "name": "owner",
          "type": "bool"
        },
        {
          "internalType": "uint256",
          "name": "DemandID",
          "type": "uint256"
        }
      ],
      "payable": false,
      "stateMutability": "view",
      "type": "function"
    },
    {
      "constant": false,
      "inputs": [
        {
          "internalType": "string",
          "name": "name",
          "type": "string"
        },
        {
          "internalType": "string",
          "name": "symbol",
          "type": "string"
        },
        {
          "internalType": "address",
          "name": "_address",
          "type": "address"
        },
        {
          "internalType": "uint256",
          "name": "decimal",
          "type": "uint256"
        }
      ],
      "name": "useNewToken",
      "outputs": [],
      "payable": false,
      "stateMutability": "nonpayable",
      "type": "function"
    },
    {
      "constant": true,
      "inputs": [
        {
          "internalType": "uint256",
          "name": "",
          "type": "uint256"
        },
        {
          "internalType": "address",
          "name": "",
          "type": "address"
        },
        {
          "internalType": "uint256",
          "name": "",
          "type": "uint256"
        }
      ],
      "name": "mappGiven",
      "outputs": [
        {
          "internalType": "uint256",
          "name": "",
          "type": "uint256"
        }
      ],
      "payable": false,
      "stateMutability": "view",
      "type": "function"
    },
    {
      "constant": true,
      "inputs": [
        {
          "internalType": "uint256",
          "name": "",
          "type": "uint256"
        }
      ],
      "name": "stopCrypto",
      "outputs": [
        {
          "internalType": "bool",
          "name": "",
          "type": "bool"
        }
      ],
      "payable": false,
      "stateMutability": "view",
      "type": "function"
    },
    {
      "constant": true,
      "inputs": [
        {
          "internalType": "uint256",
          "name": "",
          "type": "uint256"
        }
      ],
      "name": "checkGroupUnicity",
      "outputs": [
        {
          "internalType": "address",
          "name": "",
          "type": "address"
        }
      ],
      "payable": false,
      "stateMutability": "view",
      "type": "function"
    },
    {
      "constant": true,
      "inputs": [
        {
          "internalType": "uint256",
          "name": "index",
          "type": "uint256"
        }
      ],
      "name": "getTokenAddress",
      "outputs": [
        {
          "internalType": "address",
          "name": "",
          "type": "address"
        }
      ],
      "payable": false,
      "stateMutability": "view",
      "type": "function"
    },
    {
      "constant": true,
      "inputs": [
        {
          "internalType": "uint256",
          "name": "index",
          "type": "uint256"
        }
      ],
      "name": "getTokenSymbol",
      "outputs": [
        {
          "internalType": "string",
          "name": "",
          "type": "string"
        }
      ],
      "payable": false,
      "stateMutability": "view",
      "type": "function"
    },
    {
      "constant": true,
      "inputs": [
        {
          "internalType": "uint256",
          "name": "",
          "type": "uint256"
        }
      ],
      "name": "mappNbDemandsInGroup",
      "outputs": [
        {
          "internalType": "uint256",
          "name": "",
          "type": "uint256"
        }
      ],
      "payable": false,
      "stateMutability": "view",
      "type": "function"
    },
    {
      "constant": true,
      "inputs": [],
      "name": "owner",
      "outputs": [
        {
          "internalType": "address",
          "name": "",
          "type": "address"
        }
      ],
      "payable": false,
      "stateMutability": "view",
      "type": "function"
    },
    {
      "constant": true,
      "inputs": [],
      "name": "TGTSToken",
      "outputs": [
        {
          "internalType": "contract External2",
          "name": "",
          "type": "address"
        }
      ],
      "payable": false,
      "stateMutability": "view",
      "type": "function"
    },
    {
      "constant": false,
      "inputs": [
        {
          "internalType": "uint256",
          "name": "_index",
          "type": "uint256"
        }
      ],
      "name": "protectCrypto",
      "outputs": [],
      "payable": false,
      "stateMutability": "nonpayable",
      "type": "function"
    },
    {
      "constant": true,
      "inputs": [
        {
          "internalType": "address",
          "name": "",
          "type": "address"
        },
        {
          "internalType": "uint256",
          "name": "",
          "type": "uint256"
        }
      ],
      "name": "mappAskForAdd",
      "outputs": [
        {
          "internalType": "bool",
          "name": "",
          "type": "bool"
        }
      ],
      "payable": false,
      "stateMutability": "view",
      "type": "function"
    },
    {
      "constant": true,
      "inputs": [
        {
          "internalType": "uint256",
          "name": "",
          "type": "uint256"
        }
      ],
      "name": "disableCrypto",
      "outputs": [
        {
          "internalType": "bool",
          "name": "",
          "type": "bool"
        }
      ],
      "payable": false,
      "stateMutability": "view",
      "type": "function"
    },
    {
      "constant": true,
      "inputs": [
        {
          "internalType": "uint256",
          "name": "",
          "type": "uint256"
        },
        {
          "internalType": "uint256",
          "name": "",
          "type": "uint256"
        }
      ],
      "name": "mappUsersInGroup",
      "outputs": [
        {
          "internalType": "address",
          "name": "",
          "type": "address"
        }
      ],
      "payable": false,
      "stateMutability": "view",
      "type": "function"
    },
    {
      "constant": true,
      "inputs": [
        {
          "internalType": "uint256",
          "name": "",
          "type": "uint256"
        }
      ],
      "name": "checkNameUnicity",
      "outputs": [
        {
          "internalType": "address",
          "name": "",
          "type": "address"
        }
      ],
      "payable": false,
      "stateMutability": "view",
      "type": "function"
    },
    {
      "constant": true,
      "inputs": [],
      "name": "ID",
      "outputs": [
        {
          "internalType": "uint256",
          "name": "",
          "type": "uint256"
        }
      ],
      "payable": false,
      "stateMutability": "view",
      "type": "function"
    },
    {
      "constant": true,
      "inputs": [
        {
          "internalType": "uint256",
          "name": "",
          "type": "uint256"
        }
      ],
      "name": "mappSpaceInfo",
      "outputs": [
        {
          "internalType": "string",
          "name": "description",
          "type": "string"
        },
        {
          "internalType": "uint256",
          "name": "language",
          "type": "uint256"
        }
      ],
      "payable": false,
      "stateMutability": "view",
      "type": "function"
    },
    {
      "constant": true,
      "inputs": [
        {
          "internalType": "uint256",
          "name": "",
          "type": "uint256"
        }
      ],
      "name": "mappGroupIDToGroupName",
      "outputs": [
        {
          "internalType": "string",
          "name": "",
          "type": "string"
        }
      ],
      "payable": false,
      "stateMutability": "view",
      "type": "function"
    },
    {
      "constant": true,
      "inputs": [
        {
          "internalType": "uint256",
          "name": "index",
          "type": "uint256"
        }
      ],
      "name": "getTokenDecimal",
      "outputs": [
        {
          "internalType": "uint256",
          "name": "",
          "type": "uint256"
        }
      ],
      "payable": false,
      "stateMutability": "view",
      "type": "function"
    },
    {
      "constant": true,
      "inputs": [],
      "name": "tgtcAmount",
      "outputs": [
        {
          "internalType": "uint256",
          "name": "",
          "type": "uint256"
        }
      ],
      "payable": false,
      "stateMutability": "view",
      "type": "function"
    },
    {
      "constant": true,
      "inputs": [
        {
          "internalType": "uint256",
          "name": "index",
          "type": "uint256"
        }
      ],
      "name": "getTokenName",
      "outputs": [
        {
          "internalType": "string",
          "name": "",
          "type": "string"
        }
      ],
      "payable": false,
      "stateMutability": "view",
      "type": "function"
    },
    {
      "constant": true,
      "inputs": [],
      "name": "getSize",
      "outputs": [
        {
          "internalType": "uint256",
          "name": "",
          "type": "uint256"
        }
      ],
      "payable": false,
      "stateMutability": "view",
      "type": "function"
    },
    {
      "constant": true,
      "inputs": [
        {
          "internalType": "address",
          "name": "",
          "type": "address"
        },
        {
          "internalType": "uint256",
          "name": "",
          "type": "uint256"
        }
      ],
      "name": "mappGroupsForAddress",
      "outputs": [
        {
          "internalType": "uint256",
          "name": "",
          "type": "uint256"
        }
      ],
      "payable": false,
      "stateMutability": "view",
      "type": "function"
    },
    {
      "constant": false,
      "inputs": [
        {
          "internalType": "address",
          "name": "newOwner",
          "type": "address"
        }
      ],
      "name": "transferOwnership",
      "outputs": [],
      "payable": false,
      "stateMutability": "nonpayable",
      "type": "function"
    },
    {
      "constant": true,
      "inputs": [
        {
          "internalType": "uint256",
          "name": "",
          "type": "uint256"
        },
        {
          "internalType": "address",
          "name": "",
          "type": "address"
        },
        {
          "internalType": "uint256",
          "name": "",
          "type": "uint256"
        }
      ],
      "name": "mappLockPay",
      "outputs": [
        {
          "internalType": "uint256",
          "name": "",
          "type": "uint256"
        }
      ],
      "payable": false,
      "stateMutability": "view",
      "type": "function"
    },
    {
      "constant": true,
      "inputs": [],
      "name": "TGTCToken",
      "outputs": [
        {
          "internalType": "contract External2",
          "name": "",
          "type": "address"
        }
      ],
      "payable": false,
      "stateMutability": "view",
      "type": "function"
    },
    {
      "inputs": [
        {
          "internalType": "address",
          "name": "tgtc",
          "type": "address"
        }
      ],
      "payable": false,
      "stateMutability": "nonpayable",
      "type": "constructor"
    },
    {
      "anonymous": false,
      "inputs": [
        {
          "indexed": true,
          "internalType": "uint256",
          "name": "ID",
          "type": "uint256"
        }
      ],
      "name": "newDemand",
      "type": "event"
    },
    {
      "anonymous": false,
      "inputs": [
        {
          "indexed": true,
          "internalType": "uint256",
          "name": "ID",
          "type": "uint256"
        }
      ],
      "name": "payDemand",
      "type": "event"
    },
    {
      "anonymous": false,
      "inputs": [
        {
          "indexed": true,
          "internalType": "uint256",
          "name": "ID",
          "type": "uint256"
        }
      ],
      "name": "endDemand",
      "type": "event"
    },
    {
      "anonymous": false,
      "inputs": [
        {
          "indexed": true,
          "internalType": "address",
          "name": "previousOwner",
          "type": "address"
        },
        {
          "indexed": true,
          "internalType": "address",
          "name": "newOwner",
          "type": "address"
        }
      ],
      "name": "OwnershipTransferred",
      "type": "event"
    },
    {
      "constant": true,
      "inputs": [
        {
          "internalType": "string",
          "name": "_char",
          "type": "string"
        }
      ],
      "name": "returnHash",
      "outputs": [
        {
          "internalType": "uint256",
          "name": "",
          "type": "uint256"
        }
      ],
      "payable": false,
      "stateMutability": "pure",
      "type": "function"
    },
    {
      "constant": false,
      "inputs": [
        {
          "internalType": "address",
          "name": "_tgts",
          "type": "address"
        }
      ],
      "name": "setThirdParty",
      "outputs": [],
      "payable": false,
      "stateMutability": "nonpayable",
      "type": "function"
    },
    {
      "constant": false,
      "inputs": [
        {
          "internalType": "string",
          "name": "_groupName",
          "type": "string"
        }
      ],
      "name": "ask",
      "outputs": [],
      "payable": false,
      "stateMutability": "nonpayable",
      "type": "function"
    },
    {
      "constant": false,
      "inputs": [
        {
          "internalType": "uint256",
          "name": "_groupID",
          "type": "uint256"
        },
        {
          "internalType": "address",
          "name": "newOwner",
          "type": "address"
        }
      ],
      "name": "transferGroupOwnership",
      "outputs": [],
      "payable": false,
      "stateMutability": "nonpayable",
      "type": "function"
    },
    {
      "constant": false,
      "inputs": [
        {
          "internalType": "string",
          "name": "_pseudo",
          "type": "string"
        },
        {
          "internalType": "string",
          "name": "_ipfsImage",
          "type": "string"
        },
        {
          "internalType": "string",
          "name": "_userName",
          "type": "string"
        },
        {
          "internalType": "uint256",
          "name": "_language",
          "type": "uint256"
        }
      ],
      "name": "setUser",
      "outputs": [],
      "payable": false,
      "stateMutability": "nonpayable",
      "type": "function"
    },
    {
      "constant": false,
      "inputs": [
        {
          "internalType": "string",
          "name": "_groupName",
          "type": "string"
        }
      ],
      "name": "createGroup",
      "outputs": [],
      "payable": false,
      "stateMutability": "nonpayable",
      "type": "function"
    },
    {
      "constant": false,
      "inputs": [
        {
          "internalType": "uint256",
          "name": "groupID",
          "type": "uint256"
        },
        {
          "internalType": "string",
          "name": "_pseudo",
          "type": "string"
        }
      ],
      "name": "createProfile",
      "outputs": [],
      "payable": false,
      "stateMutability": "nonpayable",
      "type": "function"
    },
    {
      "constant": false,
      "inputs": [
        {
          "internalType": "uint256[]",
          "name": "groupID",
          "type": "uint256[]"
        },
        {
          "internalType": "string",
          "name": "_description",
          "type": "string"
        }
      ],
      "name": "askForFunds",
      "outputs": [],
      "payable": false,
      "stateMutability": "nonpayable",
      "type": "function"
    },
    {
      "constant": false,
      "inputs": [
        {
          "internalType": "address",
          "name": "_publicKey",
          "type": "address"
        },
        {
          "internalType": "uint256",
          "name": "groupID",
          "type": "uint256"
        },
        {
          "internalType": "uint256",
          "name": "_tokenAmount",
          "type": "uint256"
        },
        {
          "internalType": "uint256",
          "name": "_crypto",
          "type": "uint256"
        }
      ],
      "name": "payForFunds",
      "outputs": [],
      "payable": true,
      "stateMutability": "payable",
      "type": "function"
    },
    {
      "constant": false,
      "inputs": [
        {
          "internalType": "uint256",
          "name": "groupID",
          "type": "uint256"
        }
      ],
      "name": "withdrawFunds",
      "outputs": [],
      "payable": false,
      "stateMutability": "nonpayable",
      "type": "function"
    },
    {
      "constant": false,
      "inputs": [
        {
          "internalType": "address",
          "name": "_publicKey",
          "type": "address"
        },
        {
          "internalType": "uint256",
          "name": "groupID",
          "type": "uint256"
        }
      ],
      "name": "removeMember",
      "outputs": [],
      "payable": false,
      "stateMutability": "nonpayable",
      "type": "function"
    },
    {
      "constant": false,
      "inputs": [
        {
          "internalType": "uint256",
          "name": "_groupID",
          "type": "uint256"
        }
      ],
      "name": "quitGroup",
      "outputs": [],
      "payable": false,
      "stateMutability": "nonpayable",
      "type": "function"
    },
    {
      "constant": true,
      "inputs": [
        {
          "internalType": "uint256",
          "name": "_group",
          "type": "uint256"
        },
        {
          "internalType": "uint256",
          "name": "_num",
          "type": "uint256"
        }
      ],
      "name": "getUserName",
      "outputs": [
        {
          "internalType": "string",
          "name": "",
          "type": "string"
        }
      ],
      "payable": false,
      "stateMutability": "view",
      "type": "function"
    },
    {
      "constant": true,
      "inputs": [
        {
          "internalType": "uint256",
          "name": "_group",
          "type": "uint256"
        },
        {
          "internalType": "uint256",
          "name": "_num",
          "type": "uint256"
        }
      ],
      "name": "getUserName2",
      "outputs": [
        {
          "internalType": "string",
          "name": "",
          "type": "string"
        }
      ],
      "payable": false,
      "stateMutability": "view",
      "type": "function"
    },
    {
      "constant": true,
      "inputs": [
        {
          "internalType": "uint256",
          "name": "_num",
          "type": "uint256"
        }
      ],
      "name": "getGroup",
      "outputs": [
        {
          "internalType": "string",
          "name": "",
          "type": "string"
        }
      ],
      "payable": false,
      "stateMutability": "view",
      "type": "function"
    },
    {
      "constant": true,
      "inputs": [
        {
          "internalType": "uint256",
          "name": "_group",
          "type": "uint256"
        },
        {
          "internalType": "uint256",
          "name": "_num",
          "type": "uint256"
        }
      ],
      "name": "getUserAddress",
      "outputs": [
        {
          "internalType": "address",
          "name": "",
          "type": "address"
        }
      ],
      "payable": false,
      "stateMutability": "view",
      "type": "function"
    },
    {
      "constant": true,
      "inputs": [
        {
          "internalType": "uint256",
          "name": "_num",
          "type": "uint256"
        }
      ],
      "name": "getGroupID",
      "outputs": [
        {
          "internalType": "uint256",
          "name": "",
          "type": "uint256"
        }
      ],
      "payable": false,
      "stateMutability": "view",
      "type": "function"
    },
    {
      "constant": true,
      "inputs": [],
      "name": "getGroupsLength",
      "outputs": [
        {
          "internalType": "uint256",
          "name": "",
          "type": "uint256"
        }
      ],
      "payable": false,
      "stateMutability": "view",
      "type": "function"
    },
    {
      "constant": true,
      "inputs": [
        {
          "internalType": "uint256",
          "name": "_group",
          "type": "uint256"
        }
      ],
      "name": "getUsersLength",
      "outputs": [
        {
          "internalType": "uint256",
          "name": "",
          "type": "uint256"
        }
      ],
      "payable": false,
      "stateMutability": "view",
      "type": "function"
    }
  ],
  "bytecode": "0x60806040523480156200001157600080fd5b5060405162005f3f38038062005f3f833981810160405260208110156200003757600080fd5b8101908080519060200190929190505050336000806101000a81548173ffffffffffffffffffffffffffffffffffffffff021916908373ffffffffffffffffffffffffffffffffffffffff16021790555080600160006101000a81548173ffffffffffffffffffffffffffffffffffffffff021916908373ffffffffffffffffffffffffffffffffffffffff16021790555050615e6580620000da6000396000f3fe6080604052600436106102b0576000357c0100000000000000000000000000000000000000000000000000000000900480638e9d2bb411610177578063cc26f99f116100de578063de8fa43111610097578063de8fa43114611a18578063debc5fc714611a43578063e500045e14611ab2578063f2fde38b14611c0e578063f5dd443714611c5f578063f75cc56b14611cd8576102b0565b8063cc26f99f14611692578063ceb606541461176e578063d39eda2a14611822578063db0c6dc214611871578063dbe16c071461189c578063dc2ddcae14611950576102b0565b8063af9f558211610130578063af9f558214611242578063b3cea217146112bd578063bc16ad5a146112e8578063bdc7070f146113a3578063caefe5c714611457578063cb6d308a14611492576102b0565b80638e9d2bb4146110035780639498b37a1461105a578063a44e1fce14611095578063a4c66c5314611108578063a4d02b9d1461115b578063a61a89dc146111e0576102b0565b80634e6350621161021b578063719a1b46116101d4578063719a1b4614610dae57806376c32fe514610dfd5780637b78bd3f14610e4e578063890abf4114610f025780638b9eab6f14610f5d5780638da5cb5b14610fac576102b0565b80634e63506214610af75780635d641b6714610bb55780636378a6c814610c0857806366398a3e14610c8d57806367ccdf3814610d085780636d3524f514610d83576102b0565b8063189bf94f1161026d578063189bf94f1461067c578063259b798f14610744578063341f09d4146107d45780634004db201461082357806344359240146109ac57806345946a2314610a25576102b0565b806301a28959146102b5578063039646ac1461034457806311f733ee146104ed578063146e3a16146105ab578063155dd5ee146105e657806316f6f03e14610621575b600080fd5b3480156102c157600080fd5b5061032e600480360360608110156102d857600080fd5b81019080803573ffffffffffffffffffffffffffffffffffffffff169060200190929190803573ffffffffffffffffffffffffffffffffffffffff16906020019092919080359060200190929190505050611d2f565b6040518082815260200191505060405180910390f35b34801561035057600080fd5b506103936004803603602081101561036757600080fd5b81019080803573ffffffffffffffffffffffffffffffffffffffff169060200190929190505050611d61565b60405180806020018060200180602001858152602001848103845288818151815260200191508051906020019080838360005b838110156103e15780820151818401526020810190506103c6565b50505050905090810190601f16801561040e5780820380516001836020036101000a031916815260200191505b50848103835287818151815260200191508051906020019080838360005b8381101561044757808201518184015260208101905061042c565b50505050905090810190601f1680156104745780820380516001836020036101000a031916815260200191505b50848103825286818151815260200191508051906020019080838360005b838110156104ad578082015181840152602081019050610492565b50505050905090810190601f1680156104da5780820380516001836020036101000a031916815260200191505b5097505050505050505060405180910390f35b3480156104f957600080fd5b506105306004803603604081101561051057600080fd5b810190808035906020019092919080359060200190929190505050611f59565b6040518080602001828103825283818151815260200191508051906020019080838360005b83811015610570578082015181840152602081019050610555565b50505050905090810190601f16801561059d5780820380516001836020036101000a031916815260200191505b509250505060405180910390f35b3480156105b757600080fd5b506105e4600480360360208110156105ce57600080fd5b81019080803590602001909291905050506120ad565b005b3480156105f257600080fd5b5061061f6004803603602081101561060957600080fd5b81019080803590602001909291905050506121c0565b005b34801561062d57600080fd5b5061067a6004803603604081101561064457600080fd5b81019080803573ffffffffffffffffffffffffffffffffffffffff169060200190929190803590602001909291905050506129a4565b005b34801561068857600080fd5b506107426004803603602081101561069f57600080fd5b81019080803590602001906401000000008111156106bc57600080fd5b8201836020820111156106ce57600080fd5b803590602001918460018302840111640100000000831117156106f057600080fd5b91908080601f016020809104026020016040519081016040528093929190818152602001838380828437600081840152601f19601f820116905080830192505050505050509192919290505050612b3e565b005b34801561075057600080fd5b5061079d6004803603604081101561076757600080fd5b8101908080359060200190929190803573ffffffffffffffffffffffffffffffffffffffff169060200190929190505050612c8b565b6040518085151515158152602001841515151581526020018315151515815260200182815260200194505050505060405180910390f35b3480156107e057600080fd5b5061080d600480360360208110156107f757600080fd5b8101908080359060200190929190505050612cef565b6040518082815260200191505060405180910390f35b34801561082f57600080fd5b506109aa6004803603608081101561084657600080fd5b810190808035906020019064010000000081111561086357600080fd5b82018360208201111561087557600080fd5b8035906020019184600183028401116401000000008311171561089757600080fd5b91908080601f016020809104026020016040519081016040528093929190818152602001838380828437600081840152601f19601f820116905080830192505050505050509192919290803590602001906401000000008111156108fa57600080fd5b82018360208201111561090c57600080fd5b8035906020019184600183028401116401000000008311171561092e57600080fd5b91908080601f016020809104026020016040519081016040528093929190818152602001838380828437600081840152601f19601f820116905080830192505050505050509192919290803573ffffffffffffffffffffffffffffffffffffffff16906020019092919080359060200190929190505050612d4d565b005b3480156109b857600080fd5b50610a0f600480360360608110156109cf57600080fd5b8101908080359060200190929190803573ffffffffffffffffffffffffffffffffffffffff16906020019092919080359060200190929190505050612ed8565b6040518082815260200191505060405180910390f35b348015610a3157600080fd5b50610af560048036036040811015610a4857600080fd5b810190808035906020019092919080359060200190640100000000811115610a6f57600080fd5b820183602082011115610a8157600080fd5b80359060200191846001830284011164010000000083111715610aa357600080fd5b91908080601f016020809104026020016040519081016040528093929190818152602001838380828437600081840152601f19601f820116905080830192505050505050509192919290505050612f0a565b005b348015610b0357600080fd5b50610b3a60048036036040811015610b1a57600080fd5b8101908080359060200190929190803590602001909291905050506130d8565b6040518080602001828103825283818151815260200191508051906020019080838360005b83811015610b7a578082015181840152602081019050610b5f565b50505050905090810190601f168015610ba75780820380516001836020036101000a031916815260200191505b509250505060405180910390f35b348015610bc157600080fd5b50610bee60048036036020811015610bd857600080fd5b810190808035906020019092919050505061322c565b604051808215151515815260200191505060405180910390f35b348015610c1457600080fd5b50610c4b60048036036040811015610c2b57600080fd5b81019080803590602001909291908035906020019092919050505061324c565b604051808273ffffffffffffffffffffffffffffffffffffffff1673ffffffffffffffffffffffffffffffffffffffff16815260200191505060405180910390f35b348015610c9957600080fd5b50610cc660048036036020811015610cb057600080fd5b81019080803590602001909291905050506132b8565b604051808273ffffffffffffffffffffffffffffffffffffffff1673ffffffffffffffffffffffffffffffffffffffff16815260200191505060405180910390f35b348015610d1457600080fd5b50610d4160048036036020811015610d2b57600080fd5b81019080803590602001909291905050506132eb565b604051808273ffffffffffffffffffffffffffffffffffffffff1673ffffffffffffffffffffffffffffffffffffffff16815260200191505060405180910390f35b348015610d8f57600080fd5b50610d98613333565b6040518082815260200191505060405180910390f35b348015610dba57600080fd5b50610de760048036036020811015610dd157600080fd5b810190808035906020019092919050505061337d565b6040518082815260200191505060405180910390f35b348015610e0957600080fd5b50610e4c60048036036020811015610e2057600080fd5b81019080803573ffffffffffffffffffffffffffffffffffffffff16906020019092919050505061339d565b005b348015610e5a57600080fd5b50610e8760048036036020811015610e7157600080fd5b8101908080359060200190929190505050613505565b6040518080602001828103825283818151815260200191508051906020019080838360005b83811015610ec7578082015181840152602081019050610eac565b50505050905090810190601f168015610ef45780820380516001836020036101000a031916815260200191505b509250505060405180910390f35b348015610f0e57600080fd5b50610f5b60048036036040811015610f2557600080fd5b8101908080359060200190929190803573ffffffffffffffffffffffffffffffffffffffff1690602001909291905050506135c5565b005b348015610f6957600080fd5b50610f9660048036036020811015610f8057600080fd5b8101908080359060200190929190505050613783565b6040518082815260200191505060405180910390f35b348015610fb857600080fd5b50610fc161379b565b604051808273ffffffffffffffffffffffffffffffffffffffff1673ffffffffffffffffffffffffffffffffffffffff16815260200191505060405180910390f35b34801561100f57600080fd5b506110186137c0565b604051808273ffffffffffffffffffffffffffffffffffffffff1673ffffffffffffffffffffffffffffffffffffffff16815260200191505060405180910390f35b34801561106657600080fd5b506110936004803603602081101561107d57600080fd5b81019080803590602001909291905050506137e6565b005b3480156110a157600080fd5b506110ee600480360360408110156110b857600080fd5b81019080803573ffffffffffffffffffffffffffffffffffffffff169060200190929190803590602001909291905050506138fd565b604051808215151515815260200191505060405180910390f35b34801561111457600080fd5b506111416004803603602081101561112b57600080fd5b810190808035906020019092919050505061392c565b604051808215151515815260200191505060405180910390f35b34801561116757600080fd5b5061119e6004803603604081101561117e57600080fd5b81019080803590602001909291908035906020019092919050505061394c565b604051808273ffffffffffffffffffffffffffffffffffffffff1673ffffffffffffffffffffffffffffffffffffffff16815260200191505060405180910390f35b611240600480360360808110156111f657600080fd5b81019080803573ffffffffffffffffffffffffffffffffffffffff169060200190929190803590602001909291908035906020019092919080359060200190929190505050613997565b005b34801561124e57600080fd5b5061127b6004803603602081101561126557600080fd5b8101908080359060200190929190505050613f43565b604051808273ffffffffffffffffffffffffffffffffffffffff1673ffffffffffffffffffffffffffffffffffffffff16815260200191505060405180910390f35b3480156112c957600080fd5b506112d2613f76565b6040518082815260200191505060405180910390f35b3480156112f457600080fd5b506113216004803603602081101561130b57600080fd5b8101908080359060200190929190505050613f7c565b6040518080602001838152602001828103825284818151815260200191508051906020019080838360005b8381101561136757808201518184015260208101905061134c565b50505050905090810190601f1680156113945780820380516001836020036101000a031916815260200191505b50935050505060405180910390f35b3480156113af57600080fd5b506113dc600480360360208110156113c657600080fd5b8101908080359060200190929190505050614038565b6040518080602001828103825283818151815260200191508051906020019080838360005b8381101561141c578082015181840152602081019050611401565b50505050905090810190601f1680156114495780820380516001836020036101000a031916815260200191505b509250505060405180910390f35b34801561146357600080fd5b506114906004803603602081101561147a57600080fd5b81019080803590602001909291905050506140e8565b005b34801561149e57600080fd5b50611690600480360360808110156114b557600080fd5b81019080803590602001906401000000008111156114d257600080fd5b8201836020820111156114e457600080fd5b8035906020019184600183028401116401000000008311171561150657600080fd5b91908080601f016020809104026020016040519081016040528093929190818152602001838380828437600081840152601f19601f8201169050808301925050505050505091929192908035906020019064010000000081111561156957600080fd5b82018360208201111561157b57600080fd5b8035906020019184600183028401116401000000008311171561159d57600080fd5b91908080601f016020809104026020016040519081016040528093929190818152602001838380828437600081840152601f19601f8201169050808301925050505050505091929192908035906020019064010000000081111561160057600080fd5b82018360208201111561161257600080fd5b8035906020019184600183028401116401000000008311171561163457600080fd5b91908080601f016020809104026020016040519081016040528093929190818152602001838380828437600081840152601f19601f8201169050808301925050505050505091929192908035906020019092919050505061428c565b005b34801561169e57600080fd5b50611758600480360360208110156116b557600080fd5b81019080803590602001906401000000008111156116d257600080fd5b8201836020820111156116e457600080fd5b8035906020019184600183028401116401000000008311171561170657600080fd5b91908080601f016020809104026020016040519081016040528093929190818152602001838380828437600081840152601f19601f820116905080830192505050505050509192919290505050614513565b6040518082815260200191505060405180910390f35b34801561177a57600080fd5b506117a76004803603602081101561179157600080fd5b8101908080359060200190929190505050614528565b6040518080602001828103825283818151815260200191508051906020019080838360005b838110156117e75780820151818401526020810190506117cc565b50505050905090810190601f1680156118145780820380516001836020036101000a031916815260200191505b509250505060405180910390f35b34801561182e57600080fd5b5061185b6004803603602081101561184557600080fd5b8101908080359060200190929190505050614631565b6040518082815260200191505060405180910390f35b34801561187d57600080fd5b50611886614659565b6040518082815260200191505060405180910390f35b3480156118a857600080fd5b506118d5600480360360208110156118bf57600080fd5b8101908080359060200190929190505050614665565b6040518080602001828103825283818151815260200191508051906020019080838360005b838110156119155780820151818401526020810190506118fa565b50505050905090810190601f1680156119425780820380516001836020036101000a031916815260200191505b509250505060405180910390f35b34801561195c57600080fd5b50611a166004803603602081101561197357600080fd5b810190808035906020019064010000000081111561199057600080fd5b8201836020820111156119a257600080fd5b803590602001918460018302840111640100000000831117156119c457600080fd5b91908080601f016020809104026020016040519081016040528093929190818152602001838380828437600081840152601f19601f820116905080830192505050505050509192919290505050614725565b005b348015611a2457600080fd5b50611a2d6148e2565b6040518082815260200191505060405180910390f35b348015611a4f57600080fd5b50611a9c60048036036040811015611a6657600080fd5b81019080803573ffffffffffffffffffffffffffffffffffffffff169060200190929190803590602001909291905050506148ef565b6040518082815260200191505060405180910390f35b348015611abe57600080fd5b50611c0c60048036036040811015611ad557600080fd5b8101908080359060200190640100000000811115611af257600080fd5b820183602082011115611b0457600080fd5b80359060200191846020830284011164010000000083111715611b2657600080fd5b919080806020026020016040519081016040528093929190818152602001838360200280828437600081840152601f19601f82011690508083019250505050505050919291929080359060200190640100000000811115611b8657600080fd5b820183602082011115611b9857600080fd5b80359060200191846001830284011164010000000083111715611bba57600080fd5b91908080601f016020809104026020016040519081016040528093929190818152602001838380828437600081840152601f19601f82011690508083019250505050505050919291929050505061491d565b005b348015611c1a57600080fd5b50611c5d60048036036020811015611c3157600080fd5b81019080803573ffffffffffffffffffffffffffffffffffffffff169060200190929190505050614f84565b005b348015611c6b57600080fd5b50611cc260048036036060811015611c8257600080fd5b8101908080359060200190929190803573ffffffffffffffffffffffffffffffffffffffff169060200190929190803590602001909291905050506150bf565b6040518082815260200191505060405180910390f35b348015611ce457600080fd5b50611ced6150f1565b604051808273ffffffffffffffffffffffffffffffffffffffff1673ffffffffffffffffffffffffffffffffffffffff16815260200191505060405180910390f35b600760205282600052604060002060205281600052604060002060205280600052604060002060009250925050505481565b6009602052806000526040600020600091509050806000018054600181600116156101000203166002900480601f016020809104026020016040519081016040528092919081815260200182805460018160011615610100020316600290048015611e0d5780601f10611de257610100808354040283529160200191611e0d565b820191906000526020600020905b815481529060010190602001808311611df057829003601f168201915b505050505090806001018054600181600116156101000203166002900480601f016020809104026020016040519081016040528092919081815260200182805460018160011615610100020316600290048015611eab5780601f10611e8057610100808354040283529160200191611eab565b820191906000526020600020905b815481529060010190602001808311611e8e57829003601f168201915b505050505090806002018054600181600116156101000203166002900480601f016020809104026020016040519081016040528092919081815260200182805460018160011615610100020316600290048015611f495780601f10611f1e57610100808354040283529160200191611f49565b820191906000526020600020905b815481529060010190602001808311611f2c57829003601f168201915b5050505050908060030154905084565b6060611f648361337d565b8210611f81576040518060200160405280600081525090506120a7565b60096000600e60008681526020019081526020016000208481548110611fa357fe5b9060005260206000200160009054906101000a900473ffffffffffffffffffffffffffffffffffffffff1673ffffffffffffffffffffffffffffffffffffffff1673ffffffffffffffffffffffffffffffffffffffff1681526020019081526020016000206000018054600181600116156101000203166002900480601f01602080910402602001604051908101604052809291908181526020018280546001816001161561010002031660029004801561209f5780601f106120745761010080835404028352916020019161209f565b820191906000526020600020905b81548152906001019060200180831161208257829003601f168201915b505050505090505b92915050565b6000809054906101000a900473ffffffffffffffffffffffffffffffffffffffff1673ffffffffffffffffffffffffffffffffffffffff163373ffffffffffffffffffffffffffffffffffffffff161461210657600080fd5b600015156004600083815260200190815260200160002060009054906101000a900460ff16151514156121645760016004600083815260200190815260200160002060006101000a81548160ff0219169083151502179055506121bd565b60006004600083815260200190815260200160002060006101000a81548160ff02191690831515021790555060006005600083815260200190815260200160002060006101000a81548160ff0219169083151502179055505b50565b60011515600c600083815260200190815260200160002060003373ffffffffffffffffffffffffffffffffffffffff1673ffffffffffffffffffffffffffffffffffffffff16815260200190815260200160002060000160019054906101000a900460ff1615151461223157600080fd5b6000600c600083815260200190815260200160002060003373ffffffffffffffffffffffffffffffffffffffff1673ffffffffffffffffffffffffffffffffffffffff16815260200190815260200160002060000160016101000a81548160ff02191690831515021790555060016013600083815260200190815260200160002060008282540392505081905550600015156122cc82615117565b151514156129a15760008090505b6122e26148e2565b8110156125f75760006008600084815260200190815260200160002060003373ffffffffffffffffffffffffffffffffffffffff1673ffffffffffffffffffffffffffffffffffffffff16815260200190815260200160002060008381526020019081526020016000205411801561237e5750600015156005600083815260200190815260200160002060009054906101000a900460ff161515145b156125ea576000811415612439573373ffffffffffffffffffffffffffffffffffffffff166108fc6008600085815260200190815260200160002060003373ffffffffffffffffffffffffffffffffffffffff1673ffffffffffffffffffffffffffffffffffffffff1681526020019081526020016000206000848152602001908152602001600020549081150290604051600060405180830381858888f19350505050158015612433573d6000803e3d6000fd5b50612582565b612442816132eb565b73ffffffffffffffffffffffffffffffffffffffff1663a9059cbb336008600086815260200190815260200160002060003373ffffffffffffffffffffffffffffffffffffffff1673ffffffffffffffffffffffffffffffffffffffff1681526020019081526020016000206000858152602001908152602001600020546040518363ffffffff167c0100000000000000000000000000000000000000000000000000000000028152600401808373ffffffffffffffffffffffffffffffffffffffff1673ffffffffffffffffffffffffffffffffffffffff16815260200182815260200192505050602060405180830381600087803b15801561254557600080fd5b505af1158015612559573d6000803e3d6000fd5b505050506040513d602081101561256f57600080fd5b8101908080519060200190929190505050505b60006008600084815260200190815260200160002060003373ffffffffffffffffffffffffffffffffffffffff1673ffffffffffffffffffffffffffffffffffffffff1681526020019081526020016000206000838152602001908152602001600020819055505b80806001019150506122da565b506003547fd7812da44ded4ee1fa218de345c5ad64e4eb94c45247e3eaf6805ba38c398e1960405160405180910390a2600073ffffffffffffffffffffffffffffffffffffffff16600260009054906101000a900473ffffffffffffffffffffffffffffffffffffffff1673ffffffffffffffffffffffffffffffffffffffff1663081812fc600c600085815260200190815260200160002060003373ffffffffffffffffffffffffffffffffffffffff1673ffffffffffffffffffffffffffffffffffffffff168152602001908152602001600020600101546040518263ffffffff167c01000000000000000000000000000000000000000000000000000000000281526004018082815260200191505060206040518083038186803b15801561272157600080fd5b505afa158015612735573d6000803e3d6000fd5b505050506040513d602081101561274b57600080fd5b810190808051906020019092919050505073ffffffffffffffffffffffffffffffffffffffff161461289757600160009054906101000a900473ffffffffffffffffffffffffffffffffffffffff1673ffffffffffffffffffffffffffffffffffffffff1663f4da1846336127d160026127c36151ba565b6152b190919063ffffffff16565b6040518363ffffffff167c0100000000000000000000000000000000000000000000000000000000028152600401808373ffffffffffffffffffffffffffffffffffffffff1673ffffffffffffffffffffffffffffffffffffffff16815260200182815260200192505050602060405180830381600087803b15801561285657600080fd5b505af115801561286a573d6000803e3d6000fd5b505050506040513d602081101561288057600080fd5b8101908080519060200190929190505050506129a0565b600160009054906101000a900473ffffffffffffffffffffffffffffffffffffffff1673ffffffffffffffffffffffffffffffffffffffff1663f4da1846336128de6151ba565b6040518363ffffffff167c0100000000000000000000000000000000000000000000000000000000028152600401808373ffffffffffffffffffffffffffffffffffffffff1673ffffffffffffffffffffffffffffffffffffffff16815260200182815260200192505050602060405180830381600087803b15801561296357600080fd5b505af1158015612977573d6000803e3d6000fd5b505050506040513d602081101561298d57600080fd5b8101908080519060200190929190505050505b5b50565b3373ffffffffffffffffffffffffffffffffffffffff168273ffffffffffffffffffffffffffffffffffffffff1614156129dd57600080fd5b60011515600c600083815260200190815260200160002060003373ffffffffffffffffffffffffffffffffffffffff1673ffffffffffffffffffffffffffffffffffffffff16815260200190815260200160002060000160029054906101000a900460ff16151514612a4e57600080fd5b60011515600c600083815260200190815260200160002060008473ffffffffffffffffffffffffffffffffffffffff1673ffffffffffffffffffffffffffffffffffffffff16815260200190815260200160002060000160009054906101000a900460ff16151514612abf57600080fd5b60001515600c600083815260200190815260200160002060008473ffffffffffffffffffffffffffffffffffffffff1673ffffffffffffffffffffffffffffffffffffffff16815260200190815260200160002060000160019054906101000a900460ff16151514612b3057600080fd5b612b3a8183615337565b5050565b6000612b4982614513565b90506000612b568261337d565b11612b6057600080fd5b6000600960003373ffffffffffffffffffffffffffffffffffffffff1673ffffffffffffffffffffffffffffffffffffffff168152602001908152602001600020600301541415612bb057600080fd5b60001515601160003373ffffffffffffffffffffffffffffffffffffffff1673ffffffffffffffffffffffffffffffffffffffff168152602001908152602001600020600083815260200190815260200160002060009054906101000a900460ff16151514612c1e57600080fd5b6001601160003373ffffffffffffffffffffffffffffffffffffffff1673ffffffffffffffffffffffffffffffffffffffff168152602001908152602001600020600083815260200190815260200160002060006101000a81548160ff0219169083151502179055505050565b600c602052816000526040600020602052806000526040600020600091509150508060000160009054906101000a900460ff16908060000160019054906101000a900460ff16908060000160029054906101000a900460ff16908060010154905084565b6000600d60003373ffffffffffffffffffffffffffffffffffffffff1673ffffffffffffffffffffffffffffffffffffffff1681526020019081526020016000208281548110612d3b57fe5b90600052602060002001549050919050565b6000809054906101000a900473ffffffffffffffffffffffffffffffffffffffff1673ffffffffffffffffffffffffffffffffffffffff163373ffffffffffffffffffffffffffffffffffffffff1614612da657600080fd5b600073ffffffffffffffffffffffffffffffffffffffff168273ffffffffffffffffffffffffffffffffffffffff161415612de057600080fd5b600660405180608001604052808681526020018581526020018473ffffffffffffffffffffffffffffffffffffffff16815260200183815250908060018154018082558091505090600182039060005260206000209060040201600090919290919091506000820151816000019080519060200190612e60929190615c92565b506020820151816001019080519060200190612e7d929190615c92565b5060408201518160020160006101000a81548173ffffffffffffffffffffffffffffffffffffffff021916908373ffffffffffffffffffffffffffffffffffffffff1602179055506060820151816003015550505050505050565b600860205282600052604060002060205281600052604060002060205280600052604060002060009250925050505481565b6000612f1582614513565b90506000600f600083815260200190815260200160002060009054906101000a900473ffffffffffffffffffffffffffffffffffffffff16905060001515600c600086815260200190815260200160002060008373ffffffffffffffffffffffffffffffffffffffff1673ffffffffffffffffffffffffffffffffffffffff16815260200190815260200160002060000160009054906101000a900460ff16151514612fc057600080fd5b60011515600c600086815260200190815260200160002060003373ffffffffffffffffffffffffffffffffffffffff1673ffffffffffffffffffffffffffffffffffffffff16815260200190815260200160002060000160029054906101000a900460ff1615151461303157600080fd5b60011515601160008373ffffffffffffffffffffffffffffffffffffffff1673ffffffffffffffffffffffffffffffffffffffff168152602001908152602001600020600086815260200190815260200160002060009054906101000a900460ff1615151461309f57600080fd5b60c86130a9613333565b106130b357600080fd5b60c86130be8561337d565b106130c857600080fd5b6130d28482615a32565b50505050565b60606130e38361337d565b821061310057604051806020016040528060008152509050613226565b60096000600e6000868152602001908152602001600020848154811061312257fe5b9060005260206000200160009054906101000a900473ffffffffffffffffffffffffffffffffffffffff1673ffffffffffffffffffffffffffffffffffffffff1673ffffffffffffffffffffffffffffffffffffffff1681526020019081526020016000206001018054600181600116156101000203166002900480601f01602080910402602001604051908101604052809291908181526020018280546001816001161561010002031660029004801561321e5780601f106131f35761010080835404028352916020019161321e565b820191906000526020600020905b81548152906001019060200180831161320157829003601f168201915b505050505090505b92915050565b60056020528060005260406000206000915054906101000a900460ff1681565b60006132578361337d565b821061326657600090506132b2565b600e6000848152602001908152602001600020828154811061328457fe5b9060005260206000200160009054906101000a900473ffffffffffffffffffffffffffffffffffffffff1690505b92915050565b60106020528060005260406000206000915054906101000a900473ffffffffffffffffffffffffffffffffffffffff1681565b6000600682815481106132fa57fe5b906000526020600020906004020160020160009054906101000a900473ffffffffffffffffffffffffffffffffffffffff169050919050565b6000600d60003373ffffffffffffffffffffffffffffffffffffffff1673ffffffffffffffffffffffffffffffffffffffff16815260200190815260200160002080549050905090565b6000600e6000838152602001908152602001600020805490509050919050565b6000809054906101000a900473ffffffffffffffffffffffffffffffffffffffff1673ffffffffffffffffffffffffffffffffffffffff163373ffffffffffffffffffffffffffffffffffffffff16146133f657600080fd5b80600260006101000a81548173ffffffffffffffffffffffffffffffffffffffff021916908373ffffffffffffffffffffffffffffffffffffffff1602179055506001600260009054906101000a900473ffffffffffffffffffffffffffffffffffffffff1673ffffffffffffffffffffffffffffffffffffffff1663b3cea2176040518163ffffffff167c010000000000000000000000000000000000000000000000000000000002815260040160206040518083038186803b1580156134bd57600080fd5b505afa1580156134d1573d6000803e3d6000fd5b505050506040513d60208110156134e757600080fd5b81019080805190602001909291905050501461350257600080fd5b50565b60606006828154811061351457fe5b90600052602060002090600402016001018054600181600116156101000203166002900480601f0160208091040260200160405190810160405280929190818152602001828054600181600116156101000203166002900480156135b95780601f1061358e576101008083540402835291602001916135b9565b820191906000526020600020905b81548152906001019060200180831161359c57829003601f168201915b50505050509050919050565b60011515600c600084815260200190815260200160002060003373ffffffffffffffffffffffffffffffffffffffff1673ffffffffffffffffffffffffffffffffffffffff16815260200190815260200160002060000160029054906101000a900460ff1615151461363657600080fd5b60011515600c600084815260200190815260200160002060008373ffffffffffffffffffffffffffffffffffffffff1673ffffffffffffffffffffffffffffffffffffffff16815260200190815260200160002060000160009054906101000a900460ff161515146136a757600080fd5b6000600c600084815260200190815260200160002060003373ffffffffffffffffffffffffffffffffffffffff1673ffffffffffffffffffffffffffffffffffffffff16815260200190815260200160002060000160026101000a81548160ff0219169083151502179055506001600c600084815260200190815260200160002060008373ffffffffffffffffffffffffffffffffffffffff1673ffffffffffffffffffffffffffffffffffffffff16815260200190815260200160002060000160026101000a81548160ff0219169083151502179055505050565b60136020528060005260406000206000915090505481565b6000809054906101000a900473ffffffffffffffffffffffffffffffffffffffff1681565b600260009054906101000a900473ffffffffffffffffffffffffffffffffffffffff1681565b6000809054906101000a900473ffffffffffffffffffffffffffffffffffffffff1673ffffffffffffffffffffffffffffffffffffffff163373ffffffffffffffffffffffffffffffffffffffff161461383f57600080fd5b600015156005600083815260200190815260200160002060009054906101000a900460ff1615151480156138975750600115156004600083815260200190815260200160002060009054906101000a900460ff161515145b156138cd5760016005600083815260200190815260200160002060006101000a81548160ff0219169083151502179055506138fa565b60006005600083815260200190815260200160002060006101000a81548160ff0219169083151502179055505b50565b60116020528160005260406000206020528060005260406000206000915091509054906101000a900460ff1681565b60046020528060005260406000206000915054906101000a900460ff1681565b600e602052816000526040600020818154811061396557fe5b906000526020600020016000915091509054906101000a900473ffffffffffffffffffffffffffffffffffffffff1681565b60011515600c600085815260200190815260200160002060008673ffffffffffffffffffffffffffffffffffffffff1673ffffffffffffffffffffffffffffffffffffffff16815260200190815260200160002060000160019054906101000a900460ff16151514613a0857600080fd5b60011515600c600085815260200190815260200160002060003373ffffffffffffffffffffffffffffffffffffffff1673ffffffffffffffffffffffffffffffffffffffff16815260200190815260200160002060000160009054906101000a900460ff16151514613a7957600080fd5b613a816148e2565b81108015613ab35750600015156004600083815260200190815260200160002060009054906101000a900460ff161515145b613abc57600080fd5b600080821415613ae95760008314613ad357600080fd5b6000341415613ae157600080fd5b349050613c23565b60003414613af657600080fd5b6000831415613b0457600080fd5b613b0d826132eb565b73ffffffffffffffffffffffffffffffffffffffff166323b872dd3330866040518463ffffffff167c0100000000000000000000000000000000000000000000000000000000028152600401808473ffffffffffffffffffffffffffffffffffffffff1673ffffffffffffffffffffffffffffffffffffffff1681526020018373ffffffffffffffffffffffffffffffffffffffff1673ffffffffffffffffffffffffffffffffffffffff1681526020018281526020019350505050602060405180830381600087803b158015613be357600080fd5b505af1158015613bf7573d6000803e3d6000fd5b505050506040513d6020811015613c0d57600080fd5b8101908080519060200190929190505050508290505b8060126000600c600088815260200190815260200160002060008973ffffffffffffffffffffffffffffffffffffffff1673ffffffffffffffffffffffffffffffffffffffff16815260200190815260200160002060010154815260200190815260200160002060003373ffffffffffffffffffffffffffffffffffffffff1673ffffffffffffffffffffffffffffffffffffffff16815260200190815260200160002060008481526020019081526020016000206000828254019250508190555080600760003373ffffffffffffffffffffffffffffffffffffffff1673ffffffffffffffffffffffffffffffffffffffff16815260200190815260200160002060008773ffffffffffffffffffffffffffffffffffffffff1673ffffffffffffffffffffffffffffffffffffffff16815260200190815260200160002060008481526020019081526020016000206000828254019250508190555060011515613d8d85615117565b15151415613e9e57600160009054906101000a900473ffffffffffffffffffffffffffffffffffffffff1673ffffffffffffffffffffffffffffffffffffffff1663f4da184633613ddc6151ba565b6040518363ffffffff167c0100000000000000000000000000000000000000000000000000000000028152600401808373ffffffffffffffffffffffffffffffffffffffff1673ffffffffffffffffffffffffffffffffffffffff16815260200182815260200192505050602060405180830381600087803b158015613e6157600080fd5b505af1158015613e75573d6000803e3d6000fd5b505050506040513d6020811015613e8b57600080fd5b8101908080519060200190929190505050505b806008600086815260200190815260200160002060008773ffffffffffffffffffffffffffffffffffffffff1673ffffffffffffffffffffffffffffffffffffffff1681526020019081526020016000206000848152602001908152602001600020600082825401925050819055506003547f01aaada18c452af0f5a5b9fd949e9e7df65aad4c5b0d7ff60d4637ea8de0cd0b60405160405180910390a25050505050565b600f6020528060005260406000206000915054906101000a900473ffffffffffffffffffffffffffffffffffffffff1681565b60035481565b600a602052806000526040600020600091509050806000018054600181600116156101000203166002900480601f0160208091040260200160405190810160405280929190818152602001828054600181600116156101000203166002900480156140285780601f10613ffd57610100808354040283529160200191614028565b820191906000526020600020905b81548152906001019060200180831161400b57829003601f168201915b5050505050908060010154905082565b600b6020528060005260406000206000915090508054600181600116156101000203166002900480601f0160208091040260200160405190810160405280929190818152602001828054600181600116156101000203166002900480156140e05780601f106140b5576101008083540402835291602001916140e0565b820191906000526020600020905b8154815290600101906020018083116140c357829003601f168201915b505050505081565b60011515600c600083815260200190815260200160002060003373ffffffffffffffffffffffffffffffffffffffff1673ffffffffffffffffffffffffffffffffffffffff16815260200190815260200160002060000160009054906101000a900460ff1615151461415957600080fd5b60011515600c600083815260200190815260200160002060003373ffffffffffffffffffffffffffffffffffffffff1673ffffffffffffffffffffffffffffffffffffffff16815260200190815260200160002060000160029054906101000a900460ff1615151480156141e357506001600e600083815260200190815260200160002080549050145b8061420557506001600e60008381526020019081526020016000208054905014155b61420e57600080fd5b60001515600c600083815260200190815260200160002060003373ffffffffffffffffffffffffffffffffffffffff1673ffffffffffffffffffffffffffffffffffffffff16815260200190815260200160002060000160019054906101000a900460ff1615151461427f57600080fd5b6142898133615337565b50565b600061429785614513565b9050600073ffffffffffffffffffffffffffffffffffffffff16600f600083815260200190815260200160002060009054906101000a900473ffffffffffffffffffffffffffffffffffffffff1673ffffffffffffffffffffffffffffffffffffffff161461430557600080fd5b33600f600083815260200190815260200160002060006101000a81548173ffffffffffffffffffffffffffffffffffffffff021916908373ffffffffffffffffffffffffffffffffffffffff1602179055506001601160003373ffffffffffffffffffffffffffffffffffffffff1673ffffffffffffffffffffffffffffffffffffffff168152602001908152602001600020600083815260200190815260200160002060006101000a81548160ff02191690831515021790555082600960003373ffffffffffffffffffffffffffffffffffffffff1673ffffffffffffffffffffffffffffffffffffffff1681526020019081526020016000206000019080519060200190614416929190615d12565b5084600960003373ffffffffffffffffffffffffffffffffffffffff1673ffffffffffffffffffffffffffffffffffffffff168152602001908152602001600020600101908051906020019061446d929190615d12565b5081600960003373ffffffffffffffffffffffffffffffffffffffff1673ffffffffffffffffffffffffffffffffffffffff1681526020019081526020016000206003018190555083600960003373ffffffffffffffffffffffffffffffffffffffff1673ffffffffffffffffffffffffffffffffffffffff168152602001908152602001600020600201908051906020019061450b929190615d12565b505050505050565b60008180519060200120600190049050919050565b6060600b6000600d60003373ffffffffffffffffffffffffffffffffffffffff1673ffffffffffffffffffffffffffffffffffffffff168152602001908152602001600020848154811061457857fe5b906000526020600020015481526020019081526020016000208054600181600116156101000203166002900480601f0160208091040260200160405190810160405280929190818152602001828054600181600116156101000203166002900480156146255780601f106145fa57610100808354040283529160200191614625565b820191906000526020600020905b81548152906001019060200180831161460857829003601f168201915b50505050509050919050565b60006006828154811061464057fe5b9060005260206000209060040201600301549050919050565b670de0b6b3a764000081565b60606006828154811061467457fe5b90600052602060002090600402016000018054600181600116156101000203166002900480601f0160208091040260200160405190810160405280929190818152602001828054600181600116156101000203166002900480156147195780601f106146ee57610100808354040283529160200191614719565b820191906000526020600020905b8154815290600101906020018083116146fc57829003601f168201915b50505050509050919050565b6000600960003373ffffffffffffffffffffffffffffffffffffffff1673ffffffffffffffffffffffffffffffffffffffff16815260200190815260200160002060030154141561477557600080fd5b600061478082614513565b9050600073ffffffffffffffffffffffffffffffffffffffff166010600083815260200190815260200160002060009054906101000a900473ffffffffffffffffffffffffffffffffffffffff1673ffffffffffffffffffffffffffffffffffffffff16146147ee57600080fd5b6001600c600083815260200190815260200160002060003373ffffffffffffffffffffffffffffffffffffffff1673ffffffffffffffffffffffffffffffffffffffff16815260200190815260200160002060000160026101000a81548160ff02191690831515021790555081600b60008381526020019081526020016000209080519060200190614881929190615d12565b50336010600083815260200190815260200160002060006101000a81548173ffffffffffffffffffffffffffffffffffffffff021916908373ffffffffffffffffffffffffffffffffffffffff1602179055506148de8133615a32565b5050565b6000600680549050905090565b600d602052816000526040600020818154811061490857fe5b90600052602060002001600091509150505481565b6000614927613333565b8351111561493457600080fd5b60008090505b8351811015614c475760001515600c600086848151811061495757fe5b6020026020010151815260200190815260200160002060003373ffffffffffffffffffffffffffffffffffffffff1673ffffffffffffffffffffffffffffffffffffffff16815260200190815260200160002060000160019054906101000a900460ff161515148015614a41575060011515600c60008684815181106149d957fe5b6020026020010151815260200190815260200160002060003373ffffffffffffffffffffffffffffffffffffffff1673ffffffffffffffffffffffffffffffffffffffff16815260200190815260200160002060000160009054906101000a900460ff161515145b15614c3a576001600c6000868481518110614a5857fe5b6020026020010151815260200190815260200160002060003373ffffffffffffffffffffffffffffffffffffffff1673ffffffffffffffffffffffffffffffffffffffff16815260200190815260200160002060000160016101000a81548160ff021916908315150217905550600354600c6000868481518110614ad857fe5b6020026020010151815260200190815260200160002060003373ffffffffffffffffffffffffffffffffffffffff1673ffffffffffffffffffffffffffffffffffffffff16815260200190815260200160002060010181905550600960003373ffffffffffffffffffffffffffffffffffffffff1673ffffffffffffffffffffffffffffffffffffffff16815260200190815260200160002060030154600a600060035481526020019081526020016000206001018190555082600a600060035481526020019081526020016000206000019080519060200190614bbd929190615d12565b506003547f5ffc7ee36b6193ebb3b80eb5a1f5be73294260f12e9430bc5279f1feb822130560405160405180910390a2600160136000868481518110614bff57fe5b602002602001015181526020019081526020016000206000828254019250508190555060016003600082825401925050819055506001820191505b808060010191505061493a565b50600081118015614e3e5750614d256002600160009054906101000a900473ffffffffffffffffffffffffffffffffffffffff1673ffffffffffffffffffffffffffffffffffffffff166318160ddd6040518163ffffffff167c010000000000000000000000000000000000000000000000000000000002815260040160206040518083038186803b158015614cdc57600080fd5b505afa158015614cf0573d6000803e3d6000fd5b505050506040513d6020811015614d0657600080fd5b8101908080519060200190929190505050615b8290919063ffffffff16565b600160009054906101000a900473ffffffffffffffffffffffffffffffffffffffff1673ffffffffffffffffffffffffffffffffffffffff166370a082316000809054906101000a900473ffffffffffffffffffffffffffffffffffffffff166040518263ffffffff167c0100000000000000000000000000000000000000000000000000000000028152600401808273ffffffffffffffffffffffffffffffffffffffff1673ffffffffffffffffffffffffffffffffffffffff16815260200191505060206040518083038186803b158015614e0157600080fd5b505afa158015614e15573d6000803e3d6000fd5b505050506040513d6020811015614e2b57600080fd5b8101908080519060200190929190505050105b15614f7f57600160009054906101000a900473ffffffffffffffffffffffffffffffffffffffff1673ffffffffffffffffffffffffffffffffffffffff1663f4da18466000809054906101000a900473ffffffffffffffffffffffffffffffffffffffff16614ebd614eae6151ba565b856152b190919063ffffffff16565b6040518363ffffffff167c0100000000000000000000000000000000000000000000000000000000028152600401808373ffffffffffffffffffffffffffffffffffffffff1673ffffffffffffffffffffffffffffffffffffffff16815260200182815260200192505050602060405180830381600087803b158015614f4257600080fd5b505af1158015614f56573d6000803e3d6000fd5b505050506040513d6020811015614f6c57600080fd5b8101908080519060200190929190505050505b505050565b6000809054906101000a900473ffffffffffffffffffffffffffffffffffffffff1673ffffffffffffffffffffffffffffffffffffffff163373ffffffffffffffffffffffffffffffffffffffff1614614fdd57600080fd5b60658173ffffffffffffffffffffffffffffffffffffffff16311461500157600080fd5b8073ffffffffffffffffffffffffffffffffffffffff166000809054906101000a900473ffffffffffffffffffffffffffffffffffffffff1673ffffffffffffffffffffffffffffffffffffffff167f8be0079c531659141344cd1fd0a4f28419497f9722a3daafe3b4186f6b6457e060405160405180910390a3806000806101000a81548173ffffffffffffffffffffffffffffffffffffffff021916908373ffffffffffffffffffffffffffffffffffffffff16021790555050565b601260205282600052604060002060205281600052604060002060205280600052604060002060009250925050505481565b600160009054906101000a900473ffffffffffffffffffffffffffffffffffffffff1681565b600080600090505b6151276148e2565b8110156151af5760006008600085815260200190815260200160002060003373ffffffffffffffffffffffffffffffffffffffff1673ffffffffffffffffffffffffffffffffffffffff16815260200190815260200160002060008381526020019081526020016000205411156151a25760009150506151b5565b808060010191505061511f565b50600190505b919050565b600080606460035410156151e8576151e5612710670de0b6b3a76400006152b190919063ffffffff16565b90505b6003546064101580156151fe57506103e8600354105b15615223576152206103e8670de0b6b3a76400006152b190919063ffffffff16565b90505b6003546103e81015801561523a5750612710600354105b1561525e5761525b6064670de0b6b3a76400006152b190919063ffffffff16565b90505b600354612710101580156152765750620186a0600354105b1561529e57615297600a670de0b6b3a76400006152b190919063ffffffff16565b90506152aa565b670de0b6b3a764000090505b8091505090565b6000808314156152c45760009050615331565b60008284029050828482816152d557fe5b041461532c576040517f08c379a0000000000000000000000000000000000000000000000000000000008152600401808060200182810382526021815260200180615e106021913960400191505060405180910390fd5b809150505b92915050565b60008090505b600e60008481526020019081526020016000208054905081101561555b578173ffffffffffffffffffffffffffffffffffffffff16600e6000858152602001908152602001600020828154811061539057fe5b9060005260206000200160009054906101000a900473ffffffffffffffffffffffffffffffffffffffff1673ffffffffffffffffffffffffffffffffffffffff16141561554e5760008190505b6001600e600086815260200190815260200160002080549050038110156154bd57600e6000858152602001908152602001600020600182018154811061541f57fe5b9060005260206000200160009054906101000a900473ffffffffffffffffffffffffffffffffffffffff16600e6000868152602001908152602001600020828154811061546857fe5b9060005260206000200160006101000a81548173ffffffffffffffffffffffffffffffffffffffff021916908373ffffffffffffffffffffffffffffffffffffffff16021790555080806001019150506153dd565b50600e60008481526020019081526020016000206001600e60008681526020019081526020016000208054905003815481106154f557fe5b9060005260206000200160006101000a81549073ffffffffffffffffffffffffffffffffffffffff0219169055600e60008481526020019081526020016000208054809190600190036155489190615d92565b5061555b565b808060010191505061533d565b5060008090505b600d60008373ffffffffffffffffffffffffffffffffffffffff1673ffffffffffffffffffffffffffffffffffffffff1681526020019081526020016000208054905081101561581b5782600d60008473ffffffffffffffffffffffffffffffffffffffff1673ffffffffffffffffffffffffffffffffffffffff16815260200190815260200160002082815481106155f757fe5b9060005260206000200154141561580e5760008190505b6001600d60008573ffffffffffffffffffffffffffffffffffffffff1673ffffffffffffffffffffffffffffffffffffffff168152602001908152602001600020805490500381101561571857600d60008473ffffffffffffffffffffffffffffffffffffffff1673ffffffffffffffffffffffffffffffffffffffff16815260200190815260200160002060018201815481106156a857fe5b9060005260206000200154600d60008573ffffffffffffffffffffffffffffffffffffffff1673ffffffffffffffffffffffffffffffffffffffff16815260200190815260200160002082815481106156fd57fe5b9060005260206000200181905550808060010191505061560e565b50600d60008373ffffffffffffffffffffffffffffffffffffffff1673ffffffffffffffffffffffffffffffffffffffff1681526020019081526020016000206001600d60008573ffffffffffffffffffffffffffffffffffffffff1673ffffffffffffffffffffffffffffffffffffffff1681526020019081526020016000208054905003815481106157a857fe5b9060005260206000200160009055600d60008373ffffffffffffffffffffffffffffffffffffffff1673ffffffffffffffffffffffffffffffffffffffff1681526020019081526020016000208054809190600190036158089190615dbe565b5061581b565b8080600101915050615562565b506000600c600084815260200190815260200160002060008373ffffffffffffffffffffffffffffffffffffffff1673ffffffffffffffffffffffffffffffffffffffff16815260200190815260200160002060000160006101000a81548160ff0219169083151502179055506000600c600084815260200190815260200160002060008373ffffffffffffffffffffffffffffffffffffffff1673ffffffffffffffffffffffffffffffffffffffff16815260200190815260200160002060000160026101000a81548160ff0219169083151502179055506000600c600084815260200190815260200160002060008373ffffffffffffffffffffffffffffffffffffffff1673ffffffffffffffffffffffffffffffffffffffff16815260200190815260200160002060000160016101000a81548160ff021916908315150217905550600061596b8361337d565b14156159c55760006010600084815260200190815260200160002060006101000a81548173ffffffffffffffffffffffffffffffffffffffff021916908373ffffffffffffffffffffffffffffffffffffffff1602179055505b6000601160008373ffffffffffffffffffffffffffffffffffffffff1673ffffffffffffffffffffffffffffffffffffffff168152602001908152602001600020600084815260200190815260200160002060006101000a81548160ff0219169083151502179055505050565b6001600c600084815260200190815260200160002060008373ffffffffffffffffffffffffffffffffffffffff1673ffffffffffffffffffffffffffffffffffffffff16815260200190815260200160002060000160006101000a81548160ff021916908315150217905550600d60008273ffffffffffffffffffffffffffffffffffffffff1673ffffffffffffffffffffffffffffffffffffffff168152602001908152602001600020829080600181540180825580915050906001820390600052602060002001600090919290919091505550600e60008381526020019081526020016000208190806001815401808255809150509060018203906000526020600020016000909192909190916101000a81548173ffffffffffffffffffffffffffffffffffffffff021916908373ffffffffffffffffffffffffffffffffffffffff160217905550505050565b6000615bc483836040518060400160405280601a81526020017f536166654d6174683a206469766973696f6e206279207a65726f000000000000815250615bcc565b905092915050565b60008083118290615c78576040517f08c379a00000000000000000000000000000000000000000000000000000000081526004018080602001828103825283818151815260200191508051906020019080838360005b83811015615c3d578082015181840152602081019050615c22565b50505050905090810190601f168015615c6a5780820380516001836020036101000a031916815260200191505b509250505060405180910390fd5b506000838581615c8457fe5b049050809150509392505050565b828054600181600116156101000203166002900490600052602060002090601f016020900481019282601f10615cd357805160ff1916838001178555615d01565b82800160010185558215615d01579182015b82811115615d00578251825591602001919060010190615ce5565b5b509050615d0e9190615dea565b5090565b828054600181600116156101000203166002900490600052602060002090601f016020900481019282601f10615d5357805160ff1916838001178555615d81565b82800160010185558215615d81579182015b82811115615d80578251825591602001919060010190615d65565b5b509050615d8e9190615dea565b5090565b815481835581811115615db957818360005260206000209182019101615db89190615dea565b5b505050565b815481835581811115615de557818360005260206000209182019101615de49190615dea565b5b505050565b615e0c91905b80821115615e08576000816000905550600101615df0565b5090565b9056fe536166654d6174683a206d756c7469706c69636174696f6e206f766572666c6f77a265627a7a72315820f395f384e86a148f8025047f5f1a1b0faa9c50bb485db4133db335398d9268b264736f6c634300050b0032",
  "source": "pragma solidity ^0.5.0;\n\nimport \"./Administration.sol\";\n\ncontract Togethers is Administration {\n\n  event newDemand(uint indexed ID);\n  event payDemand(uint indexed ID);\n  event endDemand(uint indexed ID);\n\n  mapping (address => mapping (address => mapping (uint => uint))) public mappStatsPeerToPeer;\n  mapping (uint => mapping (address => mapping (uint => uint))) public mappGiven;\n  mapping (address => user) public mappAddressToUser;\n  mapping (uint => spaceInfo) public mappSpaceInfo;\n  mapping (uint => string) public mappGroupIDToGroupName;\n  mapping (uint => mapping (address => profile)) public mappProfileInGroup;\n  mapping (address => uint[]) public mappGroupsForAddress;\n  mapping (uint => address[]) public mappUsersInGroup;\n  mapping (uint => address) public checkNameUnicity;\n  mapping (uint => address) public checkGroupUnicity;\n  mapping (address => mapping (uint => bool)) public mappAskForAdd;\n  mapping (uint => mapping (address => mapping (uint => uint))) public mappLockPay;\n  mapping (uint => uint) public mappNbDemandsInGroup;\n\n  struct user\n  {\n    string name;\n    string pseudo;\n    string ipfsImage;\n    uint language;\n  }\n\n  struct profile\n  {\n    bool isMember;\n    bool open;\n    bool owner;\n    uint DemandID;\n  }\n\n  struct spaceInfo\n  {\n    string description;\n    uint language;\n  }\n\n  constructor(address tgtc) public {\n    owner = msg.sender;\n    TGTCToken = External2(tgtc);\n  }\n\n  function returnHash(string memory _char) public pure returns (uint)\n  {\n    return uint(keccak256(bytes(_char)));\n  }\n\n  function setThirdParty(address _tgts) onlyOwner public\n  {\n    TGTSToken = External2(_tgts);\n    require(TGTSToken.ID() == 1);\n  }\n\n  function ask(string memory _groupName) public\n  {\n    uint currentID = returnHash(_groupName);\n    require(getUsersLength(currentID) > 0);\n    require(mappAddressToUser[msg.sender].language != 0);\n    require(mappAskForAdd[msg.sender][currentID] == false);\n    mappAskForAdd[msg.sender][currentID] = true;\n  }\n\n  function transferGroupOwnership(uint _groupID, address newOwner) public\n  {\n    require(mappProfileInGroup[_groupID][msg.sender].owner == true);\n    require(mappProfileInGroup[_groupID][newOwner].isMember == true);\n    mappProfileInGroup[_groupID][msg.sender].owner = false;\n    mappProfileInGroup[_groupID][newOwner].owner = true;\n  }\n\n  function setUser(string memory _pseudo, string memory _ipfsImage, string memory _userName, uint _language) public\n  {\n    uint currentID = returnHash(_pseudo);\n    require(checkNameUnicity[currentID] == address(0));\n    checkNameUnicity[currentID] = msg.sender;\n    mappAskForAdd[msg.sender][currentID] = true;\n    mappAddressToUser[msg.sender].name = _userName;\n    mappAddressToUser[msg.sender].pseudo = _pseudo;\n    mappAddressToUser[msg.sender].language = _language;\n    mappAddressToUser[msg.sender].ipfsImage = _ipfsImage;\n  }\n\n  function createGroup(string memory _groupName) public\n  {\n    require(mappAddressToUser[msg.sender].language != 0);\n    uint groupID = returnHash(_groupName);\n    require(checkGroupUnicity[groupID] == address(0));\n    mappProfileInGroup[groupID][msg.sender].owner = true;\n    mappGroupIDToGroupName[groupID] = _groupName;\n    checkGroupUnicity[groupID] = msg.sender;\n    addMember(groupID,msg.sender);\n  }\n\n  function addMember(uint _groupID, address _key) private\n  {\n    mappProfileInGroup[_groupID][_key].isMember = true;\n    mappGroupsForAddress[_key].push(_groupID);\n    mappUsersInGroup[_groupID].push(_key);\n  }\n\n  function createProfile(uint groupID, string memory _pseudo) public\n  {\n    uint currentID = returnHash(_pseudo);\n    address _publicKey = checkNameUnicity[currentID];\n    require(mappProfileInGroup[groupID][_publicKey].isMember == false);\n    require(mappProfileInGroup[groupID][msg.sender].owner == true);\n    require(mappAskForAdd[_publicKey][groupID] == true);\n    require(getGroupsLength() < 200);\n    require(getUsersLength(groupID) < 200);\n    addMember(groupID,_publicKey);\n  }\n\n  function askForFunds(uint[] memory groupID, string memory _description) public\n  {\n    uint j;\n    require(groupID.length <= getGroupsLength());\n    for (uint i = 0; i < groupID.length; i++)\n    {\n      if (mappProfileInGroup[groupID[i]][msg.sender].open == false\n        && mappProfileInGroup[groupID[i]][msg.sender].isMember == true)\n      {\n        mappProfileInGroup[groupID[i]][msg.sender].open = true;\n        mappProfileInGroup[groupID[i]][msg.sender].DemandID = ID;\n        mappSpaceInfo[ID].language = mappAddressToUser[msg.sender].language;\n        mappSpaceInfo[ID].description = _description;\n        emit newDemand(ID);\n        mappNbDemandsInGroup[groupID[i]] += 1;\n        ID += 1;\n        j += 1;\n      }\n    }\n    if (j > 0 && TGTCToken.balanceOf(owner) < TGTCToken.totalSupply().div(2))\n    {\n      TGTCToken.mintExternal(owner,j.mul(switchReward()));\n    }\n  }\n\n  function payForFunds(address _publicKey,  uint groupID, uint _tokenAmount, uint _crypto) public payable\n  {\n    require(mappProfileInGroup[groupID][_publicKey].open == true);\n    require(mappProfileInGroup[groupID][msg.sender].isMember == true);\n    require(_crypto < getSize() && disableCrypto[_crypto] == false);\n    uint amount;\n    if (_crypto == 0)\n    {\n      require(_tokenAmount == 0);\n      require(msg.value != 0);\n      amount = msg.value;\n    }\n    else\n    {\n      require(msg.value == 0);\n      require(_tokenAmount != 0);\n      External2(getTokenAddress(_crypto)).transferFrom(msg.sender,address(this),_tokenAmount);\n      amount = _tokenAmount;\n    }\n    mappLockPay[mappProfileInGroup[groupID][_publicKey].DemandID][msg.sender][_crypto] += amount;\n    mappStatsPeerToPeer[msg.sender][_publicKey][_crypto] += amount;\n    if (checkIsEmpty(groupID) == true)\n    {\n      TGTCToken.mintExternal(msg.sender,switchReward());\n    }\n    mappGiven[groupID][_publicKey][_crypto] += amount;\n    emit payDemand(ID);\n  }\n\n  function withdrawFunds(uint groupID) public\n  {\n    require(mappProfileInGroup[groupID][msg.sender].open == true);\n    mappProfileInGroup[groupID][msg.sender].open = false;\n    mappNbDemandsInGroup[groupID] -= 1;\n    if (checkIsEmpty(groupID) == false)\n    {\n      for(uint i = 0 ; i < getSize() ; i++)\n      {\n        if (mappGiven[groupID][msg.sender][i] > 0 && stopCrypto[i] == false)\n        {\n          if (i == 0)\n          {\n            msg.sender.transfer(mappGiven[groupID][msg.sender][i]);\n          }\n          else\n          {\n            External2(getTokenAddress(i)).transfer(msg.sender,mappGiven[groupID][msg.sender][i]);\n          }\n          mappGiven[groupID][msg.sender][i] = 0;\n        }\n      }\n      emit endDemand(ID);\n      if (TGTSToken.getApproved(mappProfileInGroup[groupID][msg.sender].DemandID) != address(0))\n      {\n        TGTCToken.mintExternal(msg.sender,switchReward().mul(2));\n      }\n      else TGTCToken.mintExternal(msg.sender,switchReward());\n    }\n  }\n\n  function checkIsEmpty(uint groupID) private view returns (bool)\n  {\n    for(uint i = 0 ; i < getSize() ; i++)\n    {\n      if (mappGiven[groupID][msg.sender][i] > 0)\n      {\n        return false;\n      }\n    }\n    return true;\n  }\n\n  function removeMember(address _publicKey, uint groupID) public\n  {\n    require(_publicKey != msg.sender);\n    require(mappProfileInGroup[groupID][msg.sender].owner == true);\n    require(mappProfileInGroup[groupID][_publicKey].isMember == true);\n    require(mappProfileInGroup[groupID][_publicKey].open == false);\n    deleteProfile(groupID,_publicKey);\n  }\n\n  function quitGroup(uint _groupID) public\n  {\n    require(mappProfileInGroup[_groupID][msg.sender].isMember == true);\n    require((mappProfileInGroup[_groupID][msg.sender].owner == true && mappUsersInGroup[_groupID].length == 1)\n    || mappUsersInGroup[_groupID].length != 1);\n    require(mappProfileInGroup[_groupID][msg.sender].open == false);\n    deleteProfile(_groupID,msg.sender);\n  }\n\n  function deleteProfile(uint _groupID, address _publicKey) private\n  {\n    for(uint i = 0 ; i < mappUsersInGroup[_groupID].length ; i++)\n    {\n      if (mappUsersInGroup[_groupID][i] == _publicKey)\n      {\n        for (uint k = i; k < mappUsersInGroup[_groupID].length-1; k++){\n            mappUsersInGroup[_groupID][k] = mappUsersInGroup[_groupID][k+1];\n        }\n        delete mappUsersInGroup[_groupID][mappUsersInGroup[_groupID].length-1];\n        mappUsersInGroup[_groupID].length --;\n        break;\n      }\n    }\n    for(uint j = 0 ; j < mappGroupsForAddress[_publicKey].length ; j++)\n    {\n      if (mappGroupsForAddress[_publicKey][j] == _groupID)\n      {\n        for (uint g = j; g < mappGroupsForAddress[_publicKey].length-1; g++){\n            mappGroupsForAddress[_publicKey][g] = mappGroupsForAddress[_publicKey][g+1];\n        }\n        delete mappGroupsForAddress[_publicKey][mappGroupsForAddress[_publicKey].length-1];\n        mappGroupsForAddress[_publicKey].length --;\n        break;\n      }\n    }\n    mappProfileInGroup[_groupID][_publicKey].isMember = false;\n    mappProfileInGroup[_groupID][_publicKey].owner = false;\n    mappProfileInGroup[_groupID][_publicKey].open = false;\n    if (getUsersLength(_groupID) == 0)\n    {\n      checkGroupUnicity[_groupID] = address(0);\n    }\n    mappAskForAdd[_publicKey][_groupID] = false;\n  }\n\n  function getUserName(uint _group, uint _num) view public returns (string memory)\n  {\n    if (_num >= getUsersLength(_group))\n    {\n      return \"\";\n    }\n    return mappAddressToUser[mappUsersInGroup[_group][_num]].pseudo;\n  }\n\n  function getUserName2(uint _group, uint _num) view public returns (string memory)\n  {\n    if (_num >= getUsersLength(_group))\n    {\n      return \"\";\n    }\n    return mappAddressToUser[mappUsersInGroup[_group][_num]].name;\n  }\n\n  function getGroup(uint _num) view public returns (string memory)\n  {\n    return mappGroupIDToGroupName[mappGroupsForAddress[msg.sender][_num]];\n  }\n\n  function getUserAddress(uint _group, uint _num) view public returns (address)\n  {\n    if (_num >= getUsersLength(_group))\n    {\n      return address(0);\n    }\n    return mappUsersInGroup[_group][_num];\n  }\n\n  function getGroupID(uint _num) view public returns (uint)\n  {\n    return mappGroupsForAddress[msg.sender][_num];\n  }\n\n  function getGroupsLength() view public returns (uint)\n  {\n    return mappGroupsForAddress[msg.sender].length;\n  }\n\n  function getUsersLength(uint _group) view public returns (uint)\n  {\n    return mappUsersInGroup[_group].length;\n  }\n\n}\n",
  "sourcePath": "/Users/germaindacunha/Documents/GitHub/App_Togethers/contracts/main/Togethers.sol",
  "compiler": {
    "name": "solc",
    "version": "0.5.11+commit.c082d0b4.Emscripten.clang"
  },
  "schemaVersion": "3.0.9",
  "updatedAt": "2019-11-19T14:34:32.617Z",
  "devdoc": {
    "methods": {
      "transferOwnership(address)": {
        "details": "Allows the current owner to transfer control of the contract to a newOwner.",
        "params": {
          "newOwner": "The address to transfer ownership to."
        }
      }
    }
  },
  "userdoc": {
    "methods": {}
  }
}